{
  "_format": "hh-sol-artifact-1",
  "contractName": "LoyaltyCoupon",
  "sourceName": "contracts/LoyaltyCoupon.sol",
  "abi": [
    {
      "anonymous": false,
      "inputs": [
        {
          "indexed": false,
          "internalType": "uint256",
          "name": "couponId",
          "type": "uint256"
        },
        {
          "indexed": true,
          "internalType": "address",
          "name": "user",
          "type": "address"
        }
      ],
      "name": "CouponClaimed",
      "type": "event"
    },
    {
      "anonymous": false,
      "inputs": [
        {
          "indexed": false,
          "internalType": "uint256",
          "name": "couponId",
          "type": "uint256"
        },
        {
          "indexed": true,
          "internalType": "address",
          "name": "admin",
          "type": "address"
        },
        {
          "indexed": false,
          "internalType": "uint256",
          "name": "discountAmount",
          "type": "uint256"
        }
      ],
      "name": "CouponCreated",
      "type": "event"
    },
    {
      "anonymous": false,
      "inputs": [
        {
          "indexed": false,
          "internalType": "uint256",
          "name": "couponId",
          "type": "uint256"
        },
        {
          "indexed": true,
          "internalType": "address",
          "name": "user",
          "type": "address"
        }
      ],
      "name": "CouponRedeemed",
      "type": "event"
    },
    {
      "anonymous": false,
      "inputs": [
        {
          "indexed": true,
          "internalType": "address",
          "name": "admin",
          "type": "address"
        },
        {
          "indexed": false,
          "internalType": "string",
          "name": "name",
          "type": "string"
        }
      ],
      "name": "OrganizationCreated",
      "type": "event"
    },
    {
      "inputs": [
        {
          "internalType": "uint256",
          "name": "couponId",
          "type": "uint256"
        }
      ],
      "name": "claimCoupon",
      "outputs": [],
      "stateMutability": "nonpayable",
      "type": "function"
    },
    {
      "inputs": [],
      "name": "couponCounter",
      "outputs": [
        {
          "internalType": "uint256",
          "name": "",
          "type": "uint256"
        }
      ],
      "stateMutability": "view",
      "type": "function"
    },
    {
      "inputs": [
        {
          "internalType": "uint256",
          "name": "",
          "type": "uint256"
        }
      ],
      "name": "coupons",
      "outputs": [
        {
          "internalType": "uint256",
          "name": "id",
          "type": "uint256"
        },
        {
          "internalType": "address",
          "name": "admin",
          "type": "address"
        },
        {
          "internalType": "address",
          "name": "user",
          "type": "address"
        },
        {
          "internalType": "uint256",
          "name": "discountAmount",
          "type": "uint256"
        },
        {
          "internalType": "bool",
          "name": "isRedeemed",
          "type": "bool"
        }
      ],
      "stateMutability": "view",
      "type": "function"
    },
    {
      "inputs": [
        {
          "internalType": "uint256",
          "name": "discountAmount",
          "type": "uint256"
        }
      ],
      "name": "createCoupon",
      "outputs": [],
      "stateMutability": "nonpayable",
      "type": "function"
    },
    {
      "inputs": [
        {
          "internalType": "string",
          "name": "name",
          "type": "string"
        }
      ],
      "name": "createOrganization",
      "outputs": [],
      "stateMutability": "nonpayable",
      "type": "function"
    },
    {
      "inputs": [],
      "name": "getAllOrganizations",
      "outputs": [
        {
          "components": [
            {
              "internalType": "address",
              "name": "admin",
              "type": "address"
            },
            {
              "internalType": "string",
              "name": "name",
              "type": "string"
            }
          ],
          "internalType": "struct LoyaltyCoupon.Organization[]",
          "name": "",
          "type": "tuple[]"
        }
      ],
      "stateMutability": "view",
      "type": "function"
    },
    {
      "inputs": [
        {
          "internalType": "address",
          "name": "user",
          "type": "address"
        }
      ],
      "name": "getUserCoupons",
      "outputs": [
        {
          "internalType": "uint256[]",
          "name": "",
          "type": "uint256[]"
        }
      ],
      "stateMutability": "view",
      "type": "function"
    },
    {
      "inputs": [
        {
          "internalType": "uint256",
          "name": "",
          "type": "uint256"
        }
      ],
      "name": "organizationList",
      "outputs": [
        {
          "internalType": "address",
          "name": "",
          "type": "address"
        }
      ],
      "stateMutability": "view",
      "type": "function"
    },
    {
      "inputs": [
        {
          "internalType": "address",
          "name": "",
          "type": "address"
        }
      ],
      "name": "organizations",
      "outputs": [
        {
          "internalType": "address",
          "name": "admin",
          "type": "address"
        },
        {
          "internalType": "string",
          "name": "name",
          "type": "string"
        }
      ],
      "stateMutability": "view",
      "type": "function"
    },
    {
      "inputs": [
        {
          "internalType": "uint256",
          "name": "couponId",
          "type": "uint256"
        }
      ],
      "name": "redeemCoupon",
      "outputs": [],
      "stateMutability": "nonpayable",
      "type": "function"
    },
    {
      "inputs": [
        {
          "internalType": "address",
          "name": "",
          "type": "address"
        },
        {
          "internalType": "uint256",
          "name": "",
          "type": "uint256"
        }
      ],
      "name": "userCoupons",
      "outputs": [
        {
          "internalType": "uint256",
          "name": "",
          "type": "uint256"
        }
      ],
      "stateMutability": "view",
      "type": "function"
    }
  ],
  "bytecode": "0x608060405234801561001057600080fd5b50611bc0806100206000396000f3fe608060405234801561001057600080fd5b50600436106100a95760003560e01c80636427acca116100715780636427acca1461017d5780638df61fcb14610199578063c10a9839146101c9578063dbb026b9146101e7578063e22a052c14610203578063e9eda19c1461021f576100a9565b8063086ed938146100ae5780632e498df5146100cc57806330828e92146100fc5780634ffab34b146101305780635a1f74061461014c575b600080fd5b6100b661024f565b6040516100c39190611271565b60405180910390f35b6100e660048036038101906100e191906112dd565b610467565b6040516100f39190611319565b60405180910390f35b610116600480360381019061011191906112dd565b6104a6565b60405161012795949392919061135e565b60405180910390f35b61014a600480360381019061014591906112dd565b610529565b005b610166600480360381019061016191906113dd565b6106ae565b604051610174929190611454565b60405180910390f35b610197600480360381019061019291906115b9565b61077a565b005b6101b360048036038101906101ae91906113dd565b6109d0565b6040516101c091906116c0565b60405180910390f35b6101d1610a67565b6040516101de91906116e2565b60405180910390f35b61020160048036038101906101fc91906112dd565b610a6d565b005b61021d600480360381019061021891906112dd565b610d25565b005b610239600480360381019061023491906116fd565b610f94565b60405161024691906116e2565b60405180910390f35b6060600060028054905067ffffffffffffffff8111156102725761027161148e565b5b6040519080825280602002602001820160405280156102ab57816020015b610298610fc5565b8152602001906001900390816102905790505b50905060005b60028054905081101561045f5760016000600283815481106102d6576102d561173d565b5b9060005260206000200160009054906101000a900473ffffffffffffffffffffffffffffffffffffffff1673ffffffffffffffffffffffffffffffffffffffff1673ffffffffffffffffffffffffffffffffffffffff1681526020019081526020016000206040518060400160405290816000820160009054906101000a900473ffffffffffffffffffffffffffffffffffffffff1673ffffffffffffffffffffffffffffffffffffffff1673ffffffffffffffffffffffffffffffffffffffff1681526020016001820180546103ac9061179b565b80601f01602080910402602001604051908101604052809291908181526020018280546103d89061179b565b80156104255780601f106103fa57610100808354040283529160200191610425565b820191906000526020600020905b81548152906001019060200180831161040857829003601f168201915b5050505050815250508282815181106104415761044061173d565b5b60200260200101819052508080610457906117fc565b9150506102b1565b508091505090565b6002818154811061047757600080fd5b906000526020600020016000915054906101000a900473ffffffffffffffffffffffffffffffffffffffff1681565b60006020528060005260406000206000915090508060000154908060010160009054906101000a900473ffffffffffffffffffffffffffffffffffffffff16908060020160009054906101000a900473ffffffffffffffffffffffffffffffffffffffff16908060030154908060040160009054906101000a900460ff16905085565b3373ffffffffffffffffffffffffffffffffffffffff1660008083815260200190815260200160002060020160009054906101000a900473ffffffffffffffffffffffffffffffffffffffff1673ffffffffffffffffffffffffffffffffffffffff16146105cc576040517f08c379a00000000000000000000000000000000000000000000000000000000081526004016105c3906118b7565b60405180910390fd5b60008082815260200190815260200160002060040160009054906101000a900460ff161561062f576040517f08c379a000000000000000000000000000000000000000000000000000000000815260040161062690611923565b60405180910390fd5b600160008083815260200190815260200160002060040160006101000a81548160ff0219169083151502179055503373ffffffffffffffffffffffffffffffffffffffff167fdf4a7b33d3d343cc5bcecd868b83bc988e0467e16b378db69931e06f3e41ce84826040516106a391906116e2565b60405180910390a250565b60016020528060005260406000206000915090508060000160009054906101000a900473ffffffffffffffffffffffffffffffffffffffff16908060010180546106f79061179b565b80601f01602080910402602001604051908101604052809291908181526020018280546107239061179b565b80156107705780601f1061074557610100808354040283529160200191610770565b820191906000526020600020905b81548152906001019060200180831161075357829003601f168201915b5050505050905082565b600073ffffffffffffffffffffffffffffffffffffffff16600160003373ffffffffffffffffffffffffffffffffffffffff1673ffffffffffffffffffffffffffffffffffffffff16815260200190815260200160002060000160009054906101000a900473ffffffffffffffffffffffffffffffffffffffff1673ffffffffffffffffffffffffffffffffffffffff161461084b576040517f08c379a0000000000000000000000000000000000000000000000000000000008152600401610842906119b5565b60405180910390fd5b60405180604001604052803373ffffffffffffffffffffffffffffffffffffffff16815260200182815250600160003373ffffffffffffffffffffffffffffffffffffffff1673ffffffffffffffffffffffffffffffffffffffff16815260200190815260200160002060008201518160000160006101000a81548173ffffffffffffffffffffffffffffffffffffffff021916908373ffffffffffffffffffffffffffffffffffffffff1602179055506020820151816001019080519060200190610918929190610ff5565b509050506002339080600181540180825580915050600190039060005260206000200160009091909190916101000a81548173ffffffffffffffffffffffffffffffffffffffff021916908373ffffffffffffffffffffffffffffffffffffffff1602179055503373ffffffffffffffffffffffffffffffffffffffff167f24263c0109cf7104ef63652d3f39851af27bcd2f3a7005e88b226b92e2f1e3d1826040516109c591906119d5565b60405180910390a250565b6060600460008373ffffffffffffffffffffffffffffffffffffffff1673ffffffffffffffffffffffffffffffffffffffff168152602001908152602001600020805480602002602001604051908101604052809291908181526020018280548015610a5b57602002820191906000526020600020905b815481526020019060010190808311610a47575b50505050509050919050565b60035481565b60008082815260200190815260200160002060010160009054906101000a900473ffffffffffffffffffffffffffffffffffffffff16600073ffffffffffffffffffffffffffffffffffffffff16600160008373ffffffffffffffffffffffffffffffffffffffff1673ffffffffffffffffffffffffffffffffffffffff16815260200190815260200160002060000160009054906101000a900473ffffffffffffffffffffffffffffffffffffffff1673ffffffffffffffffffffffffffffffffffffffff161415610b75576040517f08c379a0000000000000000000000000000000000000000000000000000000008152600401610b6c90611a43565b60405180910390fd5b600073ffffffffffffffffffffffffffffffffffffffff1660008084815260200190815260200160002060020160009054906101000a900473ffffffffffffffffffffffffffffffffffffffff1673ffffffffffffffffffffffffffffffffffffffff1614610c19576040517f08c379a0000000000000000000000000000000000000000000000000000000008152600401610c1090611aaf565b60405180910390fd5b3360008084815260200190815260200160002060020160006101000a81548173ffffffffffffffffffffffffffffffffffffffff021916908373ffffffffffffffffffffffffffffffffffffffff160217905550600460003373ffffffffffffffffffffffffffffffffffffffff1673ffffffffffffffffffffffffffffffffffffffff1681526020019081526020016000208290806001815401808255809150506001900390600052602060002001600090919091909150553373ffffffffffffffffffffffffffffffffffffffff167fdda5c47ba205e118b3dead0d928b466734dcc28d22eb3b82af78e3e77c8f119e83604051610d1991906116e2565b60405180910390a25050565b3373ffffffffffffffffffffffffffffffffffffffff16600160003373ffffffffffffffffffffffffffffffffffffffff1673ffffffffffffffffffffffffffffffffffffffff16815260200190815260200160002060000160009054906101000a900473ffffffffffffffffffffffffffffffffffffffff1673ffffffffffffffffffffffffffffffffffffffff1614610df5576040517f08c379a0000000000000000000000000000000000000000000000000000000008152600401610dec90611b41565b60405180910390fd5b60036000815480929190610e08906117fc565b91905055506040518060a0016040528060035481526020013373ffffffffffffffffffffffffffffffffffffffff168152602001600073ffffffffffffffffffffffffffffffffffffffff1681526020018281526020016000151581525060008060035481526020019081526020016000206000820151816000015560208201518160010160006101000a81548173ffffffffffffffffffffffffffffffffffffffff021916908373ffffffffffffffffffffffffffffffffffffffff16021790555060408201518160020160006101000a81548173ffffffffffffffffffffffffffffffffffffffff021916908373ffffffffffffffffffffffffffffffffffffffff1602179055506060820151816003015560808201518160040160006101000a81548160ff0219169083151502179055509050503373ffffffffffffffffffffffffffffffffffffffff167f64fa3a05e17dbe49da26c3e881e6ce12ee3717bfd8fc27a3d56b5e89280a887060035483604051610f89929190611b61565b60405180910390a250565b60046020528160005260406000208181548110610fb057600080fd5b90600052602060002001600091509150505481565b6040518060400160405280600073ffffffffffffffffffffffffffffffffffffffff168152602001606081525090565b8280546110019061179b565b90600052602060002090601f016020900481019282611023576000855561106a565b82601f1061103c57805160ff191683800117855561106a565b8280016001018555821561106a579182015b8281111561106957825182559160200191906001019061104e565b5b509050611077919061107b565b5090565b5b8082111561109457600081600090555060010161107c565b5090565b600081519050919050565b600082825260208201905092915050565b6000819050602082019050919050565b600073ffffffffffffffffffffffffffffffffffffffff82169050919050565b60006110ef826110c4565b9050919050565b6110ff816110e4565b82525050565b600081519050919050565b600082825260208201905092915050565b60005b8381101561113f578082015181840152602081019050611124565b8381111561114e576000848401525b50505050565b6000601f19601f8301169050919050565b600061117082611105565b61117a8185611110565b935061118a818560208601611121565b61119381611154565b840191505092915050565b60006040830160008301516111b660008601826110f6565b50602083015184820360208601526111ce8282611165565b9150508091505092915050565b60006111e7838361119e565b905092915050565b6000602082019050919050565b600061120782611098565b61121181856110a3565b935083602082028501611223856110b4565b8060005b8581101561125f578484038952815161124085826111db565b945061124b836111ef565b925060208a01995050600181019050611227565b50829750879550505050505092915050565b6000602082019050818103600083015261128b81846111fc565b905092915050565b6000604051905090565b600080fd5b600080fd5b6000819050919050565b6112ba816112a7565b81146112c557600080fd5b50565b6000813590506112d7816112b1565b92915050565b6000602082840312156112f3576112f261129d565b5b6000611301848285016112c8565b91505092915050565b611313816110e4565b82525050565b600060208201905061132e600083018461130a565b92915050565b61133d816112a7565b82525050565b60008115159050919050565b61135881611343565b82525050565b600060a0820190506113736000830188611334565b611380602083018761130a565b61138d604083018661130a565b61139a6060830185611334565b6113a7608083018461134f565b9695505050505050565b6113ba816110e4565b81146113c557600080fd5b50565b6000813590506113d7816113b1565b92915050565b6000602082840312156113f3576113f261129d565b5b6000611401848285016113c8565b91505092915050565b600082825260208201905092915050565b600061142682611105565b611430818561140a565b9350611440818560208601611121565b61144981611154565b840191505092915050565b6000604082019050611469600083018561130a565b818103602083015261147b818461141b565b90509392505050565b600080fd5b600080fd5b7f4e487b7100000000000000000000000000000000000000000000000000000000600052604160045260246000fd5b6114c682611154565b810181811067ffffffffffffffff821117156114e5576114e461148e565b5b80604052505050565b60006114f8611293565b905061150482826114bd565b919050565b600067ffffffffffffffff8211156115245761152361148e565b5b61152d82611154565b9050602081019050919050565b82818337600083830152505050565b600061155c61155784611509565b6114ee565b90508281526020810184848401111561157857611577611489565b5b61158384828561153a565b509392505050565b600082601f8301126115a05761159f611484565b5b81356115b0848260208601611549565b91505092915050565b6000602082840312156115cf576115ce61129d565b5b600082013567ffffffffffffffff8111156115ed576115ec6112a2565b5b6115f98482850161158b565b91505092915050565b600081519050919050565b600082825260208201905092915050565b6000819050602082019050919050565b611637816112a7565b82525050565b6000611649838361162e565b60208301905092915050565b6000602082019050919050565b600061166d82611602565b611677818561160d565b93506116828361161e565b8060005b838110156116b357815161169a888261163d565b97506116a583611655565b925050600181019050611686565b5085935050505092915050565b600060208201905081810360008301526116da8184611662565b905092915050565b60006020820190506116f76000830184611334565b92915050565b600080604083850312156117145761171361129d565b5b6000611722858286016113c8565b9250506020611733858286016112c8565b9150509250929050565b7f4e487b7100000000000000000000000000000000000000000000000000000000600052603260045260246000fd5b7f4e487b7100000000000000000000000000000000000000000000000000000000600052602260045260246000fd5b600060028204905060018216806117b357607f821691505b602082108114156117c7576117c661176c565b5b50919050565b7f4e487b7100000000000000000000000000000000000000000000000000000000600052601160045260246000fd5b6000611807826112a7565b91507fffffffffffffffffffffffffffffffffffffffffffffffffffffffffffffffff82141561183a576118396117cd565b5b600182019050919050565b7f596f7520617265206e6f7420746865206f776e6572206f66207468697320636f60008201527f75706f6e00000000000000000000000000000000000000000000000000000000602082015250565b60006118a160248361140a565b91506118ac82611845565b604082019050919050565b600060208201905081810360008301526118d081611894565b9050919050565b7f436f75706f6e20616c72656164792072656465656d6564000000000000000000600082015250565b600061190d60178361140a565b9150611918826118d7565b602082019050919050565b6000602082019050818103600083015261193c81611900565b9050919050565b7f4f7267616e697a6174696f6e20616c72656164792065786973747320666f722060008201527f7468697320616464726573730000000000000000000000000000000000000000602082015250565b600061199f602c8361140a565b91506119aa82611943565b604082019050919050565b600060208201905081810360008301526119ce81611992565b9050919050565b600060208201905081810360008301526119ef818461141b565b905092915050565b7f4f7267616e697a6174696f6e20646f6573206e6f742065786973740000000000600082015250565b6000611a2d601b8361140a565b9150611a38826119f7565b602082019050919050565b60006020820190508181036000830152611a5c81611a20565b9050919050565b7f436f75706f6e20697320616c726561647920636c61696d656400000000000000600082015250565b6000611a9960198361140a565b9150611aa482611a63565b602082019050919050565b60006020820190508181036000830152611ac881611a8c565b9050919050565b7f4f6e6c7920746865206f7267616e697a6174696f6e2061646d696e2063616e2060008201527f63726561746520636f75706f6e73000000000000000000000000000000000000602082015250565b6000611b2b602e8361140a565b9150611b3682611acf565b604082019050919050565b60006020820190508181036000830152611b5a81611b1e565b9050919050565b6000604082019050611b766000830185611334565b611b836020830184611334565b939250505056fea264697066735822122066e5bae554abc5f955f3a0523b4036322d5a99fe650f5bedd0145274d0ea7e9064736f6c63430008090033",
  "linkReferences": {},
  "deployedLinkReferences": {}
}