{
	"contracts/LoyaltyCoupon.sol": {
		"LoyaltyCoupon": {
			"abi": [
				{
					"anonymous": false,
					"inputs": [
						{
							"indexed": false,
							"internalType": "uint256",
							"name": "couponId",
							"type": "uint256"
						},
						{
							"indexed": true,
							"internalType": "address",
							"name": "user",
							"type": "address"
						}
					],
					"name": "CouponClaimed",
					"type": "event"
				},
				{
					"anonymous": false,
					"inputs": [
						{
							"indexed": false,
							"internalType": "uint256",
							"name": "couponId",
							"type": "uint256"
						},
						{
							"indexed": true,
							"internalType": "address",
							"name": "admin",
							"type": "address"
						},
						{
							"indexed": false,
							"internalType": "uint256",
							"name": "discountAmount",
							"type": "uint256"
						}
					],
					"name": "CouponCreated",
					"type": "event"
				},
				{
					"anonymous": false,
					"inputs": [
						{
							"indexed": false,
							"internalType": "uint256",
							"name": "couponId",
							"type": "uint256"
						},
						{
							"indexed": true,
							"internalType": "address",
							"name": "user",
							"type": "address"
						}
					],
					"name": "CouponRedeemed",
					"type": "event"
				},
				{
					"anonymous": false,
					"inputs": [
						{
							"indexed": true,
							"internalType": "address",
							"name": "admin",
							"type": "address"
						},
						{
							"indexed": false,
							"internalType": "string",
							"name": "name",
							"type": "string"
						}
					],
					"name": "OrganizationCreated",
					"type": "event"
				},
				{
					"inputs": [
						{
							"internalType": "uint256",
							"name": "couponId",
							"type": "uint256"
						}
					],
					"name": "claimCoupon",
					"outputs": [],
					"stateMutability": "nonpayable",
					"type": "function"
				},
				{
					"inputs": [],
					"name": "couponCounter",
					"outputs": [
						{
							"internalType": "uint256",
							"name": "",
							"type": "uint256"
						}
					],
					"stateMutability": "view",
					"type": "function"
				},
				{
					"inputs": [
						{
							"internalType": "uint256",
							"name": "",
							"type": "uint256"
						}
					],
					"name": "coupons",
					"outputs": [
						{
							"internalType": "uint256",
							"name": "id",
							"type": "uint256"
						},
						{
							"internalType": "address",
							"name": "admin",
							"type": "address"
						},
						{
							"internalType": "address",
							"name": "user",
							"type": "address"
						},
						{
							"internalType": "uint256",
							"name": "discountAmount",
							"type": "uint256"
						},
						{
							"internalType": "bool",
							"name": "isRedeemed",
							"type": "bool"
						}
					],
					"stateMutability": "view",
					"type": "function"
				},
				{
					"inputs": [
						{
							"internalType": "uint256",
							"name": "discountAmount",
							"type": "uint256"
						}
					],
					"name": "createCoupon",
					"outputs": [],
					"stateMutability": "nonpayable",
					"type": "function"
				},
				{
					"inputs": [
						{
							"internalType": "string",
							"name": "name",
							"type": "string"
						}
					],
					"name": "createOrganization",
					"outputs": [],
					"stateMutability": "nonpayable",
					"type": "function"
				},
				{
					"inputs": [],
					"name": "getAllOrganizations",
					"outputs": [
						{
							"components": [
								{
									"internalType": "address",
									"name": "admin",
									"type": "address"
								},
								{
									"internalType": "string",
									"name": "name",
									"type": "string"
								}
							],
							"internalType": "struct LoyaltyCoupon.Organization[]",
							"name": "",
							"type": "tuple[]"
						}
					],
					"stateMutability": "view",
					"type": "function"
				},
				{
					"inputs": [
						{
							"internalType": "address",
							"name": "user",
							"type": "address"
						}
					],
					"name": "getUserCoupons",
					"outputs": [
						{
							"internalType": "uint256[]",
							"name": "",
							"type": "uint256[]"
						}
					],
					"stateMutability": "view",
					"type": "function"
				},
				{
					"inputs": [
						{
							"internalType": "uint256",
							"name": "",
							"type": "uint256"
						}
					],
					"name": "organizationList",
					"outputs": [
						{
							"internalType": "address",
							"name": "",
							"type": "address"
						}
					],
					"stateMutability": "view",
					"type": "function"
				},
				{
					"inputs": [
						{
							"internalType": "address",
							"name": "",
							"type": "address"
						}
					],
					"name": "organizations",
					"outputs": [
						{
							"internalType": "address",
							"name": "admin",
							"type": "address"
						},
						{
							"internalType": "string",
							"name": "name",
							"type": "string"
						}
					],
					"stateMutability": "view",
					"type": "function"
				},
				{
					"inputs": [
						{
							"internalType": "uint256",
							"name": "couponId",
							"type": "uint256"
						}
					],
					"name": "redeemCoupon",
					"outputs": [],
					"stateMutability": "nonpayable",
					"type": "function"
				},
				{
					"inputs": [
						{
							"internalType": "address",
							"name": "",
							"type": "address"
						},
						{
							"internalType": "uint256",
							"name": "",
							"type": "uint256"
						}
					],
					"name": "userCoupons",
					"outputs": [
						{
							"internalType": "uint256",
							"name": "",
							"type": "uint256"
						}
					],
					"stateMutability": "view",
					"type": "function"
				}
			],
			"devdoc": {
				"kind": "dev",
				"methods": {},
				"version": 1
			},
			"evm": {
				"assembly": "    /* \"contracts/LoyaltyCoupon.sol\":57:3410  contract LoyaltyCoupon {... */\n  mstore(0x40, 0x80)\n  callvalue\n  dup1\n  iszero\n  tag_1\n  jumpi\n  0x00\n  dup1\n  revert\ntag_1:\n  pop\n  dataSize(sub_0)\n  dup1\n  dataOffset(sub_0)\n  0x00\n  codecopy\n  0x00\n  return\nstop\n\nsub_0: assembly {\n        /* \"contracts/LoyaltyCoupon.sol\":57:3410  contract LoyaltyCoupon {... */\n      mstore(0x40, 0x80)\n      callvalue\n      dup1\n      iszero\n      tag_1\n      jumpi\n      0x00\n      dup1\n      revert\n    tag_1:\n      pop\n      jumpi(tag_2, lt(calldatasize, 0x04))\n      shr(0xe0, calldataload(0x00))\n      dup1\n      0x6427acca\n      gt\n      tag_14\n      jumpi\n      dup1\n      0x6427acca\n      eq\n      tag_8\n      jumpi\n      dup1\n      0x8df61fcb\n      eq\n      tag_9\n      jumpi\n      dup1\n      0xc10a9839\n      eq\n      tag_10\n      jumpi\n      dup1\n      0xdbb026b9\n      eq\n      tag_11\n      jumpi\n      dup1\n      0xe22a052c\n      eq\n      tag_12\n      jumpi\n      dup1\n      0xe9eda19c\n      eq\n      tag_13\n      jumpi\n      jump(tag_2)\n    tag_14:\n      dup1\n      0x086ed938\n      eq\n      tag_3\n      jumpi\n      dup1\n      0x2e498df5\n      eq\n      tag_4\n      jumpi\n      dup1\n      0x30828e92\n      eq\n      tag_5\n      jumpi\n      dup1\n      0x4ffab34b\n      eq\n      tag_6\n      jumpi\n      dup1\n      0x5a1f7406\n      eq\n      tag_7\n      jumpi\n    tag_2:\n      0x00\n      dup1\n      revert\n        /* \"contracts/LoyaltyCoupon.sol\":3089:3408  function getAllOrganizations() external view returns (Organization[] memory) {... */\n    tag_3:\n      tag_15\n      tag_16\n      jump\t// in\n    tag_15:\n      mload(0x40)\n      tag_17\n      swap2\n      swap1\n      tag_18\n      jump\t// in\n    tag_17:\n      mload(0x40)\n      dup1\n      swap2\n      sub\n      swap1\n      return\n        /* \"contracts/LoyaltyCoupon.sol\":419:452  address[] public organizationList */\n    tag_4:\n      tag_19\n      0x04\n      dup1\n      calldatasize\n      sub\n      dup2\n      add\n      swap1\n      tag_20\n      swap2\n      swap1\n      tag_21\n      jump\t// in\n    tag_20:\n      tag_22\n      jump\t// in\n    tag_19:\n      mload(0x40)\n      tag_23\n      swap2\n      swap1\n      tag_24\n      jump\t// in\n    tag_23:\n      mload(0x40)\n      dup1\n      swap2\n      sub\n      swap1\n      return\n        /* \"contracts/LoyaltyCoupon.sol\":313:354  mapping(uint256 => Coupon) public coupons */\n    tag_5:\n      tag_25\n      0x04\n      dup1\n      calldatasize\n      sub\n      dup2\n      add\n      swap1\n      tag_26\n      swap2\n      swap1\n      tag_21\n      jump\t// in\n    tag_26:\n      tag_27\n      jump\t// in\n    tag_25:\n      mload(0x40)\n      tag_28\n      swap6\n      swap5\n      swap4\n      swap3\n      swap2\n      swap1\n      tag_29\n      jump\t// in\n    tag_28:\n      mload(0x40)\n      dup1\n      swap2\n      sub\n      swap1\n      return\n        /* \"contracts/LoyaltyCoupon.sol\":2553:2876  function redeemCoupon(uint256 couponId) external {... */\n    tag_6:\n      tag_30\n      0x04\n      dup1\n      calldatasize\n      sub\n      dup2\n      add\n      swap1\n      tag_31\n      swap2\n      swap1\n      tag_21\n      jump\t// in\n    tag_31:\n      tag_32\n      jump\t// in\n    tag_30:\n      stop\n        /* \"contracts/LoyaltyCoupon.sol\":360:413  mapping(address => Organization) public organizations */\n    tag_7:\n      tag_33\n      0x04\n      dup1\n      calldatasize\n      sub\n      dup2\n      add\n      swap1\n      tag_34\n      swap2\n      swap1\n      tag_35\n      jump\t// in\n    tag_34:\n      tag_36\n      jump\t// in\n    tag_33:\n      mload(0x40)\n      tag_37\n      swap3\n      swap2\n      swap1\n      tag_38\n      jump\t// in\n    tag_37:\n      mload(0x40)\n      dup1\n      swap2\n      sub\n      swap1\n      return\n        /* \"contracts/LoyaltyCoupon.sol\":1198:1628  function createOrganization(string memory name) external {... */\n    tag_8:\n      tag_39\n      0x04\n      dup1\n      calldatasize\n      sub\n      dup2\n      add\n      swap1\n      tag_40\n      swap2\n      swap1\n      tag_41\n      jump\t// in\n    tag_40:\n      tag_42\n      jump\t// in\n    tag_39:\n      stop\n        /* \"contracts/LoyaltyCoupon.sol\":2921:3041  function getUserCoupons(address user) external view returns (uint256[] memory) {... */\n    tag_9:\n      tag_43\n      0x04\n      dup1\n      calldatasize\n      sub\n      dup2\n      add\n      swap1\n      tag_44\n      swap2\n      swap1\n      tag_35\n      jump\t// in\n    tag_44:\n      tag_45\n      jump\t// in\n    tag_43:\n      mload(0x40)\n      tag_46\n      swap2\n      swap1\n      tag_47\n      jump\t// in\n    tag_46:\n      mload(0x40)\n      dup1\n      swap2\n      sub\n      swap1\n      return\n        /* \"contracts/LoyaltyCoupon.sol\":459:487  uint256 public couponCounter */\n    tag_10:\n      tag_48\n      tag_49\n      jump\t// in\n    tag_48:\n      mload(0x40)\n      tag_50\n      swap2\n      swap1\n      tag_51\n      jump\t// in\n    tag_50:\n      mload(0x40)\n      dup1\n      swap2\n      sub\n      swap1\n      return\n        /* \"contracts/LoyaltyCoupon.sol\":2192:2518  function claimCoupon(uint256 couponId) external orgExists(coupons[couponId].admin) {... */\n    tag_11:\n      tag_52\n      0x04\n      dup1\n      calldatasize\n      sub\n      dup2\n      add\n      swap1\n      tag_53\n      swap2\n      swap1\n      tag_21\n      jump\t// in\n    tag_53:\n      tag_54\n      jump\t// in\n    tag_52:\n      stop\n        /* \"contracts/LoyaltyCoupon.sol\":1664:2158  function createCoupon(uint256 discountAmount) external {... */\n    tag_12:\n      tag_55\n      0x04\n      dup1\n      calldatasize\n      sub\n      dup2\n      add\n      swap1\n      tag_56\n      swap2\n      swap1\n      tag_21\n      jump\t// in\n    tag_56:\n      tag_57\n      jump\t// in\n    tag_55:\n      stop\n        /* \"contracts/LoyaltyCoupon.sol\":493:541  mapping(address => uint256[]) public userCoupons */\n    tag_13:\n      tag_58\n      0x04\n      dup1\n      calldatasize\n      sub\n      dup2\n      add\n      swap1\n      tag_59\n      swap2\n      swap1\n      tag_60\n      jump\t// in\n    tag_59:\n      tag_61\n      jump\t// in\n    tag_58:\n      mload(0x40)\n      tag_62\n      swap2\n      swap1\n      tag_51\n      jump\t// in\n    tag_62:\n      mload(0x40)\n      dup1\n      swap2\n      sub\n      swap1\n      return\n        /* \"contracts/LoyaltyCoupon.sol\":3089:3408  function getAllOrganizations() external view returns (Organization[] memory) {... */\n    tag_16:\n        /* \"contracts/LoyaltyCoupon.sol\":3143:3164  Organization[] memory */\n      0x60\n        /* \"contracts/LoyaltyCoupon.sol\":3176:3202  Organization[] memory orgs */\n      0x00\n        /* \"contracts/LoyaltyCoupon.sol\":3224:3240  organizationList */\n      0x02\n        /* \"contracts/LoyaltyCoupon.sol\":3224:3247  organizationList.length */\n      dup1\n      sload\n      swap1\n      pop\n        /* \"contracts/LoyaltyCoupon.sol\":3205:3248  new Organization[](organizationList.length) */\n      0xffffffffffffffff\n      dup2\n      gt\n      iszero\n      tag_64\n      jumpi\n      tag_65\n      tag_66\n      jump\t// in\n    tag_65:\n    tag_64:\n      mload(0x40)\n      swap1\n      dup1\n      dup3\n      mstore\n      dup1\n      0x20\n      mul\n      0x20\n      add\n      dup3\n      add\n      0x40\n      mstore\n      dup1\n      iszero\n      tag_67\n      jumpi\n      dup2\n      0x20\n      add\n    tag_68:\n      tag_69\n      tag_70\n      jump\t// in\n    tag_69:\n      dup2\n      mstore\n      0x20\n      add\n      swap1\n      0x01\n      swap1\n      sub\n      swap1\n      dup2\n      tag_68\n      jumpi\n      swap1\n      pop\n    tag_67:\n      pop\n        /* \"contracts/LoyaltyCoupon.sol\":3176:3248  Organization[] memory orgs = new Organization[](organizationList.length) */\n      swap1\n      pop\n        /* \"contracts/LoyaltyCoupon.sol\":3263:3272  uint256 i */\n      0x00\n        /* \"contracts/LoyaltyCoupon.sol\":3258:3381  for (uint256 i = 0; i < organizationList.length; i++) {... */\n    tag_71:\n        /* \"contracts/LoyaltyCoupon.sol\":3282:3298  organizationList */\n      0x02\n        /* \"contracts/LoyaltyCoupon.sol\":3282:3305  organizationList.length */\n      dup1\n      sload\n      swap1\n      pop\n        /* \"contracts/LoyaltyCoupon.sol\":3278:3279  i */\n      dup2\n        /* \"contracts/LoyaltyCoupon.sol\":3278:3305  i < organizationList.length */\n      lt\n        /* \"contracts/LoyaltyCoupon.sol\":3258:3381  for (uint256 i = 0; i < organizationList.length; i++) {... */\n      iszero\n      tag_72\n      jumpi\n        /* \"contracts/LoyaltyCoupon.sol\":3336:3349  organizations */\n      0x01\n        /* \"contracts/LoyaltyCoupon.sol\":3336:3370  organizations[organizationList[i]] */\n      0x00\n        /* \"contracts/LoyaltyCoupon.sol\":3350:3366  organizationList */\n      0x02\n        /* \"contracts/LoyaltyCoupon.sol\":3367:3368  i */\n      dup4\n        /* \"contracts/LoyaltyCoupon.sol\":3350:3369  organizationList[i] */\n      dup2\n      sload\n      dup2\n      lt\n      tag_74\n      jumpi\n      tag_75\n      tag_76\n      jump\t// in\n    tag_75:\n    tag_74:\n      swap1\n      0x00\n      mstore\n      keccak256(0x00, 0x20)\n      add\n      0x00\n      swap1\n      sload\n      swap1\n      0x0100\n      exp\n      swap1\n      div\n      0xffffffffffffffffffffffffffffffffffffffff\n      and\n        /* \"contracts/LoyaltyCoupon.sol\":3336:3370  organizations[organizationList[i]] */\n      0xffffffffffffffffffffffffffffffffffffffff\n      and\n      0xffffffffffffffffffffffffffffffffffffffff\n      and\n      dup2\n      mstore\n      0x20\n      add\n      swap1\n      dup2\n      mstore\n      0x20\n      add\n      0x00\n      keccak256\n        /* \"contracts/LoyaltyCoupon.sol\":3326:3370  orgs[i] = organizations[organizationList[i]] */\n      mload(0x40)\n      dup1\n      0x40\n      add\n      0x40\n      mstore\n      swap1\n      dup2\n      0x00\n      dup3\n      add\n      0x00\n      swap1\n      sload\n      swap1\n      0x0100\n      exp\n      swap1\n      div\n      0xffffffffffffffffffffffffffffffffffffffff\n      and\n      0xffffffffffffffffffffffffffffffffffffffff\n      and\n      0xffffffffffffffffffffffffffffffffffffffff\n      and\n      dup2\n      mstore\n      0x20\n      add\n      0x01\n      dup3\n      add\n      dup1\n      sload\n      tag_78\n      swap1\n      tag_79\n      jump\t// in\n    tag_78:\n      dup1\n      0x1f\n      add\n      0x20\n      dup1\n      swap2\n      div\n      mul\n      0x20\n      add\n      mload(0x40)\n      swap1\n      dup2\n      add\n      0x40\n      mstore\n      dup1\n      swap3\n      swap2\n      swap1\n      dup2\n      dup2\n      mstore\n      0x20\n      add\n      dup3\n      dup1\n      sload\n      tag_80\n      swap1\n      tag_79\n      jump\t// in\n    tag_80:\n      dup1\n      iszero\n      tag_81\n      jumpi\n      dup1\n      0x1f\n      lt\n      tag_82\n      jumpi\n      0x0100\n      dup1\n      dup4\n      sload\n      div\n      mul\n      dup4\n      mstore\n      swap2\n      0x20\n      add\n      swap2\n      jump(tag_81)\n    tag_82:\n      dup3\n      add\n      swap2\n      swap1\n      0x00\n      mstore\n      keccak256(0x00, 0x20)\n      swap1\n    tag_83:\n      dup2\n      sload\n      dup2\n      mstore\n      swap1\n      0x01\n      add\n      swap1\n      0x20\n      add\n      dup1\n      dup4\n      gt\n      tag_83\n      jumpi\n      dup3\n      swap1\n      sub\n      0x1f\n      and\n      dup3\n      add\n      swap2\n    tag_81:\n      pop\n      pop\n      pop\n      pop\n      pop\n      dup2\n      mstore\n      pop\n      pop\n        /* \"contracts/LoyaltyCoupon.sol\":3326:3330  orgs */\n      dup3\n        /* \"contracts/LoyaltyCoupon.sol\":3331:3332  i */\n      dup3\n        /* \"contracts/LoyaltyCoupon.sol\":3326:3333  orgs[i] */\n      dup2\n      mload\n      dup2\n      lt\n      tag_84\n      jumpi\n      tag_85\n      tag_76\n      jump\t// in\n    tag_85:\n    tag_84:\n      0x20\n      mul\n      0x20\n      add\n      add\n        /* \"contracts/LoyaltyCoupon.sol\":3326:3370  orgs[i] = organizations[organizationList[i]] */\n      dup2\n      swap1\n      mstore\n      pop\n        /* \"contracts/LoyaltyCoupon.sol\":3307:3310  i++ */\n      dup1\n      dup1\n      tag_86\n      swap1\n      tag_87\n      jump\t// in\n    tag_86:\n      swap2\n      pop\n      pop\n        /* \"contracts/LoyaltyCoupon.sol\":3258:3381  for (uint256 i = 0; i < organizationList.length; i++) {... */\n      jump(tag_71)\n    tag_72:\n      pop\n        /* \"contracts/LoyaltyCoupon.sol\":3397:3401  orgs */\n      dup1\n        /* \"contracts/LoyaltyCoupon.sol\":3390:3401  return orgs */\n      swap2\n      pop\n      pop\n        /* \"contracts/LoyaltyCoupon.sol\":3089:3408  function getAllOrganizations() external view returns (Organization[] memory) {... */\n      swap1\n      jump\t// out\n        /* \"contracts/LoyaltyCoupon.sol\":419:452  address[] public organizationList */\n    tag_22:\n      0x02\n      dup2\n      dup2\n      sload\n      dup2\n      lt\n      tag_88\n      jumpi\n      0x00\n      dup1\n      revert\n    tag_88:\n      swap1\n      0x00\n      mstore\n      keccak256(0x00, 0x20)\n      add\n      0x00\n      swap2\n      pop\n      sload\n      swap1\n      0x0100\n      exp\n      swap1\n      div\n      0xffffffffffffffffffffffffffffffffffffffff\n      and\n      dup2\n      jump\t// out\n        /* \"contracts/LoyaltyCoupon.sol\":313:354  mapping(uint256 => Coupon) public coupons */\n    tag_27:\n      mstore(0x20, 0x00)\n      dup1\n      0x00\n      mstore\n      keccak256(0x00, 0x40)\n      0x00\n      swap2\n      pop\n      swap1\n      pop\n      dup1\n      0x00\n      add\n      sload\n      swap1\n      dup1\n      0x01\n      add\n      0x00\n      swap1\n      sload\n      swap1\n      0x0100\n      exp\n      swap1\n      div\n      0xffffffffffffffffffffffffffffffffffffffff\n      and\n      swap1\n      dup1\n      0x02\n      add\n      0x00\n      swap1\n      sload\n      swap1\n      0x0100\n      exp\n      swap1\n      div\n      0xffffffffffffffffffffffffffffffffffffffff\n      and\n      swap1\n      dup1\n      0x03\n      add\n      sload\n      swap1\n      dup1\n      0x04\n      add\n      0x00\n      swap1\n      sload\n      swap1\n      0x0100\n      exp\n      swap1\n      div\n      0xff\n      and\n      swap1\n      pop\n      dup6\n      jump\t// out\n        /* \"contracts/LoyaltyCoupon.sol\":2553:2876  function redeemCoupon(uint256 couponId) external {... */\n    tag_32:\n        /* \"contracts/LoyaltyCoupon.sol\":2646:2656  msg.sender */\n      caller\n        /* \"contracts/LoyaltyCoupon.sol\":2620:2656  coupons[couponId].user == msg.sender */\n      0xffffffffffffffffffffffffffffffffffffffff\n      and\n        /* \"contracts/LoyaltyCoupon.sol\":2620:2627  coupons */\n      0x00\n        /* \"contracts/LoyaltyCoupon.sol\":2620:2637  coupons[couponId] */\n      dup1\n        /* \"contracts/LoyaltyCoupon.sol\":2628:2636  couponId */\n      dup4\n        /* \"contracts/LoyaltyCoupon.sol\":2620:2637  coupons[couponId] */\n      dup2\n      mstore\n      0x20\n      add\n      swap1\n      dup2\n      mstore\n      0x20\n      add\n      0x00\n      keccak256\n        /* \"contracts/LoyaltyCoupon.sol\":2620:2642  coupons[couponId].user */\n      0x02\n      add\n      0x00\n      swap1\n      sload\n      swap1\n      0x0100\n      exp\n      swap1\n      div\n      0xffffffffffffffffffffffffffffffffffffffff\n      and\n        /* \"contracts/LoyaltyCoupon.sol\":2620:2656  coupons[couponId].user == msg.sender */\n      0xffffffffffffffffffffffffffffffffffffffff\n      and\n      eq\n        /* \"contracts/LoyaltyCoupon.sol\":2612:2697  require(coupons[couponId].user == msg.sender, \"You are not the owner of this coupon\") */\n      tag_91\n      jumpi\n      mload(0x40)\n      0x08c379a000000000000000000000000000000000000000000000000000000000\n      dup2\n      mstore\n      0x04\n      add\n      tag_92\n      swap1\n      tag_93\n      jump\t// in\n    tag_92:\n      mload(0x40)\n      dup1\n      swap2\n      sub\n      swap1\n      revert\n    tag_91:\n        /* \"contracts/LoyaltyCoupon.sol\":2716:2723  coupons */\n      0x00\n        /* \"contracts/LoyaltyCoupon.sol\":2716:2733  coupons[couponId] */\n      dup1\n        /* \"contracts/LoyaltyCoupon.sol\":2724:2732  couponId */\n      dup3\n        /* \"contracts/LoyaltyCoupon.sol\":2716:2733  coupons[couponId] */\n      dup2\n      mstore\n      0x20\n      add\n      swap1\n      dup2\n      mstore\n      0x20\n      add\n      0x00\n      keccak256\n        /* \"contracts/LoyaltyCoupon.sol\":2716:2744  coupons[couponId].isRedeemed */\n      0x04\n      add\n      0x00\n      swap1\n      sload\n      swap1\n      0x0100\n      exp\n      swap1\n      div\n      0xff\n      and\n        /* \"contracts/LoyaltyCoupon.sol\":2715:2744  !coupons[couponId].isRedeemed */\n      iszero\n        /* \"contracts/LoyaltyCoupon.sol\":2707:2772  require(!coupons[couponId].isRedeemed, \"Coupon already redeemed\") */\n      tag_94\n      jumpi\n      mload(0x40)\n      0x08c379a000000000000000000000000000000000000000000000000000000000\n      dup2\n      mstore\n      0x04\n      add\n      tag_95\n      swap1\n      tag_96\n      jump\t// in\n    tag_95:\n      mload(0x40)\n      dup1\n      swap2\n      sub\n      swap1\n      revert\n    tag_94:\n        /* \"contracts/LoyaltyCoupon.sol\":2814:2818  true */\n      0x01\n        /* \"contracts/LoyaltyCoupon.sol\":2783:2790  coupons */\n      0x00\n        /* \"contracts/LoyaltyCoupon.sol\":2783:2800  coupons[couponId] */\n      dup1\n        /* \"contracts/LoyaltyCoupon.sol\":2791:2799  couponId */\n      dup4\n        /* \"contracts/LoyaltyCoupon.sol\":2783:2800  coupons[couponId] */\n      dup2\n      mstore\n      0x20\n      add\n      swap1\n      dup2\n      mstore\n      0x20\n      add\n      0x00\n      keccak256\n        /* \"contracts/LoyaltyCoupon.sol\":2783:2811  coupons[couponId].isRedeemed */\n      0x04\n      add\n      0x00\n        /* \"contracts/LoyaltyCoupon.sol\":2783:2818  coupons[couponId].isRedeemed = true */\n      0x0100\n      exp\n      dup2\n      sload\n      dup2\n      0xff\n      mul\n      not\n      and\n      swap1\n      dup4\n      iszero\n      iszero\n      mul\n      or\n      swap1\n      sstore\n      pop\n        /* \"contracts/LoyaltyCoupon.sol\":2858:2868  msg.sender */\n      caller\n        /* \"contracts/LoyaltyCoupon.sol\":2833:2869  CouponRedeemed(couponId, msg.sender) */\n      0xffffffffffffffffffffffffffffffffffffffff\n      and\n      0xdf4a7b33d3d343cc5bcecd868b83bc988e0467e16b378db69931e06f3e41ce84\n        /* \"contracts/LoyaltyCoupon.sol\":2848:2856  couponId */\n      dup3\n        /* \"contracts/LoyaltyCoupon.sol\":2833:2869  CouponRedeemed(couponId, msg.sender) */\n      mload(0x40)\n      tag_97\n      swap2\n      swap1\n      tag_51\n      jump\t// in\n    tag_97:\n      mload(0x40)\n      dup1\n      swap2\n      sub\n      swap1\n      log2\n        /* \"contracts/LoyaltyCoupon.sol\":2553:2876  function redeemCoupon(uint256 couponId) external {... */\n      pop\n      jump\t// out\n        /* \"contracts/LoyaltyCoupon.sol\":360:413  mapping(address => Organization) public organizations */\n    tag_36:\n      mstore(0x20, 0x01)\n      dup1\n      0x00\n      mstore\n      keccak256(0x00, 0x40)\n      0x00\n      swap2\n      pop\n      swap1\n      pop\n      dup1\n      0x00\n      add\n      0x00\n      swap1\n      sload\n      swap1\n      0x0100\n      exp\n      swap1\n      div\n      0xffffffffffffffffffffffffffffffffffffffff\n      and\n      swap1\n      dup1\n      0x01\n      add\n      dup1\n      sload\n      tag_98\n      swap1\n      tag_79\n      jump\t// in\n    tag_98:\n      dup1\n      0x1f\n      add\n      0x20\n      dup1\n      swap2\n      div\n      mul\n      0x20\n      add\n      mload(0x40)\n      swap1\n      dup2\n      add\n      0x40\n      mstore\n      dup1\n      swap3\n      swap2\n      swap1\n      dup2\n      dup2\n      mstore\n      0x20\n      add\n      dup3\n      dup1\n      sload\n      tag_99\n      swap1\n      tag_79\n      jump\t// in\n    tag_99:\n      dup1\n      iszero\n      tag_100\n      jumpi\n      dup1\n      0x1f\n      lt\n      tag_101\n      jumpi\n      0x0100\n      dup1\n      dup4\n      sload\n      div\n      mul\n      dup4\n      mstore\n      swap2\n      0x20\n      add\n      swap2\n      jump(tag_100)\n    tag_101:\n      dup3\n      add\n      swap2\n      swap1\n      0x00\n      mstore\n      keccak256(0x00, 0x20)\n      swap1\n    tag_102:\n      dup2\n      sload\n      dup2\n      mstore\n      swap1\n      0x01\n      add\n      swap1\n      0x20\n      add\n      dup1\n      dup4\n      gt\n      tag_102\n      jumpi\n      dup3\n      swap1\n      sub\n      0x1f\n      and\n      dup3\n      add\n      swap2\n    tag_100:\n      pop\n      pop\n      pop\n      pop\n      pop\n      swap1\n      pop\n      dup3\n      jump\t// out\n        /* \"contracts/LoyaltyCoupon.sol\":1198:1628  function createOrganization(string memory name) external {... */\n    tag_42:\n        /* \"contracts/LoyaltyCoupon.sol\":1316:1317  0 */\n      0x00\n        /* \"contracts/LoyaltyCoupon.sol\":1273:1318  organizations[msg.sender].admin == address(0) */\n      0xffffffffffffffffffffffffffffffffffffffff\n      and\n        /* \"contracts/LoyaltyCoupon.sol\":1273:1286  organizations */\n      0x01\n        /* \"contracts/LoyaltyCoupon.sol\":1273:1298  organizations[msg.sender] */\n      0x00\n        /* \"contracts/LoyaltyCoupon.sol\":1287:1297  msg.sender */\n      caller\n        /* \"contracts/LoyaltyCoupon.sol\":1273:1298  organizations[msg.sender] */\n      0xffffffffffffffffffffffffffffffffffffffff\n      and\n      0xffffffffffffffffffffffffffffffffffffffff\n      and\n      dup2\n      mstore\n      0x20\n      add\n      swap1\n      dup2\n      mstore\n      0x20\n      add\n      0x00\n      keccak256\n        /* \"contracts/LoyaltyCoupon.sol\":1273:1304  organizations[msg.sender].admin */\n      0x00\n      add\n      0x00\n      swap1\n      sload\n      swap1\n      0x0100\n      exp\n      swap1\n      div\n      0xffffffffffffffffffffffffffffffffffffffff\n      and\n        /* \"contracts/LoyaltyCoupon.sol\":1273:1318  organizations[msg.sender].admin == address(0) */\n      0xffffffffffffffffffffffffffffffffffffffff\n      and\n      eq\n        /* \"contracts/LoyaltyCoupon.sol\":1265:1367  require(organizations[msg.sender].admin == address(0), \"Organization already exists for this address\") */\n      tag_104\n      jumpi\n      mload(0x40)\n      0x08c379a000000000000000000000000000000000000000000000000000000000\n      dup2\n      mstore\n      0x04\n      add\n      tag_105\n      swap1\n      tag_106\n      jump\t// in\n    tag_105:\n      mload(0x40)\n      dup1\n      swap2\n      sub\n      swap1\n      revert\n    tag_104:\n        /* \"contracts/LoyaltyCoupon.sol\":1405:1484  Organization({... */\n      mload(0x40)\n      dup1\n      0x40\n      add\n      0x40\n      mstore\n      dup1\n        /* \"contracts/LoyaltyCoupon.sol\":1439:1449  msg.sender */\n      caller\n        /* \"contracts/LoyaltyCoupon.sol\":1405:1484  Organization({... */\n      0xffffffffffffffffffffffffffffffffffffffff\n      and\n      dup2\n      mstore\n      0x20\n      add\n        /* \"contracts/LoyaltyCoupon.sol\":1469:1473  name */\n      dup3\n        /* \"contracts/LoyaltyCoupon.sol\":1405:1484  Organization({... */\n      dup2\n      mstore\n      pop\n        /* \"contracts/LoyaltyCoupon.sol\":1377:1390  organizations */\n      0x01\n        /* \"contracts/LoyaltyCoupon.sol\":1377:1402  organizations[msg.sender] */\n      0x00\n        /* \"contracts/LoyaltyCoupon.sol\":1391:1401  msg.sender */\n      caller\n        /* \"contracts/LoyaltyCoupon.sol\":1377:1402  organizations[msg.sender] */\n      0xffffffffffffffffffffffffffffffffffffffff\n      and\n      0xffffffffffffffffffffffffffffffffffffffff\n      and\n      dup2\n      mstore\n      0x20\n      add\n      swap1\n      dup2\n      mstore\n      0x20\n      add\n      0x00\n      keccak256\n        /* \"contracts/LoyaltyCoupon.sol\":1377:1484  organizations[msg.sender] = Organization({... */\n      0x00\n      dup3\n      add\n      mload\n      dup2\n      0x00\n      add\n      exp(0x0100, 0x00)\n      dup2\n      sload\n      dup2\n      0xffffffffffffffffffffffffffffffffffffffff\n      mul\n      not\n      and\n      swap1\n      dup4\n      0xffffffffffffffffffffffffffffffffffffffff\n      and\n      mul\n      or\n      swap1\n      sstore\n      pop\n      0x20\n      dup3\n      add\n      mload\n      dup2\n      0x01\n      add\n      swap1\n      dup2\n      tag_107\n      swap2\n      swap1\n      tag_108\n      jump\t// in\n    tag_107:\n      pop\n      swap1\n      pop\n      pop\n        /* \"contracts/LoyaltyCoupon.sol\":1494:1510  organizationList */\n      0x02\n        /* \"contracts/LoyaltyCoupon.sol\":1516:1526  msg.sender */\n      caller\n        /* \"contracts/LoyaltyCoupon.sol\":1494:1527  organizationList.push(msg.sender) */\n      swap1\n      dup1\n      0x01\n      dup2\n      sload\n      add\n      dup1\n      dup3\n      sstore\n      dup1\n      swap2\n      pop\n      pop\n      0x01\n      swap1\n      sub\n      swap1\n      0x00\n      mstore\n      keccak256(0x00, 0x20)\n      add\n      0x00\n      swap1\n      swap2\n      swap1\n      swap2\n      swap1\n      swap2\n      0x0100\n      exp\n      dup2\n      sload\n      dup2\n      0xffffffffffffffffffffffffffffffffffffffff\n      mul\n      not\n      and\n      swap1\n      dup4\n      0xffffffffffffffffffffffffffffffffffffffff\n      and\n      mul\n      or\n      swap1\n      sstore\n      pop\n        /* \"contracts/LoyaltyCoupon.sol\":1604:1614  msg.sender */\n      caller\n        /* \"contracts/LoyaltyCoupon.sol\":1584:1621  OrganizationCreated(msg.sender, name) */\n      0xffffffffffffffffffffffffffffffffffffffff\n      and\n      0x24263c0109cf7104ef63652d3f39851af27bcd2f3a7005e88b226b92e2f1e3d1\n        /* \"contracts/LoyaltyCoupon.sol\":1616:1620  name */\n      dup3\n        /* \"contracts/LoyaltyCoupon.sol\":1584:1621  OrganizationCreated(msg.sender, name) */\n      mload(0x40)\n      tag_110\n      swap2\n      swap1\n      tag_111\n      jump\t// in\n    tag_110:\n      mload(0x40)\n      dup1\n      swap2\n      sub\n      swap1\n      log2\n        /* \"contracts/LoyaltyCoupon.sol\":1198:1628  function createOrganization(string memory name) external {... */\n      pop\n      jump\t// out\n        /* \"contracts/LoyaltyCoupon.sol\":2921:3041  function getUserCoupons(address user) external view returns (uint256[] memory) {... */\n    tag_45:\n        /* \"contracts/LoyaltyCoupon.sol\":2982:2998  uint256[] memory */\n      0x60\n        /* \"contracts/LoyaltyCoupon.sol\":3017:3028  userCoupons */\n      0x04\n        /* \"contracts/LoyaltyCoupon.sol\":3017:3034  userCoupons[user] */\n      0x00\n        /* \"contracts/LoyaltyCoupon.sol\":3029:3033  user */\n      dup4\n        /* \"contracts/LoyaltyCoupon.sol\":3017:3034  userCoupons[user] */\n      0xffffffffffffffffffffffffffffffffffffffff\n      and\n      0xffffffffffffffffffffffffffffffffffffffff\n      and\n      dup2\n      mstore\n      0x20\n      add\n      swap1\n      dup2\n      mstore\n      0x20\n      add\n      0x00\n      keccak256\n        /* \"contracts/LoyaltyCoupon.sol\":3010:3034  return userCoupons[user] */\n      dup1\n      sload\n      dup1\n      0x20\n      mul\n      0x20\n      add\n      mload(0x40)\n      swap1\n      dup2\n      add\n      0x40\n      mstore\n      dup1\n      swap3\n      swap2\n      swap1\n      dup2\n      dup2\n      mstore\n      0x20\n      add\n      dup3\n      dup1\n      sload\n      dup1\n      iszero\n      tag_113\n      jumpi\n      0x20\n      mul\n      dup3\n      add\n      swap2\n      swap1\n      0x00\n      mstore\n      keccak256(0x00, 0x20)\n      swap1\n    tag_114:\n      dup2\n      sload\n      dup2\n      mstore\n      0x20\n      add\n      swap1\n      0x01\n      add\n      swap1\n      dup1\n      dup4\n      gt\n      tag_114\n      jumpi\n    tag_113:\n      pop\n      pop\n      pop\n      pop\n      pop\n      swap1\n      pop\n        /* \"contracts/LoyaltyCoupon.sol\":2921:3041  function getUserCoupons(address user) external view returns (uint256[] memory) {... */\n      swap2\n      swap1\n      pop\n      jump\t// out\n        /* \"contracts/LoyaltyCoupon.sol\":459:487  uint256 public couponCounter */\n    tag_49:\n      sload(0x03)\n      dup2\n      jump\t// out\n        /* \"contracts/LoyaltyCoupon.sol\":2192:2518  function claimCoupon(uint256 couponId) external orgExists(coupons[couponId].admin) {... */\n    tag_54:\n        /* \"contracts/LoyaltyCoupon.sol\":2250:2257  coupons */\n      0x00\n        /* \"contracts/LoyaltyCoupon.sol\":2250:2267  coupons[couponId] */\n      dup1\n        /* \"contracts/LoyaltyCoupon.sol\":2258:2266  couponId */\n      dup3\n        /* \"contracts/LoyaltyCoupon.sol\":2250:2267  coupons[couponId] */\n      dup2\n      mstore\n      0x20\n      add\n      swap1\n      dup2\n      mstore\n      0x20\n      add\n      0x00\n      keccak256\n        /* \"contracts/LoyaltyCoupon.sol\":2250:2273  coupons[couponId].admin */\n      0x01\n      add\n      0x00\n      swap1\n      sload\n      swap1\n      0x0100\n      exp\n      swap1\n      div\n      0xffffffffffffffffffffffffffffffffffffffff\n      and\n        /* \"contracts/LoyaltyCoupon.sol\":1110:1111  0 */\n      0x00\n        /* \"contracts/LoyaltyCoupon.sol\":1067:1112  organizations[orgAddress].admin != address(0) */\n      0xffffffffffffffffffffffffffffffffffffffff\n      and\n        /* \"contracts/LoyaltyCoupon.sol\":1067:1080  organizations */\n      0x01\n        /* \"contracts/LoyaltyCoupon.sol\":1067:1092  organizations[orgAddress] */\n      0x00\n        /* \"contracts/LoyaltyCoupon.sol\":1081:1091  orgAddress */\n      dup4\n        /* \"contracts/LoyaltyCoupon.sol\":1067:1092  organizations[orgAddress] */\n      0xffffffffffffffffffffffffffffffffffffffff\n      and\n      0xffffffffffffffffffffffffffffffffffffffff\n      and\n      dup2\n      mstore\n      0x20\n      add\n      swap1\n      dup2\n      mstore\n      0x20\n      add\n      0x00\n      keccak256\n        /* \"contracts/LoyaltyCoupon.sol\":1067:1098  organizations[orgAddress].admin */\n      0x00\n      add\n      0x00\n      swap1\n      sload\n      swap1\n      0x0100\n      exp\n      swap1\n      div\n      0xffffffffffffffffffffffffffffffffffffffff\n      and\n        /* \"contracts/LoyaltyCoupon.sol\":1067:1112  organizations[orgAddress].admin != address(0) */\n      0xffffffffffffffffffffffffffffffffffffffff\n      and\n      sub\n        /* \"contracts/LoyaltyCoupon.sol\":1059:1144  require(organizations[orgAddress].admin != address(0), \"Organization does not exist\") */\n      tag_116\n      jumpi\n      mload(0x40)\n      0x08c379a000000000000000000000000000000000000000000000000000000000\n      dup2\n      mstore\n      0x04\n      add\n      tag_117\n      swap1\n      tag_118\n      jump\t// in\n    tag_117:\n      mload(0x40)\n      dup1\n      swap2\n      sub\n      swap1\n      revert\n    tag_116:\n        /* \"contracts/LoyaltyCoupon.sol\":2327:2328  0 */\n      0x00\n        /* \"contracts/LoyaltyCoupon.sol\":2293:2329  coupons[couponId].user == address(0) */\n      0xffffffffffffffffffffffffffffffffffffffff\n      and\n        /* \"contracts/LoyaltyCoupon.sol\":2293:2300  coupons */\n      0x00\n        /* \"contracts/LoyaltyCoupon.sol\":2293:2310  coupons[couponId] */\n      dup1\n        /* \"contracts/LoyaltyCoupon.sol\":2301:2309  couponId */\n      dup5\n        /* \"contracts/LoyaltyCoupon.sol\":2293:2310  coupons[couponId] */\n      dup2\n      mstore\n      0x20\n      add\n      swap1\n      dup2\n      mstore\n      0x20\n      add\n      0x00\n      keccak256\n        /* \"contracts/LoyaltyCoupon.sol\":2293:2315  coupons[couponId].user */\n      0x02\n      add\n      0x00\n      swap1\n      sload\n      swap1\n      0x0100\n      exp\n      swap1\n      div\n      0xffffffffffffffffffffffffffffffffffffffff\n      and\n        /* \"contracts/LoyaltyCoupon.sol\":2293:2329  coupons[couponId].user == address(0) */\n      0xffffffffffffffffffffffffffffffffffffffff\n      and\n      eq\n        /* \"contracts/LoyaltyCoupon.sol\":2285:2359  require(coupons[couponId].user == address(0), \"Coupon is already claimed\") */\n      tag_120\n      jumpi\n      mload(0x40)\n      0x08c379a000000000000000000000000000000000000000000000000000000000\n      dup2\n      mstore\n      0x04\n      add\n      tag_121\n      swap1\n      tag_122\n      jump\t// in\n    tag_121:\n      mload(0x40)\n      dup1\n      swap2\n      sub\n      swap1\n      revert\n    tag_120:\n        /* \"contracts/LoyaltyCoupon.sol\":2403:2413  msg.sender */\n      caller\n        /* \"contracts/LoyaltyCoupon.sol\":2378:2385  coupons */\n      0x00\n        /* \"contracts/LoyaltyCoupon.sol\":2378:2395  coupons[couponId] */\n      dup1\n        /* \"contracts/LoyaltyCoupon.sol\":2386:2394  couponId */\n      dup5\n        /* \"contracts/LoyaltyCoupon.sol\":2378:2395  coupons[couponId] */\n      dup2\n      mstore\n      0x20\n      add\n      swap1\n      dup2\n      mstore\n      0x20\n      add\n      0x00\n      keccak256\n        /* \"contracts/LoyaltyCoupon.sol\":2378:2400  coupons[couponId].user */\n      0x02\n      add\n      0x00\n        /* \"contracts/LoyaltyCoupon.sol\":2378:2413  coupons[couponId].user = msg.sender */\n      0x0100\n      exp\n      dup2\n      sload\n      dup2\n      0xffffffffffffffffffffffffffffffffffffffff\n      mul\n      not\n      and\n      swap1\n      dup4\n      0xffffffffffffffffffffffffffffffffffffffff\n      and\n      mul\n      or\n      swap1\n      sstore\n      pop\n        /* \"contracts/LoyaltyCoupon.sol\":2423:2434  userCoupons */\n      0x04\n        /* \"contracts/LoyaltyCoupon.sol\":2423:2446  userCoupons[msg.sender] */\n      0x00\n        /* \"contracts/LoyaltyCoupon.sol\":2435:2445  msg.sender */\n      caller\n        /* \"contracts/LoyaltyCoupon.sol\":2423:2446  userCoupons[msg.sender] */\n      0xffffffffffffffffffffffffffffffffffffffff\n      and\n      0xffffffffffffffffffffffffffffffffffffffff\n      and\n      dup2\n      mstore\n      0x20\n      add\n      swap1\n      dup2\n      mstore\n      0x20\n      add\n      0x00\n      keccak256\n        /* \"contracts/LoyaltyCoupon.sol\":2452:2460  couponId */\n      dup3\n        /* \"contracts/LoyaltyCoupon.sol\":2423:2461  userCoupons[msg.sender].push(couponId) */\n      swap1\n      dup1\n      0x01\n      dup2\n      sload\n      add\n      dup1\n      dup3\n      sstore\n      dup1\n      swap2\n      pop\n      pop\n      0x01\n      swap1\n      sub\n      swap1\n      0x00\n      mstore\n      keccak256(0x00, 0x20)\n      add\n      0x00\n      swap1\n      swap2\n      swap1\n      swap2\n      swap1\n      swap2\n      pop\n      sstore\n        /* \"contracts/LoyaltyCoupon.sol\":2500:2510  msg.sender */\n      caller\n        /* \"contracts/LoyaltyCoupon.sol\":2476:2511  CouponClaimed(couponId, msg.sender) */\n      0xffffffffffffffffffffffffffffffffffffffff\n      and\n      0xdda5c47ba205e118b3dead0d928b466734dcc28d22eb3b82af78e3e77c8f119e\n        /* \"contracts/LoyaltyCoupon.sol\":2490:2498  couponId */\n      dup4\n        /* \"contracts/LoyaltyCoupon.sol\":2476:2511  CouponClaimed(couponId, msg.sender) */\n      mload(0x40)\n      tag_124\n      swap2\n      swap1\n      tag_51\n      jump\t// in\n    tag_124:\n      mload(0x40)\n      dup1\n      swap2\n      sub\n      swap1\n      log2\n        /* \"contracts/LoyaltyCoupon.sol\":2192:2518  function claimCoupon(uint256 couponId) external orgExists(coupons[couponId].admin) {... */\n      pop\n      pop\n      jump\t// out\n        /* \"contracts/LoyaltyCoupon.sol\":1664:2158  function createCoupon(uint256 discountAmount) external {... */\n    tag_57:\n        /* \"contracts/LoyaltyCoupon.sol\":1772:1782  msg.sender */\n      caller\n        /* \"contracts/LoyaltyCoupon.sol\":1737:1782  organizations[msg.sender].admin == msg.sender */\n      0xffffffffffffffffffffffffffffffffffffffff\n      and\n        /* \"contracts/LoyaltyCoupon.sol\":1737:1750  organizations */\n      0x01\n        /* \"contracts/LoyaltyCoupon.sol\":1737:1762  organizations[msg.sender] */\n      0x00\n        /* \"contracts/LoyaltyCoupon.sol\":1751:1761  msg.sender */\n      caller\n        /* \"contracts/LoyaltyCoupon.sol\":1737:1762  organizations[msg.sender] */\n      0xffffffffffffffffffffffffffffffffffffffff\n      and\n      0xffffffffffffffffffffffffffffffffffffffff\n      and\n      dup2\n      mstore\n      0x20\n      add\n      swap1\n      dup2\n      mstore\n      0x20\n      add\n      0x00\n      keccak256\n        /* \"contracts/LoyaltyCoupon.sol\":1737:1768  organizations[msg.sender].admin */\n      0x00\n      add\n      0x00\n      swap1\n      sload\n      swap1\n      0x0100\n      exp\n      swap1\n      div\n      0xffffffffffffffffffffffffffffffffffffffff\n      and\n        /* \"contracts/LoyaltyCoupon.sol\":1737:1782  organizations[msg.sender].admin == msg.sender */\n      0xffffffffffffffffffffffffffffffffffffffff\n      and\n      eq\n        /* \"contracts/LoyaltyCoupon.sol\":1729:1833  require(organizations[msg.sender].admin == msg.sender, \"Only the organization admin can create coupons\") */\n      tag_126\n      jumpi\n      mload(0x40)\n      0x08c379a000000000000000000000000000000000000000000000000000000000\n      dup2\n      mstore\n      0x04\n      add\n      tag_127\n      swap1\n      tag_128\n      jump\t// in\n    tag_127:\n      mload(0x40)\n      dup1\n      swap2\n      sub\n      swap1\n      revert\n    tag_126:\n        /* \"contracts/LoyaltyCoupon.sol\":1844:1857  couponCounter */\n      0x03\n      0x00\n        /* \"contracts/LoyaltyCoupon.sol\":1844:1859  couponCounter++ */\n      dup2\n      sload\n      dup1\n      swap3\n      swap2\n      swap1\n      tag_129\n      swap1\n      tag_87\n      jump\t// in\n    tag_129:\n      swap2\n      swap1\n      pop\n      sstore\n      pop\n        /* \"contracts/LoyaltyCoupon.sol\":1894:2079  Coupon({... */\n      mload(0x40)\n      dup1\n      0xa0\n      add\n      0x40\n      mstore\n      dup1\n        /* \"contracts/LoyaltyCoupon.sol\":1919:1932  couponCounter */\n      sload(0x03)\n        /* \"contracts/LoyaltyCoupon.sol\":1894:2079  Coupon({... */\n      dup2\n      mstore\n      0x20\n      add\n        /* \"contracts/LoyaltyCoupon.sol\":1953:1963  msg.sender */\n      caller\n        /* \"contracts/LoyaltyCoupon.sol\":1894:2079  Coupon({... */\n      0xffffffffffffffffffffffffffffffffffffffff\n      and\n      dup2\n      mstore\n      0x20\n      add\n        /* \"contracts/LoyaltyCoupon.sol\":1991:1992  0 */\n      0x00\n        /* \"contracts/LoyaltyCoupon.sol\":1894:2079  Coupon({... */\n      0xffffffffffffffffffffffffffffffffffffffff\n      and\n      dup2\n      mstore\n      0x20\n      add\n        /* \"contracts/LoyaltyCoupon.sol\":2023:2037  discountAmount */\n      dup3\n        /* \"contracts/LoyaltyCoupon.sol\":1894:2079  Coupon({... */\n      dup2\n      mstore\n      0x20\n      add\n        /* \"contracts/LoyaltyCoupon.sol\":2063:2068  false */\n      0x00\n        /* \"contracts/LoyaltyCoupon.sol\":1894:2079  Coupon({... */\n      iszero\n      iszero\n      dup2\n      mstore\n      pop\n        /* \"contracts/LoyaltyCoupon.sol\":1869:1876  coupons */\n      0x00\n        /* \"contracts/LoyaltyCoupon.sol\":1869:1891  coupons[couponCounter] */\n      dup1\n        /* \"contracts/LoyaltyCoupon.sol\":1877:1890  couponCounter */\n      sload(0x03)\n        /* \"contracts/LoyaltyCoupon.sol\":1869:1891  coupons[couponCounter] */\n      dup2\n      mstore\n      0x20\n      add\n      swap1\n      dup2\n      mstore\n      0x20\n      add\n      0x00\n      keccak256\n        /* \"contracts/LoyaltyCoupon.sol\":1869:2079  coupons[couponCounter] = Coupon({... */\n      0x00\n      dup3\n      add\n      mload\n      dup2\n      0x00\n      add\n      sstore\n      0x20\n      dup3\n      add\n      mload\n      dup2\n      0x01\n      add\n      exp(0x0100, 0x00)\n      dup2\n      sload\n      dup2\n      0xffffffffffffffffffffffffffffffffffffffff\n      mul\n      not\n      and\n      swap1\n      dup4\n      0xffffffffffffffffffffffffffffffffffffffff\n      and\n      mul\n      or\n      swap1\n      sstore\n      pop\n      0x40\n      dup3\n      add\n      mload\n      dup2\n      0x02\n      add\n      exp(0x0100, 0x00)\n      dup2\n      sload\n      dup2\n      0xffffffffffffffffffffffffffffffffffffffff\n      mul\n      not\n      and\n      swap1\n      dup4\n      0xffffffffffffffffffffffffffffffffffffffff\n      and\n      mul\n      or\n      swap1\n      sstore\n      pop\n      0x60\n      dup3\n      add\n      mload\n      dup2\n      0x03\n      add\n      sstore\n      0x80\n      dup3\n      add\n      mload\n      dup2\n      0x04\n      add\n      exp(0x0100, 0x00)\n      dup2\n      sload\n      dup2\n      0xff\n      mul\n      not\n      and\n      swap1\n      dup4\n      iszero\n      iszero\n      mul\n      or\n      swap1\n      sstore\n      pop\n      swap1\n      pop\n      pop\n        /* \"contracts/LoyaltyCoupon.sol\":2124:2134  msg.sender */\n      caller\n        /* \"contracts/LoyaltyCoupon.sol\":2095:2151  CouponCreated(couponCounter, msg.sender, discountAmount) */\n      0xffffffffffffffffffffffffffffffffffffffff\n      and\n      0x64fa3a05e17dbe49da26c3e881e6ce12ee3717bfd8fc27a3d56b5e89280a8870\n        /* \"contracts/LoyaltyCoupon.sol\":2109:2122  couponCounter */\n      sload(0x03)\n        /* \"contracts/LoyaltyCoupon.sol\":2136:2150  discountAmount */\n      dup4\n        /* \"contracts/LoyaltyCoupon.sol\":2095:2151  CouponCreated(couponCounter, msg.sender, discountAmount) */\n      mload(0x40)\n      tag_130\n      swap3\n      swap2\n      swap1\n      tag_131\n      jump\t// in\n    tag_130:\n      mload(0x40)\n      dup1\n      swap2\n      sub\n      swap1\n      log2\n        /* \"contracts/LoyaltyCoupon.sol\":1664:2158  function createCoupon(uint256 discountAmount) external {... */\n      pop\n      jump\t// out\n        /* \"contracts/LoyaltyCoupon.sol\":493:541  mapping(address => uint256[]) public userCoupons */\n    tag_61:\n      mstore(0x20, 0x04)\n      dup2\n      0x00\n      mstore\n      keccak256(0x00, 0x40)\n      dup2\n      dup2\n      sload\n      dup2\n      lt\n      tag_132\n      jumpi\n      0x00\n      dup1\n      revert\n    tag_132:\n      swap1\n      0x00\n      mstore\n      keccak256(0x00, 0x20)\n      add\n      0x00\n      swap2\n      pop\n      swap2\n      pop\n      pop\n      sload\n      dup2\n      jump\t// out\n    tag_70:\n      mload(0x40)\n      dup1\n      0x40\n      add\n      0x40\n      mstore\n      dup1\n      and(0xffffffffffffffffffffffffffffffffffffffff, 0x00)\n      dup2\n      mstore\n      0x20\n      add\n      0x60\n      dup2\n      mstore\n      pop\n      swap1\n      jump\t// out\n        /* \"#utility.yul\":7:149   */\n    tag_134:\n        /* \"#utility.yul\":102:108   */\n      0x00\n        /* \"#utility.yul\":136:141   */\n      dup2\n        /* \"#utility.yul\":130:142   */\n      mload\n        /* \"#utility.yul\":120:142   */\n      swap1\n      pop\n        /* \"#utility.yul\":7:149   */\n      swap2\n      swap1\n      pop\n      jump\t// out\n        /* \"#utility.yul\":155:367   */\n    tag_135:\n        /* \"#utility.yul\":282:293   */\n      0x00\n        /* \"#utility.yul\":316:322   */\n      dup3\n        /* \"#utility.yul\":311:314   */\n      dup3\n        /* \"#utility.yul\":304:323   */\n      mstore\n        /* \"#utility.yul\":356:360   */\n      0x20\n        /* \"#utility.yul\":351:354   */\n      dup3\n        /* \"#utility.yul\":347:361   */\n      add\n        /* \"#utility.yul\":332:361   */\n      swap1\n      pop\n        /* \"#utility.yul\":155:367   */\n      swap3\n      swap2\n      pop\n      pop\n      jump\t// out\n        /* \"#utility.yul\":373:533   */\n    tag_136:\n        /* \"#utility.yul\":468:472   */\n      0x00\n        /* \"#utility.yul\":491:494   */\n      dup2\n        /* \"#utility.yul\":483:494   */\n      swap1\n      pop\n        /* \"#utility.yul\":521:525   */\n      0x20\n        /* \"#utility.yul\":516:519   */\n      dup3\n        /* \"#utility.yul\":512:526   */\n      add\n        /* \"#utility.yul\":504:526   */\n      swap1\n      pop\n        /* \"#utility.yul\":373:533   */\n      swap2\n      swap1\n      pop\n      jump\t// out\n        /* \"#utility.yul\":539:665   */\n    tag_137:\n        /* \"#utility.yul\":576:583   */\n      0x00\n        /* \"#utility.yul\":616:658   */\n      0xffffffffffffffffffffffffffffffffffffffff\n        /* \"#utility.yul\":609:614   */\n      dup3\n        /* \"#utility.yul\":605:659   */\n      and\n        /* \"#utility.yul\":594:659   */\n      swap1\n      pop\n        /* \"#utility.yul\":539:665   */\n      swap2\n      swap1\n      pop\n      jump\t// out\n        /* \"#utility.yul\":671:767   */\n    tag_138:\n        /* \"#utility.yul\":708:715   */\n      0x00\n        /* \"#utility.yul\":737:761   */\n      tag_213\n        /* \"#utility.yul\":755:760   */\n      dup3\n        /* \"#utility.yul\":737:761   */\n      tag_137\n      jump\t// in\n    tag_213:\n        /* \"#utility.yul\":726:761   */\n      swap1\n      pop\n        /* \"#utility.yul\":671:767   */\n      swap2\n      swap1\n      pop\n      jump\t// out\n        /* \"#utility.yul\":773:881   */\n    tag_139:\n        /* \"#utility.yul\":850:874   */\n      tag_215\n        /* \"#utility.yul\":868:873   */\n      dup2\n        /* \"#utility.yul\":850:874   */\n      tag_138\n      jump\t// in\n    tag_215:\n        /* \"#utility.yul\":845:848   */\n      dup3\n        /* \"#utility.yul\":838:875   */\n      mstore\n        /* \"#utility.yul\":773:881   */\n      pop\n      pop\n      jump\t// out\n        /* \"#utility.yul\":887:986   */\n    tag_140:\n        /* \"#utility.yul\":939:945   */\n      0x00\n        /* \"#utility.yul\":973:978   */\n      dup2\n        /* \"#utility.yul\":967:979   */\n      mload\n        /* \"#utility.yul\":957:979   */\n      swap1\n      pop\n        /* \"#utility.yul\":887:986   */\n      swap2\n      swap1\n      pop\n      jump\t// out\n        /* \"#utility.yul\":992:1151   */\n    tag_141:\n        /* \"#utility.yul\":1066:1077   */\n      0x00\n        /* \"#utility.yul\":1100:1106   */\n      dup3\n        /* \"#utility.yul\":1095:1098   */\n      dup3\n        /* \"#utility.yul\":1088:1107   */\n      mstore\n        /* \"#utility.yul\":1140:1144   */\n      0x20\n        /* \"#utility.yul\":1135:1138   */\n      dup3\n        /* \"#utility.yul\":1131:1145   */\n      add\n        /* \"#utility.yul\":1116:1145   */\n      swap1\n      pop\n        /* \"#utility.yul\":992:1151   */\n      swap3\n      swap2\n      pop\n      pop\n      jump\t// out\n        /* \"#utility.yul\":1157:1403   */\n    tag_142:\n        /* \"#utility.yul\":1238:1239   */\n      0x00\n        /* \"#utility.yul\":1248:1361   */\n    tag_219:\n        /* \"#utility.yul\":1262:1268   */\n      dup4\n        /* \"#utility.yul\":1259:1260   */\n      dup2\n        /* \"#utility.yul\":1256:1269   */\n      lt\n        /* \"#utility.yul\":1248:1361   */\n      iszero\n      tag_221\n      jumpi\n        /* \"#utility.yul\":1347:1348   */\n      dup1\n        /* \"#utility.yul\":1342:1345   */\n      dup3\n        /* \"#utility.yul\":1338:1349   */\n      add\n        /* \"#utility.yul\":1332:1350   */\n      mload\n        /* \"#utility.yul\":1328:1329   */\n      dup2\n        /* \"#utility.yul\":1323:1326   */\n      dup5\n        /* \"#utility.yul\":1319:1330   */\n      add\n        /* \"#utility.yul\":1312:1351   */\n      mstore\n        /* \"#utility.yul\":1284:1286   */\n      0x20\n        /* \"#utility.yul\":1281:1282   */\n      dup2\n        /* \"#utility.yul\":1277:1287   */\n      add\n        /* \"#utility.yul\":1272:1287   */\n      swap1\n      pop\n        /* \"#utility.yul\":1248:1361   */\n      jump(tag_219)\n    tag_221:\n        /* \"#utility.yul\":1395:1396   */\n      0x00\n        /* \"#utility.yul\":1386:1392   */\n      dup5\n        /* \"#utility.yul\":1381:1384   */\n      dup5\n        /* \"#utility.yul\":1377:1393   */\n      add\n        /* \"#utility.yul\":1370:1397   */\n      mstore\n        /* \"#utility.yul\":1219:1403   */\n      pop\n        /* \"#utility.yul\":1157:1403   */\n      pop\n      pop\n      pop\n      jump\t// out\n        /* \"#utility.yul\":1409:1511   */\n    tag_143:\n        /* \"#utility.yul\":1450:1456   */\n      0x00\n        /* \"#utility.yul\":1501:1503   */\n      0x1f\n        /* \"#utility.yul\":1497:1504   */\n      not\n        /* \"#utility.yul\":1492:1494   */\n      0x1f\n        /* \"#utility.yul\":1485:1490   */\n      dup4\n        /* \"#utility.yul\":1481:1495   */\n      add\n        /* \"#utility.yul\":1477:1505   */\n      and\n        /* \"#utility.yul\":1467:1505   */\n      swap1\n      pop\n        /* \"#utility.yul\":1409:1511   */\n      swap2\n      swap1\n      pop\n      jump\t// out\n        /* \"#utility.yul\":1517:1874   */\n    tag_144:\n        /* \"#utility.yul\":1595:1598   */\n      0x00\n        /* \"#utility.yul\":1623:1662   */\n      tag_224\n        /* \"#utility.yul\":1656:1661   */\n      dup3\n        /* \"#utility.yul\":1623:1662   */\n      tag_140\n      jump\t// in\n    tag_224:\n        /* \"#utility.yul\":1678:1739   */\n      tag_225\n        /* \"#utility.yul\":1732:1738   */\n      dup2\n        /* \"#utility.yul\":1727:1730   */\n      dup6\n        /* \"#utility.yul\":1678:1739   */\n      tag_141\n      jump\t// in\n    tag_225:\n        /* \"#utility.yul\":1671:1739   */\n      swap4\n      pop\n        /* \"#utility.yul\":1748:1813   */\n      tag_226\n        /* \"#utility.yul\":1806:1812   */\n      dup2\n        /* \"#utility.yul\":1801:1804   */\n      dup6\n        /* \"#utility.yul\":1794:1798   */\n      0x20\n        /* \"#utility.yul\":1787:1792   */\n      dup7\n        /* \"#utility.yul\":1783:1799   */\n      add\n        /* \"#utility.yul\":1748:1813   */\n      tag_142\n      jump\t// in\n    tag_226:\n        /* \"#utility.yul\":1838:1867   */\n      tag_227\n        /* \"#utility.yul\":1860:1866   */\n      dup2\n        /* \"#utility.yul\":1838:1867   */\n      tag_143\n      jump\t// in\n    tag_227:\n        /* \"#utility.yul\":1833:1836   */\n      dup5\n        /* \"#utility.yul\":1829:1868   */\n      add\n        /* \"#utility.yul\":1822:1868   */\n      swap2\n      pop\n        /* \"#utility.yul\":1599:1874   */\n      pop\n        /* \"#utility.yul\":1517:1874   */\n      swap3\n      swap2\n      pop\n      pop\n      jump\t// out\n        /* \"#utility.yul\":1958:2561   */\n    tag_145:\n        /* \"#utility.yul\":2073:2076   */\n      0x00\n        /* \"#utility.yul\":2109:2113   */\n      0x40\n        /* \"#utility.yul\":2104:2107   */\n      dup4\n        /* \"#utility.yul\":2100:2114   */\n      add\n        /* \"#utility.yul\":2197:2201   */\n      0x00\n        /* \"#utility.yul\":2190:2195   */\n      dup4\n        /* \"#utility.yul\":2186:2202   */\n      add\n        /* \"#utility.yul\":2180:2203   */\n      mload\n        /* \"#utility.yul\":2216:2279   */\n      tag_229\n        /* \"#utility.yul\":2273:2277   */\n      0x00\n        /* \"#utility.yul\":2268:2271   */\n      dup7\n        /* \"#utility.yul\":2264:2278   */\n      add\n        /* \"#utility.yul\":2250:2262   */\n      dup3\n        /* \"#utility.yul\":2216:2279   */\n      tag_139\n      jump\t// in\n    tag_229:\n        /* \"#utility.yul\":2124:2289   */\n      pop\n        /* \"#utility.yul\":2371:2375   */\n      0x20\n        /* \"#utility.yul\":2364:2369   */\n      dup4\n        /* \"#utility.yul\":2360:2376   */\n      add\n        /* \"#utility.yul\":2354:2377   */\n      mload\n        /* \"#utility.yul\":2424:2427   */\n      dup5\n        /* \"#utility.yul\":2418:2422   */\n      dup3\n        /* \"#utility.yul\":2414:2428   */\n      sub\n        /* \"#utility.yul\":2407:2411   */\n      0x20\n        /* \"#utility.yul\":2402:2405   */\n      dup7\n        /* \"#utility.yul\":2398:2412   */\n      add\n        /* \"#utility.yul\":2391:2429   */\n      mstore\n        /* \"#utility.yul\":2450:2523   */\n      tag_230\n        /* \"#utility.yul\":2518:2522   */\n      dup3\n        /* \"#utility.yul\":2504:2516   */\n      dup3\n        /* \"#utility.yul\":2450:2523   */\n      tag_144\n      jump\t// in\n    tag_230:\n        /* \"#utility.yul\":2442:2523   */\n      swap2\n      pop\n        /* \"#utility.yul\":2299:2534   */\n      pop\n        /* \"#utility.yul\":2551:2555   */\n      dup1\n        /* \"#utility.yul\":2544:2555   */\n      swap2\n      pop\n        /* \"#utility.yul\":2078:2561   */\n      pop\n        /* \"#utility.yul\":1958:2561   */\n      swap3\n      swap2\n      pop\n      pop\n      jump\t// out\n        /* \"#utility.yul\":2567:2835   */\n    tag_146:\n        /* \"#utility.yul\":2692:2702   */\n      0x00\n        /* \"#utility.yul\":2727:2829   */\n      tag_232\n        /* \"#utility.yul\":2825:2828   */\n      dup4\n        /* \"#utility.yul\":2817:2823   */\n      dup4\n        /* \"#utility.yul\":2727:2829   */\n      tag_145\n      jump\t// in\n    tag_232:\n        /* \"#utility.yul\":2713:2829   */\n      swap1\n      pop\n        /* \"#utility.yul\":2567:2835   */\n      swap3\n      swap2\n      pop\n      pop\n      jump\t// out\n        /* \"#utility.yul\":2841:2982   */\n    tag_147:\n        /* \"#utility.yul\":2939:2943   */\n      0x00\n        /* \"#utility.yul\":2971:2975   */\n      0x20\n        /* \"#utility.yul\":2966:2969   */\n      dup3\n        /* \"#utility.yul\":2962:2976   */\n      add\n        /* \"#utility.yul\":2954:2976   */\n      swap1\n      pop\n        /* \"#utility.yul\":2841:2982   */\n      swap2\n      swap1\n      pop\n      jump\t// out\n        /* \"#utility.yul\":3070:4205   */\n    tag_148:\n        /* \"#utility.yul\":3245:3248   */\n      0x00\n        /* \"#utility.yul\":3274:3356   */\n      tag_235\n        /* \"#utility.yul\":3350:3355   */\n      dup3\n        /* \"#utility.yul\":3274:3356   */\n      tag_134\n      jump\t// in\n    tag_235:\n        /* \"#utility.yul\":3372:3486   */\n      tag_236\n        /* \"#utility.yul\":3479:3485   */\n      dup2\n        /* \"#utility.yul\":3474:3477   */\n      dup6\n        /* \"#utility.yul\":3372:3486   */\n      tag_135\n      jump\t// in\n    tag_236:\n        /* \"#utility.yul\":3365:3486   */\n      swap4\n      pop\n        /* \"#utility.yul\":3512:3515   */\n      dup4\n        /* \"#utility.yul\":3557:3561   */\n      0x20\n        /* \"#utility.yul\":3549:3555   */\n      dup3\n        /* \"#utility.yul\":3545:3562   */\n      mul\n        /* \"#utility.yul\":3540:3543   */\n      dup6\n        /* \"#utility.yul\":3536:3563   */\n      add\n        /* \"#utility.yul\":3587:3671   */\n      tag_237\n        /* \"#utility.yul\":3665:3670   */\n      dup6\n        /* \"#utility.yul\":3587:3671   */\n      tag_136\n      jump\t// in\n    tag_237:\n        /* \"#utility.yul\":3694:3701   */\n      dup1\n        /* \"#utility.yul\":3725:3726   */\n      0x00\n        /* \"#utility.yul\":3710:4160   */\n    tag_238:\n        /* \"#utility.yul\":3735:3741   */\n      dup6\n        /* \"#utility.yul\":3732:3733   */\n      dup2\n        /* \"#utility.yul\":3729:3742   */\n      lt\n        /* \"#utility.yul\":3710:4160   */\n      iszero\n      tag_240\n      jumpi\n        /* \"#utility.yul\":3806:3815   */\n      dup5\n        /* \"#utility.yul\":3800:3804   */\n      dup5\n        /* \"#utility.yul\":3796:3816   */\n      sub\n        /* \"#utility.yul\":3791:3794   */\n      dup10\n        /* \"#utility.yul\":3784:3817   */\n      mstore\n        /* \"#utility.yul\":3857:3863   */\n      dup2\n        /* \"#utility.yul\":3851:3864   */\n      mload\n        /* \"#utility.yul\":3885:4005   */\n      tag_241\n        /* \"#utility.yul\":4000:4004   */\n      dup6\n        /* \"#utility.yul\":3985:3998   */\n      dup3\n        /* \"#utility.yul\":3885:4005   */\n      tag_146\n      jump\t// in\n    tag_241:\n        /* \"#utility.yul\":3877:4005   */\n      swap5\n      pop\n        /* \"#utility.yul\":4028:4116   */\n      tag_242\n        /* \"#utility.yul\":4109:4115   */\n      dup4\n        /* \"#utility.yul\":4028:4116   */\n      tag_147\n      jump\t// in\n    tag_242:\n        /* \"#utility.yul\":4018:4116   */\n      swap3\n      pop\n        /* \"#utility.yul\":4145:4149   */\n      0x20\n        /* \"#utility.yul\":4140:4143   */\n      dup11\n        /* \"#utility.yul\":4136:4150   */\n      add\n        /* \"#utility.yul\":4129:4150   */\n      swap10\n      pop\n        /* \"#utility.yul\":3770:4160   */\n      pop\n        /* \"#utility.yul\":3757:3758   */\n      0x01\n        /* \"#utility.yul\":3754:3755   */\n      dup2\n        /* \"#utility.yul\":3750:3759   */\n      add\n        /* \"#utility.yul\":3745:3759   */\n      swap1\n      pop\n        /* \"#utility.yul\":3710:4160   */\n      jump(tag_238)\n    tag_240:\n        /* \"#utility.yul\":3714:3728   */\n      pop\n        /* \"#utility.yul\":4176:4180   */\n      dup3\n        /* \"#utility.yul\":4169:4180   */\n      swap8\n      pop\n        /* \"#utility.yul\":4196:4199   */\n      dup8\n        /* \"#utility.yul\":4189:4199   */\n      swap6\n      pop\n        /* \"#utility.yul\":3250:4205   */\n      pop\n      pop\n      pop\n      pop\n      pop\n        /* \"#utility.yul\":3070:4205   */\n      swap3\n      swap2\n      pop\n      pop\n      jump\t// out\n        /* \"#utility.yul\":4211:4696   */\n    tag_18:\n        /* \"#utility.yul\":4410:4414   */\n      0x00\n        /* \"#utility.yul\":4448:4450   */\n      0x20\n        /* \"#utility.yul\":4437:4446   */\n      dup3\n        /* \"#utility.yul\":4433:4451   */\n      add\n        /* \"#utility.yul\":4425:4451   */\n      swap1\n      pop\n        /* \"#utility.yul\":4497:4506   */\n      dup2\n        /* \"#utility.yul\":4491:4495   */\n      dup2\n        /* \"#utility.yul\":4487:4507   */\n      sub\n        /* \"#utility.yul\":4483:4484   */\n      0x00\n        /* \"#utility.yul\":4472:4481   */\n      dup4\n        /* \"#utility.yul\":4468:4485   */\n      add\n        /* \"#utility.yul\":4461:4508   */\n      mstore\n        /* \"#utility.yul\":4525:4689   */\n      tag_244\n        /* \"#utility.yul\":4684:4688   */\n      dup2\n        /* \"#utility.yul\":4675:4681   */\n      dup5\n        /* \"#utility.yul\":4525:4689   */\n      tag_148\n      jump\t// in\n    tag_244:\n        /* \"#utility.yul\":4517:4689   */\n      swap1\n      pop\n        /* \"#utility.yul\":4211:4696   */\n      swap3\n      swap2\n      pop\n      pop\n      jump\t// out\n        /* \"#utility.yul\":4702:4777   */\n    tag_149:\n        /* \"#utility.yul\":4735:4741   */\n      0x00\n        /* \"#utility.yul\":4768:4770   */\n      0x40\n        /* \"#utility.yul\":4762:4771   */\n      mload\n        /* \"#utility.yul\":4752:4771   */\n      swap1\n      pop\n        /* \"#utility.yul\":4702:4777   */\n      swap1\n      jump\t// out\n        /* \"#utility.yul\":4783:4900   */\n    tag_150:\n        /* \"#utility.yul\":4892:4893   */\n      0x00\n        /* \"#utility.yul\":4889:4890   */\n      dup1\n        /* \"#utility.yul\":4882:4894   */\n      revert\n        /* \"#utility.yul\":4906:5023   */\n    tag_151:\n        /* \"#utility.yul\":5015:5016   */\n      0x00\n        /* \"#utility.yul\":5012:5013   */\n      dup1\n        /* \"#utility.yul\":5005:5017   */\n      revert\n        /* \"#utility.yul\":5029:5106   */\n    tag_152:\n        /* \"#utility.yul\":5066:5073   */\n      0x00\n        /* \"#utility.yul\":5095:5100   */\n      dup2\n        /* \"#utility.yul\":5084:5100   */\n      swap1\n      pop\n        /* \"#utility.yul\":5029:5106   */\n      swap2\n      swap1\n      pop\n      jump\t// out\n        /* \"#utility.yul\":5112:5234   */\n    tag_153:\n        /* \"#utility.yul\":5185:5209   */\n      tag_250\n        /* \"#utility.yul\":5203:5208   */\n      dup2\n        /* \"#utility.yul\":5185:5209   */\n      tag_152\n      jump\t// in\n    tag_250:\n        /* \"#utility.yul\":5178:5183   */\n      dup2\n        /* \"#utility.yul\":5175:5210   */\n      eq\n        /* \"#utility.yul\":5165:5228   */\n      tag_251\n      jumpi\n        /* \"#utility.yul\":5224:5225   */\n      0x00\n        /* \"#utility.yul\":5221:5222   */\n      dup1\n        /* \"#utility.yul\":5214:5226   */\n      revert\n        /* \"#utility.yul\":5165:5228   */\n    tag_251:\n        /* \"#utility.yul\":5112:5234   */\n      pop\n      jump\t// out\n        /* \"#utility.yul\":5240:5379   */\n    tag_154:\n        /* \"#utility.yul\":5286:5291   */\n      0x00\n        /* \"#utility.yul\":5324:5330   */\n      dup2\n        /* \"#utility.yul\":5311:5331   */\n      calldataload\n        /* \"#utility.yul\":5302:5331   */\n      swap1\n      pop\n        /* \"#utility.yul\":5340:5373   */\n      tag_253\n        /* \"#utility.yul\":5367:5372   */\n      dup2\n        /* \"#utility.yul\":5340:5373   */\n      tag_153\n      jump\t// in\n    tag_253:\n        /* \"#utility.yul\":5240:5379   */\n      swap3\n      swap2\n      pop\n      pop\n      jump\t// out\n        /* \"#utility.yul\":5385:5714   */\n    tag_21:\n        /* \"#utility.yul\":5444:5450   */\n      0x00\n        /* \"#utility.yul\":5493:5495   */\n      0x20\n        /* \"#utility.yul\":5481:5490   */\n      dup3\n        /* \"#utility.yul\":5472:5479   */\n      dup5\n        /* \"#utility.yul\":5468:5491   */\n      sub\n        /* \"#utility.yul\":5464:5496   */\n      slt\n        /* \"#utility.yul\":5461:5580   */\n      iszero\n      tag_255\n      jumpi\n        /* \"#utility.yul\":5499:5578   */\n      tag_256\n      tag_150\n      jump\t// in\n    tag_256:\n        /* \"#utility.yul\":5461:5580   */\n    tag_255:\n        /* \"#utility.yul\":5619:5620   */\n      0x00\n        /* \"#utility.yul\":5644:5697   */\n      tag_257\n        /* \"#utility.yul\":5689:5696   */\n      dup5\n        /* \"#utility.yul\":5680:5686   */\n      dup3\n        /* \"#utility.yul\":5669:5678   */\n      dup6\n        /* \"#utility.yul\":5665:5687   */\n      add\n        /* \"#utility.yul\":5644:5697   */\n      tag_154\n      jump\t// in\n    tag_257:\n        /* \"#utility.yul\":5634:5697   */\n      swap2\n      pop\n        /* \"#utility.yul\":5590:5707   */\n      pop\n        /* \"#utility.yul\":5385:5714   */\n      swap3\n      swap2\n      pop\n      pop\n      jump\t// out\n        /* \"#utility.yul\":5720:5838   */\n    tag_155:\n        /* \"#utility.yul\":5807:5831   */\n      tag_259\n        /* \"#utility.yul\":5825:5830   */\n      dup2\n        /* \"#utility.yul\":5807:5831   */\n      tag_138\n      jump\t// in\n    tag_259:\n        /* \"#utility.yul\":5802:5805   */\n      dup3\n        /* \"#utility.yul\":5795:5832   */\n      mstore\n        /* \"#utility.yul\":5720:5838   */\n      pop\n      pop\n      jump\t// out\n        /* \"#utility.yul\":5844:6066   */\n    tag_24:\n        /* \"#utility.yul\":5937:5941   */\n      0x00\n        /* \"#utility.yul\":5975:5977   */\n      0x20\n        /* \"#utility.yul\":5964:5973   */\n      dup3\n        /* \"#utility.yul\":5960:5978   */\n      add\n        /* \"#utility.yul\":5952:5978   */\n      swap1\n      pop\n        /* \"#utility.yul\":5988:6059   */\n      tag_261\n        /* \"#utility.yul\":6056:6057   */\n      0x00\n        /* \"#utility.yul\":6045:6054   */\n      dup4\n        /* \"#utility.yul\":6041:6058   */\n      add\n        /* \"#utility.yul\":6032:6038   */\n      dup5\n        /* \"#utility.yul\":5988:6059   */\n      tag_155\n      jump\t// in\n    tag_261:\n        /* \"#utility.yul\":5844:6066   */\n      swap3\n      swap2\n      pop\n      pop\n      jump\t// out\n        /* \"#utility.yul\":6072:6190   */\n    tag_156:\n        /* \"#utility.yul\":6159:6183   */\n      tag_263\n        /* \"#utility.yul\":6177:6182   */\n      dup2\n        /* \"#utility.yul\":6159:6183   */\n      tag_152\n      jump\t// in\n    tag_263:\n        /* \"#utility.yul\":6154:6157   */\n      dup3\n        /* \"#utility.yul\":6147:6184   */\n      mstore\n        /* \"#utility.yul\":6072:6190   */\n      pop\n      pop\n      jump\t// out\n        /* \"#utility.yul\":6196:6286   */\n    tag_157:\n        /* \"#utility.yul\":6230:6237   */\n      0x00\n        /* \"#utility.yul\":6273:6278   */\n      dup2\n        /* \"#utility.yul\":6266:6279   */\n      iszero\n        /* \"#utility.yul\":6259:6280   */\n      iszero\n        /* \"#utility.yul\":6248:6280   */\n      swap1\n      pop\n        /* \"#utility.yul\":6196:6286   */\n      swap2\n      swap1\n      pop\n      jump\t// out\n        /* \"#utility.yul\":6292:6401   */\n    tag_158:\n        /* \"#utility.yul\":6373:6394   */\n      tag_266\n        /* \"#utility.yul\":6388:6393   */\n      dup2\n        /* \"#utility.yul\":6373:6394   */\n      tag_157\n      jump\t// in\n    tag_266:\n        /* \"#utility.yul\":6368:6371   */\n      dup3\n        /* \"#utility.yul\":6361:6395   */\n      mstore\n        /* \"#utility.yul\":6292:6401   */\n      pop\n      pop\n      jump\t// out\n        /* \"#utility.yul\":6407:7059   */\n    tag_29:\n        /* \"#utility.yul\":6606:6610   */\n      0x00\n        /* \"#utility.yul\":6644:6647   */\n      0xa0\n        /* \"#utility.yul\":6633:6642   */\n      dup3\n        /* \"#utility.yul\":6629:6648   */\n      add\n        /* \"#utility.yul\":6621:6648   */\n      swap1\n      pop\n        /* \"#utility.yul\":6658:6729   */\n      tag_268\n        /* \"#utility.yul\":6726:6727   */\n      0x00\n        /* \"#utility.yul\":6715:6724   */\n      dup4\n        /* \"#utility.yul\":6711:6728   */\n      add\n        /* \"#utility.yul\":6702:6708   */\n      dup9\n        /* \"#utility.yul\":6658:6729   */\n      tag_156\n      jump\t// in\n    tag_268:\n        /* \"#utility.yul\":6739:6811   */\n      tag_269\n        /* \"#utility.yul\":6807:6809   */\n      0x20\n        /* \"#utility.yul\":6796:6805   */\n      dup4\n        /* \"#utility.yul\":6792:6810   */\n      add\n        /* \"#utility.yul\":6783:6789   */\n      dup8\n        /* \"#utility.yul\":6739:6811   */\n      tag_155\n      jump\t// in\n    tag_269:\n        /* \"#utility.yul\":6821:6893   */\n      tag_270\n        /* \"#utility.yul\":6889:6891   */\n      0x40\n        /* \"#utility.yul\":6878:6887   */\n      dup4\n        /* \"#utility.yul\":6874:6892   */\n      add\n        /* \"#utility.yul\":6865:6871   */\n      dup7\n        /* \"#utility.yul\":6821:6893   */\n      tag_155\n      jump\t// in\n    tag_270:\n        /* \"#utility.yul\":6903:6975   */\n      tag_271\n        /* \"#utility.yul\":6971:6973   */\n      0x60\n        /* \"#utility.yul\":6960:6969   */\n      dup4\n        /* \"#utility.yul\":6956:6974   */\n      add\n        /* \"#utility.yul\":6947:6953   */\n      dup6\n        /* \"#utility.yul\":6903:6975   */\n      tag_156\n      jump\t// in\n    tag_271:\n        /* \"#utility.yul\":6985:7052   */\n      tag_272\n        /* \"#utility.yul\":7047:7050   */\n      0x80\n        /* \"#utility.yul\":7036:7045   */\n      dup4\n        /* \"#utility.yul\":7032:7051   */\n      add\n        /* \"#utility.yul\":7023:7029   */\n      dup5\n        /* \"#utility.yul\":6985:7052   */\n      tag_158\n      jump\t// in\n    tag_272:\n        /* \"#utility.yul\":6407:7059   */\n      swap7\n      swap6\n      pop\n      pop\n      pop\n      pop\n      pop\n      pop\n      jump\t// out\n        /* \"#utility.yul\":7065:7187   */\n    tag_159:\n        /* \"#utility.yul\":7138:7162   */\n      tag_274\n        /* \"#utility.yul\":7156:7161   */\n      dup2\n        /* \"#utility.yul\":7138:7162   */\n      tag_138\n      jump\t// in\n    tag_274:\n        /* \"#utility.yul\":7131:7136   */\n      dup2\n        /* \"#utility.yul\":7128:7163   */\n      eq\n        /* \"#utility.yul\":7118:7181   */\n      tag_275\n      jumpi\n        /* \"#utility.yul\":7177:7178   */\n      0x00\n        /* \"#utility.yul\":7174:7175   */\n      dup1\n        /* \"#utility.yul\":7167:7179   */\n      revert\n        /* \"#utility.yul\":7118:7181   */\n    tag_275:\n        /* \"#utility.yul\":7065:7187   */\n      pop\n      jump\t// out\n        /* \"#utility.yul\":7193:7332   */\n    tag_160:\n        /* \"#utility.yul\":7239:7244   */\n      0x00\n        /* \"#utility.yul\":7277:7283   */\n      dup2\n        /* \"#utility.yul\":7264:7284   */\n      calldataload\n        /* \"#utility.yul\":7255:7284   */\n      swap1\n      pop\n        /* \"#utility.yul\":7293:7326   */\n      tag_277\n        /* \"#utility.yul\":7320:7325   */\n      dup2\n        /* \"#utility.yul\":7293:7326   */\n      tag_159\n      jump\t// in\n    tag_277:\n        /* \"#utility.yul\":7193:7332   */\n      swap3\n      swap2\n      pop\n      pop\n      jump\t// out\n        /* \"#utility.yul\":7338:7667   */\n    tag_35:\n        /* \"#utility.yul\":7397:7403   */\n      0x00\n        /* \"#utility.yul\":7446:7448   */\n      0x20\n        /* \"#utility.yul\":7434:7443   */\n      dup3\n        /* \"#utility.yul\":7425:7432   */\n      dup5\n        /* \"#utility.yul\":7421:7444   */\n      sub\n        /* \"#utility.yul\":7417:7449   */\n      slt\n        /* \"#utility.yul\":7414:7533   */\n      iszero\n      tag_279\n      jumpi\n        /* \"#utility.yul\":7452:7531   */\n      tag_280\n      tag_150\n      jump\t// in\n    tag_280:\n        /* \"#utility.yul\":7414:7533   */\n    tag_279:\n        /* \"#utility.yul\":7572:7573   */\n      0x00\n        /* \"#utility.yul\":7597:7650   */\n      tag_281\n        /* \"#utility.yul\":7642:7649   */\n      dup5\n        /* \"#utility.yul\":7633:7639   */\n      dup3\n        /* \"#utility.yul\":7622:7631   */\n      dup6\n        /* \"#utility.yul\":7618:7640   */\n      add\n        /* \"#utility.yul\":7597:7650   */\n      tag_160\n      jump\t// in\n    tag_281:\n        /* \"#utility.yul\":7587:7650   */\n      swap2\n      pop\n        /* \"#utility.yul\":7543:7660   */\n      pop\n        /* \"#utility.yul\":7338:7667   */\n      swap3\n      swap2\n      pop\n      pop\n      jump\t// out\n        /* \"#utility.yul\":7673:7842   */\n    tag_161:\n        /* \"#utility.yul\":7757:7768   */\n      0x00\n        /* \"#utility.yul\":7791:7797   */\n      dup3\n        /* \"#utility.yul\":7786:7789   */\n      dup3\n        /* \"#utility.yul\":7779:7798   */\n      mstore\n        /* \"#utility.yul\":7831:7835   */\n      0x20\n        /* \"#utility.yul\":7826:7829   */\n      dup3\n        /* \"#utility.yul\":7822:7836   */\n      add\n        /* \"#utility.yul\":7807:7836   */\n      swap1\n      pop\n        /* \"#utility.yul\":7673:7842   */\n      swap3\n      swap2\n      pop\n      pop\n      jump\t// out\n        /* \"#utility.yul\":7848:8225   */\n    tag_162:\n        /* \"#utility.yul\":7936:7939   */\n      0x00\n        /* \"#utility.yul\":7964:8003   */\n      tag_284\n        /* \"#utility.yul\":7997:8002   */\n      dup3\n        /* \"#utility.yul\":7964:8003   */\n      tag_140\n      jump\t// in\n    tag_284:\n        /* \"#utility.yul\":8019:8090   */\n      tag_285\n        /* \"#utility.yul\":8083:8089   */\n      dup2\n        /* \"#utility.yul\":8078:8081   */\n      dup6\n        /* \"#utility.yul\":8019:8090   */\n      tag_161\n      jump\t// in\n    tag_285:\n        /* \"#utility.yul\":8012:8090   */\n      swap4\n      pop\n        /* \"#utility.yul\":8099:8164   */\n      tag_286\n        /* \"#utility.yul\":8157:8163   */\n      dup2\n        /* \"#utility.yul\":8152:8155   */\n      dup6\n        /* \"#utility.yul\":8145:8149   */\n      0x20\n        /* \"#utility.yul\":8138:8143   */\n      dup7\n        /* \"#utility.yul\":8134:8150   */\n      add\n        /* \"#utility.yul\":8099:8164   */\n      tag_142\n      jump\t// in\n    tag_286:\n        /* \"#utility.yul\":8189:8218   */\n      tag_287\n        /* \"#utility.yul\":8211:8217   */\n      dup2\n        /* \"#utility.yul\":8189:8218   */\n      tag_143\n      jump\t// in\n    tag_287:\n        /* \"#utility.yul\":8184:8187   */\n      dup5\n        /* \"#utility.yul\":8180:8219   */\n      add\n        /* \"#utility.yul\":8173:8219   */\n      swap2\n      pop\n        /* \"#utility.yul\":7940:8225   */\n      pop\n        /* \"#utility.yul\":7848:8225   */\n      swap3\n      swap2\n      pop\n      pop\n      jump\t// out\n        /* \"#utility.yul\":8231:8654   */\n    tag_38:\n        /* \"#utility.yul\":8372:8376   */\n      0x00\n        /* \"#utility.yul\":8410:8412   */\n      0x40\n        /* \"#utility.yul\":8399:8408   */\n      dup3\n        /* \"#utility.yul\":8395:8413   */\n      add\n        /* \"#utility.yul\":8387:8413   */\n      swap1\n      pop\n        /* \"#utility.yul\":8423:8494   */\n      tag_289\n        /* \"#utility.yul\":8491:8492   */\n      0x00\n        /* \"#utility.yul\":8480:8489   */\n      dup4\n        /* \"#utility.yul\":8476:8493   */\n      add\n        /* \"#utility.yul\":8467:8473   */\n      dup6\n        /* \"#utility.yul\":8423:8494   */\n      tag_155\n      jump\t// in\n    tag_289:\n        /* \"#utility.yul\":8541:8550   */\n      dup2\n        /* \"#utility.yul\":8535:8539   */\n      dup2\n        /* \"#utility.yul\":8531:8551   */\n      sub\n        /* \"#utility.yul\":8526:8528   */\n      0x20\n        /* \"#utility.yul\":8515:8524   */\n      dup4\n        /* \"#utility.yul\":8511:8529   */\n      add\n        /* \"#utility.yul\":8504:8552   */\n      mstore\n        /* \"#utility.yul\":8569:8647   */\n      tag_290\n        /* \"#utility.yul\":8642:8646   */\n      dup2\n        /* \"#utility.yul\":8633:8639   */\n      dup5\n        /* \"#utility.yul\":8569:8647   */\n      tag_162\n      jump\t// in\n    tag_290:\n        /* \"#utility.yul\":8561:8647   */\n      swap1\n      pop\n        /* \"#utility.yul\":8231:8654   */\n      swap4\n      swap3\n      pop\n      pop\n      pop\n      jump\t// out\n        /* \"#utility.yul\":8660:8777   */\n    tag_163:\n        /* \"#utility.yul\":8769:8770   */\n      0x00\n        /* \"#utility.yul\":8766:8767   */\n      dup1\n        /* \"#utility.yul\":8759:8771   */\n      revert\n        /* \"#utility.yul\":8783:8900   */\n    tag_164:\n        /* \"#utility.yul\":8892:8893   */\n      0x00\n        /* \"#utility.yul\":8889:8890   */\n      dup1\n        /* \"#utility.yul\":8882:8894   */\n      revert\n        /* \"#utility.yul\":8906:9086   */\n    tag_66:\n        /* \"#utility.yul\":8954:9031   */\n      0x4e487b7100000000000000000000000000000000000000000000000000000000\n        /* \"#utility.yul\":8951:8952   */\n      0x00\n        /* \"#utility.yul\":8944:9032   */\n      mstore\n        /* \"#utility.yul\":9051:9055   */\n      0x41\n        /* \"#utility.yul\":9048:9049   */\n      0x04\n        /* \"#utility.yul\":9041:9056   */\n      mstore\n        /* \"#utility.yul\":9075:9079   */\n      0x24\n        /* \"#utility.yul\":9072:9073   */\n      0x00\n        /* \"#utility.yul\":9065:9080   */\n      revert\n        /* \"#utility.yul\":9092:9373   */\n    tag_165:\n        /* \"#utility.yul\":9175:9202   */\n      tag_295\n        /* \"#utility.yul\":9197:9201   */\n      dup3\n        /* \"#utility.yul\":9175:9202   */\n      tag_143\n      jump\t// in\n    tag_295:\n        /* \"#utility.yul\":9167:9173   */\n      dup2\n        /* \"#utility.yul\":9163:9203   */\n      add\n        /* \"#utility.yul\":9305:9311   */\n      dup2\n        /* \"#utility.yul\":9293:9303   */\n      dup2\n        /* \"#utility.yul\":9290:9312   */\n      lt\n        /* \"#utility.yul\":9269:9287   */\n      0xffffffffffffffff\n        /* \"#utility.yul\":9257:9267   */\n      dup3\n        /* \"#utility.yul\":9254:9288   */\n      gt\n        /* \"#utility.yul\":9251:9313   */\n      or\n        /* \"#utility.yul\":9248:9336   */\n      iszero\n      tag_296\n      jumpi\n        /* \"#utility.yul\":9316:9334   */\n      tag_297\n      tag_66\n      jump\t// in\n    tag_297:\n        /* \"#utility.yul\":9248:9336   */\n    tag_296:\n        /* \"#utility.yul\":9356:9366   */\n      dup1\n        /* \"#utility.yul\":9352:9354   */\n      0x40\n        /* \"#utility.yul\":9345:9367   */\n      mstore\n        /* \"#utility.yul\":9135:9373   */\n      pop\n        /* \"#utility.yul\":9092:9373   */\n      pop\n      pop\n      jump\t// out\n        /* \"#utility.yul\":9379:9508   */\n    tag_166:\n        /* \"#utility.yul\":9413:9419   */\n      0x00\n        /* \"#utility.yul\":9440:9460   */\n      tag_299\n      tag_149\n      jump\t// in\n    tag_299:\n        /* \"#utility.yul\":9430:9460   */\n      swap1\n      pop\n        /* \"#utility.yul\":9469:9502   */\n      tag_300\n        /* \"#utility.yul\":9497:9501   */\n      dup3\n        /* \"#utility.yul\":9489:9495   */\n      dup3\n        /* \"#utility.yul\":9469:9502   */\n      tag_165\n      jump\t// in\n    tag_300:\n        /* \"#utility.yul\":9379:9508   */\n      swap2\n      swap1\n      pop\n      jump\t// out\n        /* \"#utility.yul\":9514:9822   */\n    tag_167:\n        /* \"#utility.yul\":9576:9580   */\n      0x00\n        /* \"#utility.yul\":9666:9684   */\n      0xffffffffffffffff\n        /* \"#utility.yul\":9658:9664   */\n      dup3\n        /* \"#utility.yul\":9655:9685   */\n      gt\n        /* \"#utility.yul\":9652:9708   */\n      iszero\n      tag_302\n      jumpi\n        /* \"#utility.yul\":9688:9706   */\n      tag_303\n      tag_66\n      jump\t// in\n    tag_303:\n        /* \"#utility.yul\":9652:9708   */\n    tag_302:\n        /* \"#utility.yul\":9726:9755   */\n      tag_304\n        /* \"#utility.yul\":9748:9754   */\n      dup3\n        /* \"#utility.yul\":9726:9755   */\n      tag_143\n      jump\t// in\n    tag_304:\n        /* \"#utility.yul\":9718:9755   */\n      swap1\n      pop\n        /* \"#utility.yul\":9810:9814   */\n      0x20\n        /* \"#utility.yul\":9804:9808   */\n      dup2\n        /* \"#utility.yul\":9800:9815   */\n      add\n        /* \"#utility.yul\":9792:9815   */\n      swap1\n      pop\n        /* \"#utility.yul\":9514:9822   */\n      swap2\n      swap1\n      pop\n      jump\t// out\n        /* \"#utility.yul\":9828:9974   */\n    tag_168:\n        /* \"#utility.yul\":9925:9931   */\n      dup3\n        /* \"#utility.yul\":9920:9923   */\n      dup2\n        /* \"#utility.yul\":9915:9918   */\n      dup4\n        /* \"#utility.yul\":9902:9932   */\n      calldatacopy\n        /* \"#utility.yul\":9966:9967   */\n      0x00\n        /* \"#utility.yul\":9957:9963   */\n      dup4\n        /* \"#utility.yul\":9952:9955   */\n      dup4\n        /* \"#utility.yul\":9948:9964   */\n      add\n        /* \"#utility.yul\":9941:9968   */\n      mstore\n        /* \"#utility.yul\":9828:9974   */\n      pop\n      pop\n      pop\n      jump\t// out\n        /* \"#utility.yul\":9980:10405   */\n    tag_169:\n        /* \"#utility.yul\":10058:10063   */\n      0x00\n        /* \"#utility.yul\":10083:10149   */\n      tag_307\n        /* \"#utility.yul\":10099:10148   */\n      tag_308\n        /* \"#utility.yul\":10141:10147   */\n      dup5\n        /* \"#utility.yul\":10099:10148   */\n      tag_167\n      jump\t// in\n    tag_308:\n        /* \"#utility.yul\":10083:10149   */\n      tag_166\n      jump\t// in\n    tag_307:\n        /* \"#utility.yul\":10074:10149   */\n      swap1\n      pop\n        /* \"#utility.yul\":10172:10178   */\n      dup3\n        /* \"#utility.yul\":10165:10170   */\n      dup2\n        /* \"#utility.yul\":10158:10179   */\n      mstore\n        /* \"#utility.yul\":10210:10214   */\n      0x20\n        /* \"#utility.yul\":10203:10208   */\n      dup2\n        /* \"#utility.yul\":10199:10215   */\n      add\n        /* \"#utility.yul\":10248:10251   */\n      dup5\n        /* \"#utility.yul\":10239:10245   */\n      dup5\n        /* \"#utility.yul\":10234:10237   */\n      dup5\n        /* \"#utility.yul\":10230:10246   */\n      add\n        /* \"#utility.yul\":10227:10252   */\n      gt\n        /* \"#utility.yul\":10224:10336   */\n      iszero\n      tag_309\n      jumpi\n        /* \"#utility.yul\":10255:10334   */\n      tag_310\n      tag_164\n      jump\t// in\n    tag_310:\n        /* \"#utility.yul\":10224:10336   */\n    tag_309:\n        /* \"#utility.yul\":10345:10399   */\n      tag_311\n        /* \"#utility.yul\":10392:10398   */\n      dup5\n        /* \"#utility.yul\":10387:10390   */\n      dup3\n        /* \"#utility.yul\":10382:10385   */\n      dup6\n        /* \"#utility.yul\":10345:10399   */\n      tag_168\n      jump\t// in\n    tag_311:\n        /* \"#utility.yul\":10064:10405   */\n      pop\n        /* \"#utility.yul\":9980:10405   */\n      swap4\n      swap3\n      pop\n      pop\n      pop\n      jump\t// out\n        /* \"#utility.yul\":10425:10765   */\n    tag_170:\n        /* \"#utility.yul\":10481:10486   */\n      0x00\n        /* \"#utility.yul\":10530:10533   */\n      dup3\n        /* \"#utility.yul\":10523:10527   */\n      0x1f\n        /* \"#utility.yul\":10515:10521   */\n      dup4\n        /* \"#utility.yul\":10511:10528   */\n      add\n        /* \"#utility.yul\":10507:10534   */\n      slt\n        /* \"#utility.yul\":10497:10619   */\n      tag_313\n      jumpi\n        /* \"#utility.yul\":10538:10617   */\n      tag_314\n      tag_163\n      jump\t// in\n    tag_314:\n        /* \"#utility.yul\":10497:10619   */\n    tag_313:\n        /* \"#utility.yul\":10655:10661   */\n      dup2\n        /* \"#utility.yul\":10642:10662   */\n      calldataload\n        /* \"#utility.yul\":10680:10759   */\n      tag_315\n        /* \"#utility.yul\":10755:10758   */\n      dup5\n        /* \"#utility.yul\":10747:10753   */\n      dup3\n        /* \"#utility.yul\":10740:10744   */\n      0x20\n        /* \"#utility.yul\":10732:10738   */\n      dup7\n        /* \"#utility.yul\":10728:10745   */\n      add\n        /* \"#utility.yul\":10680:10759   */\n      tag_169\n      jump\t// in\n    tag_315:\n        /* \"#utility.yul\":10671:10759   */\n      swap2\n      pop\n        /* \"#utility.yul\":10487:10765   */\n      pop\n        /* \"#utility.yul\":10425:10765   */\n      swap3\n      swap2\n      pop\n      pop\n      jump\t// out\n        /* \"#utility.yul\":10771:11280   */\n    tag_41:\n        /* \"#utility.yul\":10840:10846   */\n      0x00\n        /* \"#utility.yul\":10889:10891   */\n      0x20\n        /* \"#utility.yul\":10877:10886   */\n      dup3\n        /* \"#utility.yul\":10868:10875   */\n      dup5\n        /* \"#utility.yul\":10864:10887   */\n      sub\n        /* \"#utility.yul\":10860:10892   */\n      slt\n        /* \"#utility.yul\":10857:10976   */\n      iszero\n      tag_317\n      jumpi\n        /* \"#utility.yul\":10895:10974   */\n      tag_318\n      tag_150\n      jump\t// in\n    tag_318:\n        /* \"#utility.yul\":10857:10976   */\n    tag_317:\n        /* \"#utility.yul\":11043:11044   */\n      0x00\n        /* \"#utility.yul\":11032:11041   */\n      dup3\n        /* \"#utility.yul\":11028:11045   */\n      add\n        /* \"#utility.yul\":11015:11046   */\n      calldataload\n        /* \"#utility.yul\":11073:11091   */\n      0xffffffffffffffff\n        /* \"#utility.yul\":11065:11071   */\n      dup2\n        /* \"#utility.yul\":11062:11092   */\n      gt\n        /* \"#utility.yul\":11059:11176   */\n      iszero\n      tag_319\n      jumpi\n        /* \"#utility.yul\":11095:11174   */\n      tag_320\n      tag_151\n      jump\t// in\n    tag_320:\n        /* \"#utility.yul\":11059:11176   */\n    tag_319:\n        /* \"#utility.yul\":11200:11263   */\n      tag_321\n        /* \"#utility.yul\":11255:11262   */\n      dup5\n        /* \"#utility.yul\":11246:11252   */\n      dup3\n        /* \"#utility.yul\":11235:11244   */\n      dup6\n        /* \"#utility.yul\":11231:11253   */\n      add\n        /* \"#utility.yul\":11200:11263   */\n      tag_170\n      jump\t// in\n    tag_321:\n        /* \"#utility.yul\":11190:11263   */\n      swap2\n      pop\n        /* \"#utility.yul\":10986:11273   */\n      pop\n        /* \"#utility.yul\":10771:11280   */\n      swap3\n      swap2\n      pop\n      pop\n      jump\t// out\n        /* \"#utility.yul\":11286:11400   */\n    tag_171:\n        /* \"#utility.yul\":11353:11359   */\n      0x00\n        /* \"#utility.yul\":11387:11392   */\n      dup2\n        /* \"#utility.yul\":11381:11393   */\n      mload\n        /* \"#utility.yul\":11371:11393   */\n      swap1\n      pop\n        /* \"#utility.yul\":11286:11400   */\n      swap2\n      swap1\n      pop\n      jump\t// out\n        /* \"#utility.yul\":11406:11590   */\n    tag_172:\n        /* \"#utility.yul\":11505:11516   */\n      0x00\n        /* \"#utility.yul\":11539:11545   */\n      dup3\n        /* \"#utility.yul\":11534:11537   */\n      dup3\n        /* \"#utility.yul\":11527:11546   */\n      mstore\n        /* \"#utility.yul\":11579:11583   */\n      0x20\n        /* \"#utility.yul\":11574:11577   */\n      dup3\n        /* \"#utility.yul\":11570:11584   */\n      add\n        /* \"#utility.yul\":11555:11584   */\n      swap1\n      pop\n        /* \"#utility.yul\":11406:11590   */\n      swap3\n      swap2\n      pop\n      pop\n      jump\t// out\n        /* \"#utility.yul\":11596:11728   */\n    tag_173:\n        /* \"#utility.yul\":11663:11667   */\n      0x00\n        /* \"#utility.yul\":11686:11689   */\n      dup2\n        /* \"#utility.yul\":11678:11689   */\n      swap1\n      pop\n        /* \"#utility.yul\":11716:11720   */\n      0x20\n        /* \"#utility.yul\":11711:11714   */\n      dup3\n        /* \"#utility.yul\":11707:11721   */\n      add\n        /* \"#utility.yul\":11699:11721   */\n      swap1\n      pop\n        /* \"#utility.yul\":11596:11728   */\n      swap2\n      swap1\n      pop\n      jump\t// out\n        /* \"#utility.yul\":11734:11842   */\n    tag_174:\n        /* \"#utility.yul\":11811:11835   */\n      tag_326\n        /* \"#utility.yul\":11829:11834   */\n      dup2\n        /* \"#utility.yul\":11811:11835   */\n      tag_152\n      jump\t// in\n    tag_326:\n        /* \"#utility.yul\":11806:11809   */\n      dup3\n        /* \"#utility.yul\":11799:11836   */\n      mstore\n        /* \"#utility.yul\":11734:11842   */\n      pop\n      pop\n      jump\t// out\n        /* \"#utility.yul\":11848:12027   */\n    tag_175:\n        /* \"#utility.yul\":11917:11927   */\n      0x00\n        /* \"#utility.yul\":11938:11984   */\n      tag_328\n        /* \"#utility.yul\":11980:11983   */\n      dup4\n        /* \"#utility.yul\":11972:11978   */\n      dup4\n        /* \"#utility.yul\":11938:11984   */\n      tag_174\n      jump\t// in\n    tag_328:\n        /* \"#utility.yul\":12016:12020   */\n      0x20\n        /* \"#utility.yul\":12011:12014   */\n      dup4\n        /* \"#utility.yul\":12007:12021   */\n      add\n        /* \"#utility.yul\":11993:12021   */\n      swap1\n      pop\n        /* \"#utility.yul\":11848:12027   */\n      swap3\n      swap2\n      pop\n      pop\n      jump\t// out\n        /* \"#utility.yul\":12033:12146   */\n    tag_176:\n        /* \"#utility.yul\":12103:12107   */\n      0x00\n        /* \"#utility.yul\":12135:12139   */\n      0x20\n        /* \"#utility.yul\":12130:12133   */\n      dup3\n        /* \"#utility.yul\":12126:12140   */\n      add\n        /* \"#utility.yul\":12118:12140   */\n      swap1\n      pop\n        /* \"#utility.yul\":12033:12146   */\n      swap2\n      swap1\n      pop\n      jump\t// out\n        /* \"#utility.yul\":12182:12914   */\n    tag_177:\n        /* \"#utility.yul\":12301:12304   */\n      0x00\n        /* \"#utility.yul\":12330:12384   */\n      tag_331\n        /* \"#utility.yul\":12378:12383   */\n      dup3\n        /* \"#utility.yul\":12330:12384   */\n      tag_171\n      jump\t// in\n    tag_331:\n        /* \"#utility.yul\":12400:12486   */\n      tag_332\n        /* \"#utility.yul\":12479:12485   */\n      dup2\n        /* \"#utility.yul\":12474:12477   */\n      dup6\n        /* \"#utility.yul\":12400:12486   */\n      tag_172\n      jump\t// in\n    tag_332:\n        /* \"#utility.yul\":12393:12486   */\n      swap4\n      pop\n        /* \"#utility.yul\":12510:12566   */\n      tag_333\n        /* \"#utility.yul\":12560:12565   */\n      dup4\n        /* \"#utility.yul\":12510:12566   */\n      tag_173\n      jump\t// in\n    tag_333:\n        /* \"#utility.yul\":12589:12596   */\n      dup1\n        /* \"#utility.yul\":12620:12621   */\n      0x00\n        /* \"#utility.yul\":12605:12889   */\n    tag_334:\n        /* \"#utility.yul\":12630:12636   */\n      dup4\n        /* \"#utility.yul\":12627:12628   */\n      dup2\n        /* \"#utility.yul\":12624:12637   */\n      lt\n        /* \"#utility.yul\":12605:12889   */\n      iszero\n      tag_336\n      jumpi\n        /* \"#utility.yul\":12706:12712   */\n      dup2\n        /* \"#utility.yul\":12700:12713   */\n      mload\n        /* \"#utility.yul\":12733:12796   */\n      tag_337\n        /* \"#utility.yul\":12792:12795   */\n      dup9\n        /* \"#utility.yul\":12777:12790   */\n      dup3\n        /* \"#utility.yul\":12733:12796   */\n      tag_175\n      jump\t// in\n    tag_337:\n        /* \"#utility.yul\":12726:12796   */\n      swap8\n      pop\n        /* \"#utility.yul\":12819:12879   */\n      tag_338\n        /* \"#utility.yul\":12872:12878   */\n      dup4\n        /* \"#utility.yul\":12819:12879   */\n      tag_176\n      jump\t// in\n    tag_338:\n        /* \"#utility.yul\":12809:12879   */\n      swap3\n      pop\n        /* \"#utility.yul\":12665:12889   */\n      pop\n        /* \"#utility.yul\":12652:12653   */\n      0x01\n        /* \"#utility.yul\":12649:12650   */\n      dup2\n        /* \"#utility.yul\":12645:12654   */\n      add\n        /* \"#utility.yul\":12640:12654   */\n      swap1\n      pop\n        /* \"#utility.yul\":12605:12889   */\n      jump(tag_334)\n    tag_336:\n        /* \"#utility.yul\":12609:12623   */\n      pop\n        /* \"#utility.yul\":12905:12908   */\n      dup6\n        /* \"#utility.yul\":12898:12908   */\n      swap4\n      pop\n        /* \"#utility.yul\":12306:12914   */\n      pop\n      pop\n      pop\n        /* \"#utility.yul\":12182:12914   */\n      swap3\n      swap2\n      pop\n      pop\n      jump\t// out\n        /* \"#utility.yul\":12920:13293   */\n    tag_47:\n        /* \"#utility.yul\":13063:13067   */\n      0x00\n        /* \"#utility.yul\":13101:13103   */\n      0x20\n        /* \"#utility.yul\":13090:13099   */\n      dup3\n        /* \"#utility.yul\":13086:13104   */\n      add\n        /* \"#utility.yul\":13078:13104   */\n      swap1\n      pop\n        /* \"#utility.yul\":13150:13159   */\n      dup2\n        /* \"#utility.yul\":13144:13148   */\n      dup2\n        /* \"#utility.yul\":13140:13160   */\n      sub\n        /* \"#utility.yul\":13136:13137   */\n      0x00\n        /* \"#utility.yul\":13125:13134   */\n      dup4\n        /* \"#utility.yul\":13121:13138   */\n      add\n        /* \"#utility.yul\":13114:13161   */\n      mstore\n        /* \"#utility.yul\":13178:13286   */\n      tag_340\n        /* \"#utility.yul\":13281:13285   */\n      dup2\n        /* \"#utility.yul\":13272:13278   */\n      dup5\n        /* \"#utility.yul\":13178:13286   */\n      tag_177\n      jump\t// in\n    tag_340:\n        /* \"#utility.yul\":13170:13286   */\n      swap1\n      pop\n        /* \"#utility.yul\":12920:13293   */\n      swap3\n      swap2\n      pop\n      pop\n      jump\t// out\n        /* \"#utility.yul\":13299:13521   */\n    tag_51:\n        /* \"#utility.yul\":13392:13396   */\n      0x00\n        /* \"#utility.yul\":13430:13432   */\n      0x20\n        /* \"#utility.yul\":13419:13428   */\n      dup3\n        /* \"#utility.yul\":13415:13433   */\n      add\n        /* \"#utility.yul\":13407:13433   */\n      swap1\n      pop\n        /* \"#utility.yul\":13443:13514   */\n      tag_342\n        /* \"#utility.yul\":13511:13512   */\n      0x00\n        /* \"#utility.yul\":13500:13509   */\n      dup4\n        /* \"#utility.yul\":13496:13513   */\n      add\n        /* \"#utility.yul\":13487:13493   */\n      dup5\n        /* \"#utility.yul\":13443:13514   */\n      tag_156\n      jump\t// in\n    tag_342:\n        /* \"#utility.yul\":13299:13521   */\n      swap3\n      swap2\n      pop\n      pop\n      jump\t// out\n        /* \"#utility.yul\":13527:14001   */\n    tag_60:\n        /* \"#utility.yul\":13595:13601   */\n      0x00\n        /* \"#utility.yul\":13603:13609   */\n      dup1\n        /* \"#utility.yul\":13652:13654   */\n      0x40\n        /* \"#utility.yul\":13640:13649   */\n      dup4\n        /* \"#utility.yul\":13631:13638   */\n      dup6\n        /* \"#utility.yul\":13627:13650   */\n      sub\n        /* \"#utility.yul\":13623:13655   */\n      slt\n        /* \"#utility.yul\":13620:13739   */\n      iszero\n      tag_344\n      jumpi\n        /* \"#utility.yul\":13658:13737   */\n      tag_345\n      tag_150\n      jump\t// in\n    tag_345:\n        /* \"#utility.yul\":13620:13739   */\n    tag_344:\n        /* \"#utility.yul\":13778:13779   */\n      0x00\n        /* \"#utility.yul\":13803:13856   */\n      tag_346\n        /* \"#utility.yul\":13848:13855   */\n      dup6\n        /* \"#utility.yul\":13839:13845   */\n      dup3\n        /* \"#utility.yul\":13828:13837   */\n      dup7\n        /* \"#utility.yul\":13824:13846   */\n      add\n        /* \"#utility.yul\":13803:13856   */\n      tag_160\n      jump\t// in\n    tag_346:\n        /* \"#utility.yul\":13793:13856   */\n      swap3\n      pop\n        /* \"#utility.yul\":13749:13866   */\n      pop\n        /* \"#utility.yul\":13905:13907   */\n      0x20\n        /* \"#utility.yul\":13931:13984   */\n      tag_347\n        /* \"#utility.yul\":13976:13983   */\n      dup6\n        /* \"#utility.yul\":13967:13973   */\n      dup3\n        /* \"#utility.yul\":13956:13965   */\n      dup7\n        /* \"#utility.yul\":13952:13974   */\n      add\n        /* \"#utility.yul\":13931:13984   */\n      tag_154\n      jump\t// in\n    tag_347:\n        /* \"#utility.yul\":13921:13984   */\n      swap2\n      pop\n        /* \"#utility.yul\":13876:13994   */\n      pop\n        /* \"#utility.yul\":13527:14001   */\n      swap3\n      pop\n      swap3\n      swap1\n      pop\n      jump\t// out\n        /* \"#utility.yul\":14007:14187   */\n    tag_76:\n        /* \"#utility.yul\":14055:14132   */\n      0x4e487b7100000000000000000000000000000000000000000000000000000000\n        /* \"#utility.yul\":14052:14053   */\n      0x00\n        /* \"#utility.yul\":14045:14133   */\n      mstore\n        /* \"#utility.yul\":14152:14156   */\n      0x32\n        /* \"#utility.yul\":14149:14150   */\n      0x04\n        /* \"#utility.yul\":14142:14157   */\n      mstore\n        /* \"#utility.yul\":14176:14180   */\n      0x24\n        /* \"#utility.yul\":14173:14174   */\n      0x00\n        /* \"#utility.yul\":14166:14181   */\n      revert\n        /* \"#utility.yul\":14193:14373   */\n    tag_178:\n        /* \"#utility.yul\":14241:14318   */\n      0x4e487b7100000000000000000000000000000000000000000000000000000000\n        /* \"#utility.yul\":14238:14239   */\n      0x00\n        /* \"#utility.yul\":14231:14319   */\n      mstore\n        /* \"#utility.yul\":14338:14342   */\n      0x22\n        /* \"#utility.yul\":14335:14336   */\n      0x04\n        /* \"#utility.yul\":14328:14343   */\n      mstore\n        /* \"#utility.yul\":14362:14366   */\n      0x24\n        /* \"#utility.yul\":14359:14360   */\n      0x00\n        /* \"#utility.yul\":14352:14367   */\n      revert\n        /* \"#utility.yul\":14379:14699   */\n    tag_79:\n        /* \"#utility.yul\":14423:14429   */\n      0x00\n        /* \"#utility.yul\":14460:14461   */\n      0x02\n        /* \"#utility.yul\":14454:14458   */\n      dup3\n        /* \"#utility.yul\":14450:14462   */\n      div\n        /* \"#utility.yul\":14440:14462   */\n      swap1\n      pop\n        /* \"#utility.yul\":14507:14508   */\n      0x01\n        /* \"#utility.yul\":14501:14505   */\n      dup3\n        /* \"#utility.yul\":14497:14509   */\n      and\n        /* \"#utility.yul\":14528:14546   */\n      dup1\n        /* \"#utility.yul\":14518:14599   */\n      tag_351\n      jumpi\n        /* \"#utility.yul\":14584:14588   */\n      0x7f\n        /* \"#utility.yul\":14576:14582   */\n      dup3\n        /* \"#utility.yul\":14572:14589   */\n      and\n        /* \"#utility.yul\":14562:14589   */\n      swap2\n      pop\n        /* \"#utility.yul\":14518:14599   */\n    tag_351:\n        /* \"#utility.yul\":14646:14648   */\n      0x20\n        /* \"#utility.yul\":14638:14644   */\n      dup3\n        /* \"#utility.yul\":14635:14649   */\n      lt\n        /* \"#utility.yul\":14615:14633   */\n      dup2\n        /* \"#utility.yul\":14612:14650   */\n      sub\n        /* \"#utility.yul\":14609:14693   */\n      tag_352\n      jumpi\n        /* \"#utility.yul\":14665:14683   */\n      tag_353\n      tag_178\n      jump\t// in\n    tag_353:\n        /* \"#utility.yul\":14609:14693   */\n    tag_352:\n        /* \"#utility.yul\":14430:14699   */\n      pop\n        /* \"#utility.yul\":14379:14699   */\n      swap2\n      swap1\n      pop\n      jump\t// out\n        /* \"#utility.yul\":14705:14885   */\n    tag_179:\n        /* \"#utility.yul\":14753:14830   */\n      0x4e487b7100000000000000000000000000000000000000000000000000000000\n        /* \"#utility.yul\":14750:14751   */\n      0x00\n        /* \"#utility.yul\":14743:14831   */\n      mstore\n        /* \"#utility.yul\":14850:14854   */\n      0x11\n        /* \"#utility.yul\":14847:14848   */\n      0x04\n        /* \"#utility.yul\":14840:14855   */\n      mstore\n        /* \"#utility.yul\":14874:14878   */\n      0x24\n        /* \"#utility.yul\":14871:14872   */\n      0x00\n        /* \"#utility.yul\":14864:14879   */\n      revert\n        /* \"#utility.yul\":14891:15124   */\n    tag_87:\n        /* \"#utility.yul\":14930:14933   */\n      0x00\n        /* \"#utility.yul\":14953:14977   */\n      tag_356\n        /* \"#utility.yul\":14971:14976   */\n      dup3\n        /* \"#utility.yul\":14953:14977   */\n      tag_152\n      jump\t// in\n    tag_356:\n        /* \"#utility.yul\":14944:14977   */\n      swap2\n      pop\n        /* \"#utility.yul\":14999:15065   */\n      0xffffffffffffffffffffffffffffffffffffffffffffffffffffffffffffffff\n        /* \"#utility.yul\":14992:14997   */\n      dup3\n        /* \"#utility.yul\":14989:15066   */\n      sub\n        /* \"#utility.yul\":14986:15089   */\n      tag_357\n      jumpi\n        /* \"#utility.yul\":15069:15087   */\n      tag_358\n      tag_179\n      jump\t// in\n    tag_358:\n        /* \"#utility.yul\":14986:15089   */\n    tag_357:\n        /* \"#utility.yul\":15116:15117   */\n      0x01\n        /* \"#utility.yul\":15109:15114   */\n      dup3\n        /* \"#utility.yul\":15105:15118   */\n      add\n        /* \"#utility.yul\":15098:15118   */\n      swap1\n      pop\n        /* \"#utility.yul\":14891:15124   */\n      swap2\n      swap1\n      pop\n      jump\t// out\n        /* \"#utility.yul\":15130:15353   */\n    tag_180:\n        /* \"#utility.yul\":15270:15304   */\n      0x596f7520617265206e6f7420746865206f776e6572206f66207468697320636f\n        /* \"#utility.yul\":15266:15267   */\n      0x00\n        /* \"#utility.yul\":15258:15264   */\n      dup3\n        /* \"#utility.yul\":15254:15268   */\n      add\n        /* \"#utility.yul\":15247:15305   */\n      mstore\n        /* \"#utility.yul\":15339:15345   */\n      0x75706f6e00000000000000000000000000000000000000000000000000000000\n        /* \"#utility.yul\":15334:15336   */\n      0x20\n        /* \"#utility.yul\":15326:15332   */\n      dup3\n        /* \"#utility.yul\":15322:15337   */\n      add\n        /* \"#utility.yul\":15315:15346   */\n      mstore\n        /* \"#utility.yul\":15130:15353   */\n      pop\n      jump\t// out\n        /* \"#utility.yul\":15359:15725   */\n    tag_181:\n        /* \"#utility.yul\":15501:15504   */\n      0x00\n        /* \"#utility.yul\":15522:15589   */\n      tag_361\n        /* \"#utility.yul\":15586:15588   */\n      0x24\n        /* \"#utility.yul\":15581:15584   */\n      dup4\n        /* \"#utility.yul\":15522:15589   */\n      tag_161\n      jump\t// in\n    tag_361:\n        /* \"#utility.yul\":15515:15589   */\n      swap2\n      pop\n        /* \"#utility.yul\":15598:15691   */\n      tag_362\n        /* \"#utility.yul\":15687:15690   */\n      dup3\n        /* \"#utility.yul\":15598:15691   */\n      tag_180\n      jump\t// in\n    tag_362:\n        /* \"#utility.yul\":15716:15718   */\n      0x40\n        /* \"#utility.yul\":15711:15714   */\n      dup3\n        /* \"#utility.yul\":15707:15719   */\n      add\n        /* \"#utility.yul\":15700:15719   */\n      swap1\n      pop\n        /* \"#utility.yul\":15359:15725   */\n      swap2\n      swap1\n      pop\n      jump\t// out\n        /* \"#utility.yul\":15731:16150   */\n    tag_93:\n        /* \"#utility.yul\":15897:15901   */\n      0x00\n        /* \"#utility.yul\":15935:15937   */\n      0x20\n        /* \"#utility.yul\":15924:15933   */\n      dup3\n        /* \"#utility.yul\":15920:15938   */\n      add\n        /* \"#utility.yul\":15912:15938   */\n      swap1\n      pop\n        /* \"#utility.yul\":15984:15993   */\n      dup2\n        /* \"#utility.yul\":15978:15982   */\n      dup2\n        /* \"#utility.yul\":15974:15994   */\n      sub\n        /* \"#utility.yul\":15970:15971   */\n      0x00\n        /* \"#utility.yul\":15959:15968   */\n      dup4\n        /* \"#utility.yul\":15955:15972   */\n      add\n        /* \"#utility.yul\":15948:15995   */\n      mstore\n        /* \"#utility.yul\":16012:16143   */\n      tag_364\n        /* \"#utility.yul\":16138:16142   */\n      dup2\n        /* \"#utility.yul\":16012:16143   */\n      tag_181\n      jump\t// in\n    tag_364:\n        /* \"#utility.yul\":16004:16143   */\n      swap1\n      pop\n        /* \"#utility.yul\":15731:16150   */\n      swap2\n      swap1\n      pop\n      jump\t// out\n        /* \"#utility.yul\":16156:16329   */\n    tag_182:\n        /* \"#utility.yul\":16296:16321   */\n      0x436f75706f6e20616c72656164792072656465656d6564000000000000000000\n        /* \"#utility.yul\":16292:16293   */\n      0x00\n        /* \"#utility.yul\":16284:16290   */\n      dup3\n        /* \"#utility.yul\":16280:16294   */\n      add\n        /* \"#utility.yul\":16273:16322   */\n      mstore\n        /* \"#utility.yul\":16156:16329   */\n      pop\n      jump\t// out\n        /* \"#utility.yul\":16335:16701   */\n    tag_183:\n        /* \"#utility.yul\":16477:16480   */\n      0x00\n        /* \"#utility.yul\":16498:16565   */\n      tag_367\n        /* \"#utility.yul\":16562:16564   */\n      0x17\n        /* \"#utility.yul\":16557:16560   */\n      dup4\n        /* \"#utility.yul\":16498:16565   */\n      tag_161\n      jump\t// in\n    tag_367:\n        /* \"#utility.yul\":16491:16565   */\n      swap2\n      pop\n        /* \"#utility.yul\":16574:16667   */\n      tag_368\n        /* \"#utility.yul\":16663:16666   */\n      dup3\n        /* \"#utility.yul\":16574:16667   */\n      tag_182\n      jump\t// in\n    tag_368:\n        /* \"#utility.yul\":16692:16694   */\n      0x20\n        /* \"#utility.yul\":16687:16690   */\n      dup3\n        /* \"#utility.yul\":16683:16695   */\n      add\n        /* \"#utility.yul\":16676:16695   */\n      swap1\n      pop\n        /* \"#utility.yul\":16335:16701   */\n      swap2\n      swap1\n      pop\n      jump\t// out\n        /* \"#utility.yul\":16707:17126   */\n    tag_96:\n        /* \"#utility.yul\":16873:16877   */\n      0x00\n        /* \"#utility.yul\":16911:16913   */\n      0x20\n        /* \"#utility.yul\":16900:16909   */\n      dup3\n        /* \"#utility.yul\":16896:16914   */\n      add\n        /* \"#utility.yul\":16888:16914   */\n      swap1\n      pop\n        /* \"#utility.yul\":16960:16969   */\n      dup2\n        /* \"#utility.yul\":16954:16958   */\n      dup2\n        /* \"#utility.yul\":16950:16970   */\n      sub\n        /* \"#utility.yul\":16946:16947   */\n      0x00\n        /* \"#utility.yul\":16935:16944   */\n      dup4\n        /* \"#utility.yul\":16931:16948   */\n      add\n        /* \"#utility.yul\":16924:16971   */\n      mstore\n        /* \"#utility.yul\":16988:17119   */\n      tag_370\n        /* \"#utility.yul\":17114:17118   */\n      dup2\n        /* \"#utility.yul\":16988:17119   */\n      tag_183\n      jump\t// in\n    tag_370:\n        /* \"#utility.yul\":16980:17119   */\n      swap1\n      pop\n        /* \"#utility.yul\":16707:17126   */\n      swap2\n      swap1\n      pop\n      jump\t// out\n        /* \"#utility.yul\":17132:17363   */\n    tag_184:\n        /* \"#utility.yul\":17272:17306   */\n      0x4f7267616e697a6174696f6e20616c72656164792065786973747320666f7220\n        /* \"#utility.yul\":17268:17269   */\n      0x00\n        /* \"#utility.yul\":17260:17266   */\n      dup3\n        /* \"#utility.yul\":17256:17270   */\n      add\n        /* \"#utility.yul\":17249:17307   */\n      mstore\n        /* \"#utility.yul\":17341:17355   */\n      0x7468697320616464726573730000000000000000000000000000000000000000\n        /* \"#utility.yul\":17336:17338   */\n      0x20\n        /* \"#utility.yul\":17328:17334   */\n      dup3\n        /* \"#utility.yul\":17324:17339   */\n      add\n        /* \"#utility.yul\":17317:17356   */\n      mstore\n        /* \"#utility.yul\":17132:17363   */\n      pop\n      jump\t// out\n        /* \"#utility.yul\":17369:17735   */\n    tag_185:\n        /* \"#utility.yul\":17511:17514   */\n      0x00\n        /* \"#utility.yul\":17532:17599   */\n      tag_373\n        /* \"#utility.yul\":17596:17598   */\n      0x2c\n        /* \"#utility.yul\":17591:17594   */\n      dup4\n        /* \"#utility.yul\":17532:17599   */\n      tag_161\n      jump\t// in\n    tag_373:\n        /* \"#utility.yul\":17525:17599   */\n      swap2\n      pop\n        /* \"#utility.yul\":17608:17701   */\n      tag_374\n        /* \"#utility.yul\":17697:17700   */\n      dup3\n        /* \"#utility.yul\":17608:17701   */\n      tag_184\n      jump\t// in\n    tag_374:\n        /* \"#utility.yul\":17726:17728   */\n      0x40\n        /* \"#utility.yul\":17721:17724   */\n      dup3\n        /* \"#utility.yul\":17717:17729   */\n      add\n        /* \"#utility.yul\":17710:17729   */\n      swap1\n      pop\n        /* \"#utility.yul\":17369:17735   */\n      swap2\n      swap1\n      pop\n      jump\t// out\n        /* \"#utility.yul\":17741:18160   */\n    tag_106:\n        /* \"#utility.yul\":17907:17911   */\n      0x00\n        /* \"#utility.yul\":17945:17947   */\n      0x20\n        /* \"#utility.yul\":17934:17943   */\n      dup3\n        /* \"#utility.yul\":17930:17948   */\n      add\n        /* \"#utility.yul\":17922:17948   */\n      swap1\n      pop\n        /* \"#utility.yul\":17994:18003   */\n      dup2\n        /* \"#utility.yul\":17988:17992   */\n      dup2\n        /* \"#utility.yul\":17984:18004   */\n      sub\n        /* \"#utility.yul\":17980:17981   */\n      0x00\n        /* \"#utility.yul\":17969:17978   */\n      dup4\n        /* \"#utility.yul\":17965:17982   */\n      add\n        /* \"#utility.yul\":17958:18005   */\n      mstore\n        /* \"#utility.yul\":18022:18153   */\n      tag_376\n        /* \"#utility.yul\":18148:18152   */\n      dup2\n        /* \"#utility.yul\":18022:18153   */\n      tag_185\n      jump\t// in\n    tag_376:\n        /* \"#utility.yul\":18014:18153   */\n      swap1\n      pop\n        /* \"#utility.yul\":17741:18160   */\n      swap2\n      swap1\n      pop\n      jump\t// out\n        /* \"#utility.yul\":18166:18307   */\n    tag_186:\n        /* \"#utility.yul\":18215:18219   */\n      0x00\n        /* \"#utility.yul\":18238:18241   */\n      dup2\n        /* \"#utility.yul\":18230:18241   */\n      swap1\n      pop\n        /* \"#utility.yul\":18261:18264   */\n      dup2\n        /* \"#utility.yul\":18258:18259   */\n      0x00\n        /* \"#utility.yul\":18251:18265   */\n      mstore\n        /* \"#utility.yul\":18295:18299   */\n      0x20\n        /* \"#utility.yul\":18292:18293   */\n      0x00\n        /* \"#utility.yul\":18282:18300   */\n      keccak256\n        /* \"#utility.yul\":18274:18300   */\n      swap1\n      pop\n        /* \"#utility.yul\":18166:18307   */\n      swap2\n      swap1\n      pop\n      jump\t// out\n        /* \"#utility.yul\":18313:18406   */\n    tag_187:\n        /* \"#utility.yul\":18350:18356   */\n      0x00\n        /* \"#utility.yul\":18397:18399   */\n      0x20\n        /* \"#utility.yul\":18392:18394   */\n      0x1f\n        /* \"#utility.yul\":18385:18390   */\n      dup4\n        /* \"#utility.yul\":18381:18395   */\n      add\n        /* \"#utility.yul\":18377:18400   */\n      div\n        /* \"#utility.yul\":18367:18400   */\n      swap1\n      pop\n        /* \"#utility.yul\":18313:18406   */\n      swap2\n      swap1\n      pop\n      jump\t// out\n        /* \"#utility.yul\":18412:18519   */\n    tag_188:\n        /* \"#utility.yul\":18456:18464   */\n      0x00\n        /* \"#utility.yul\":18506:18511   */\n      dup3\n        /* \"#utility.yul\":18500:18504   */\n      dup3\n        /* \"#utility.yul\":18496:18512   */\n      shl\n        /* \"#utility.yul\":18475:18512   */\n      swap1\n      pop\n        /* \"#utility.yul\":18412:18519   */\n      swap3\n      swap2\n      pop\n      pop\n      jump\t// out\n        /* \"#utility.yul\":18525:18918   */\n    tag_189:\n        /* \"#utility.yul\":18594:18600   */\n      0x00\n        /* \"#utility.yul\":18644:18645   */\n      0x08\n        /* \"#utility.yul\":18632:18642   */\n      dup4\n        /* \"#utility.yul\":18628:18646   */\n      mul\n        /* \"#utility.yul\":18667:18764   */\n      tag_381\n        /* \"#utility.yul\":18697:18763   */\n      0xffffffffffffffffffffffffffffffffffffffffffffffffffffffffffffffff\n        /* \"#utility.yul\":18686:18695   */\n      dup3\n        /* \"#utility.yul\":18667:18764   */\n      tag_188\n      jump\t// in\n    tag_381:\n        /* \"#utility.yul\":18785:18824   */\n      tag_382\n        /* \"#utility.yul\":18815:18823   */\n      dup7\n        /* \"#utility.yul\":18804:18813   */\n      dup4\n        /* \"#utility.yul\":18785:18824   */\n      tag_188\n      jump\t// in\n    tag_382:\n        /* \"#utility.yul\":18773:18824   */\n      swap6\n      pop\n        /* \"#utility.yul\":18857:18861   */\n      dup1\n        /* \"#utility.yul\":18853:18862   */\n      not\n        /* \"#utility.yul\":18846:18851   */\n      dup5\n        /* \"#utility.yul\":18842:18863   */\n      and\n        /* \"#utility.yul\":18833:18863   */\n      swap4\n      pop\n        /* \"#utility.yul\":18906:18910   */\n      dup1\n        /* \"#utility.yul\":18896:18904   */\n      dup7\n        /* \"#utility.yul\":18892:18911   */\n      and\n        /* \"#utility.yul\":18885:18890   */\n      dup5\n        /* \"#utility.yul\":18882:18912   */\n      or\n        /* \"#utility.yul\":18872:18912   */\n      swap3\n      pop\n        /* \"#utility.yul\":18601:18918   */\n      pop\n      pop\n        /* \"#utility.yul\":18525:18918   */\n      swap4\n      swap3\n      pop\n      pop\n      pop\n      jump\t// out\n        /* \"#utility.yul\":18924:18984   */\n    tag_190:\n        /* \"#utility.yul\":18952:18955   */\n      0x00\n        /* \"#utility.yul\":18973:18978   */\n      dup2\n        /* \"#utility.yul\":18966:18978   */\n      swap1\n      pop\n        /* \"#utility.yul\":18924:18984   */\n      swap2\n      swap1\n      pop\n      jump\t// out\n        /* \"#utility.yul\":18990:19132   */\n    tag_191:\n        /* \"#utility.yul\":19040:19049   */\n      0x00\n        /* \"#utility.yul\":19073:19126   */\n      tag_385\n        /* \"#utility.yul\":19091:19125   */\n      tag_386\n        /* \"#utility.yul\":19100:19124   */\n      tag_387\n        /* \"#utility.yul\":19118:19123   */\n      dup5\n        /* \"#utility.yul\":19100:19124   */\n      tag_152\n      jump\t// in\n    tag_387:\n        /* \"#utility.yul\":19091:19125   */\n      tag_190\n      jump\t// in\n    tag_386:\n        /* \"#utility.yul\":19073:19126   */\n      tag_152\n      jump\t// in\n    tag_385:\n        /* \"#utility.yul\":19060:19126   */\n      swap1\n      pop\n        /* \"#utility.yul\":18990:19132   */\n      swap2\n      swap1\n      pop\n      jump\t// out\n        /* \"#utility.yul\":19138:19213   */\n    tag_192:\n        /* \"#utility.yul\":19181:19184   */\n      0x00\n        /* \"#utility.yul\":19202:19207   */\n      dup2\n        /* \"#utility.yul\":19195:19207   */\n      swap1\n      pop\n        /* \"#utility.yul\":19138:19213   */\n      swap2\n      swap1\n      pop\n      jump\t// out\n        /* \"#utility.yul\":19219:19488   */\n    tag_193:\n        /* \"#utility.yul\":19329:19368   */\n      tag_390\n        /* \"#utility.yul\":19360:19367   */\n      dup4\n        /* \"#utility.yul\":19329:19368   */\n      tag_191\n      jump\t// in\n    tag_390:\n        /* \"#utility.yul\":19390:19481   */\n      tag_391\n        /* \"#utility.yul\":19439:19480   */\n      tag_392\n        /* \"#utility.yul\":19463:19479   */\n      dup3\n        /* \"#utility.yul\":19439:19480   */\n      tag_192\n      jump\t// in\n    tag_392:\n        /* \"#utility.yul\":19431:19437   */\n      dup5\n        /* \"#utility.yul\":19424:19428   */\n      dup5\n        /* \"#utility.yul\":19418:19429   */\n      sload\n        /* \"#utility.yul\":19390:19481   */\n      tag_189\n      jump\t// in\n    tag_391:\n        /* \"#utility.yul\":19384:19388   */\n      dup3\n        /* \"#utility.yul\":19377:19482   */\n      sstore\n        /* \"#utility.yul\":19295:19488   */\n      pop\n        /* \"#utility.yul\":19219:19488   */\n      pop\n      pop\n      pop\n      jump\t// out\n        /* \"#utility.yul\":19494:19567   */\n    tag_194:\n        /* \"#utility.yul\":19539:19542   */\n      0x00\n        /* \"#utility.yul\":19494:19567   */\n      swap1\n      jump\t// out\n        /* \"#utility.yul\":19573:19762   */\n    tag_195:\n        /* \"#utility.yul\":19650:19682   */\n      tag_395\n      tag_194\n      jump\t// in\n    tag_395:\n        /* \"#utility.yul\":19691:19756   */\n      tag_396\n        /* \"#utility.yul\":19749:19755   */\n      dup2\n        /* \"#utility.yul\":19741:19747   */\n      dup5\n        /* \"#utility.yul\":19735:19739   */\n      dup5\n        /* \"#utility.yul\":19691:19756   */\n      tag_193\n      jump\t// in\n    tag_396:\n        /* \"#utility.yul\":19626:19762   */\n      pop\n        /* \"#utility.yul\":19573:19762   */\n      pop\n      pop\n      jump\t// out\n        /* \"#utility.yul\":19768:19954   */\n    tag_196:\n        /* \"#utility.yul\":19828:19948   */\n    tag_398:\n        /* \"#utility.yul\":19845:19848   */\n      dup2\n        /* \"#utility.yul\":19838:19843   */\n      dup2\n        /* \"#utility.yul\":19835:19849   */\n      lt\n        /* \"#utility.yul\":19828:19948   */\n      iszero\n      tag_400\n      jumpi\n        /* \"#utility.yul\":19899:19938   */\n      tag_401\n        /* \"#utility.yul\":19936:19937   */\n      0x00\n        /* \"#utility.yul\":19929:19934   */\n      dup3\n        /* \"#utility.yul\":19899:19938   */\n      tag_195\n      jump\t// in\n    tag_401:\n        /* \"#utility.yul\":19872:19873   */\n      0x01\n        /* \"#utility.yul\":19865:19870   */\n      dup2\n        /* \"#utility.yul\":19861:19874   */\n      add\n        /* \"#utility.yul\":19852:19874   */\n      swap1\n      pop\n        /* \"#utility.yul\":19828:19948   */\n      jump(tag_398)\n    tag_400:\n        /* \"#utility.yul\":19768:19954   */\n      pop\n      pop\n      jump\t// out\n        /* \"#utility.yul\":19960:20503   */\n    tag_197:\n        /* \"#utility.yul\":20061:20063   */\n      0x1f\n        /* \"#utility.yul\":20056:20059   */\n      dup3\n        /* \"#utility.yul\":20053:20064   */\n      gt\n        /* \"#utility.yul\":20050:20496   */\n      iszero\n      tag_403\n      jumpi\n        /* \"#utility.yul\":20095:20133   */\n      tag_404\n        /* \"#utility.yul\":20127:20132   */\n      dup2\n        /* \"#utility.yul\":20095:20133   */\n      tag_186\n      jump\t// in\n    tag_404:\n        /* \"#utility.yul\":20179:20208   */\n      tag_405\n        /* \"#utility.yul\":20197:20207   */\n      dup5\n        /* \"#utility.yul\":20179:20208   */\n      tag_187\n      jump\t// in\n    tag_405:\n        /* \"#utility.yul\":20169:20177   */\n      dup2\n        /* \"#utility.yul\":20165:20209   */\n      add\n        /* \"#utility.yul\":20362:20364   */\n      0x20\n        /* \"#utility.yul\":20350:20360   */\n      dup6\n        /* \"#utility.yul\":20347:20365   */\n      lt\n        /* \"#utility.yul\":20344:20393   */\n      iszero\n      tag_406\n      jumpi\n        /* \"#utility.yul\":20383:20391   */\n      dup2\n        /* \"#utility.yul\":20368:20391   */\n      swap1\n      pop\n        /* \"#utility.yul\":20344:20393   */\n    tag_406:\n        /* \"#utility.yul\":20406:20486   */\n      tag_407\n        /* \"#utility.yul\":20462:20484   */\n      tag_408\n        /* \"#utility.yul\":20480:20483   */\n      dup6\n        /* \"#utility.yul\":20462:20484   */\n      tag_187\n      jump\t// in\n    tag_408:\n        /* \"#utility.yul\":20452:20460   */\n      dup4\n        /* \"#utility.yul\":20448:20485   */\n      add\n        /* \"#utility.yul\":20435:20446   */\n      dup3\n        /* \"#utility.yul\":20406:20486   */\n      tag_196\n      jump\t// in\n    tag_407:\n        /* \"#utility.yul\":20065:20496   */\n      pop\n      pop\n        /* \"#utility.yul\":20050:20496   */\n    tag_403:\n        /* \"#utility.yul\":19960:20503   */\n      pop\n      pop\n      pop\n      jump\t// out\n        /* \"#utility.yul\":20509:20626   */\n    tag_198:\n        /* \"#utility.yul\":20563:20571   */\n      0x00\n        /* \"#utility.yul\":20613:20618   */\n      dup3\n        /* \"#utility.yul\":20607:20611   */\n      dup3\n        /* \"#utility.yul\":20603:20619   */\n      shr\n        /* \"#utility.yul\":20582:20619   */\n      swap1\n      pop\n        /* \"#utility.yul\":20509:20626   */\n      swap3\n      swap2\n      pop\n      pop\n      jump\t// out\n        /* \"#utility.yul\":20632:20801   */\n    tag_199:\n        /* \"#utility.yul\":20676:20682   */\n      0x00\n        /* \"#utility.yul\":20709:20760   */\n      tag_411\n        /* \"#utility.yul\":20757:20758   */\n      0x00\n        /* \"#utility.yul\":20753:20759   */\n      not\n        /* \"#utility.yul\":20745:20750   */\n      dup5\n        /* \"#utility.yul\":20742:20743   */\n      0x08\n        /* \"#utility.yul\":20738:20751   */\n      mul\n        /* \"#utility.yul\":20709:20760   */\n      tag_198\n      jump\t// in\n    tag_411:\n        /* \"#utility.yul\":20705:20761   */\n      not\n        /* \"#utility.yul\":20790:20794   */\n      dup1\n        /* \"#utility.yul\":20784:20788   */\n      dup4\n        /* \"#utility.yul\":20780:20795   */\n      and\n        /* \"#utility.yul\":20770:20795   */\n      swap2\n      pop\n        /* \"#utility.yul\":20683:20801   */\n      pop\n        /* \"#utility.yul\":20632:20801   */\n      swap3\n      swap2\n      pop\n      pop\n      jump\t// out\n        /* \"#utility.yul\":20806:21101   */\n    tag_200:\n        /* \"#utility.yul\":20882:20886   */\n      0x00\n        /* \"#utility.yul\":21028:21057   */\n      tag_413\n        /* \"#utility.yul\":21053:21056   */\n      dup4\n        /* \"#utility.yul\":21047:21051   */\n      dup4\n        /* \"#utility.yul\":21028:21057   */\n      tag_199\n      jump\t// in\n    tag_413:\n        /* \"#utility.yul\":21020:21057   */\n      swap2\n      pop\n        /* \"#utility.yul\":21090:21093   */\n      dup3\n        /* \"#utility.yul\":21087:21088   */\n      0x02\n        /* \"#utility.yul\":21083:21094   */\n      mul\n        /* \"#utility.yul\":21077:21081   */\n      dup3\n        /* \"#utility.yul\":21074:21095   */\n      or\n        /* \"#utility.yul\":21066:21095   */\n      swap1\n      pop\n        /* \"#utility.yul\":20806:21101   */\n      swap3\n      swap2\n      pop\n      pop\n      jump\t// out\n        /* \"#utility.yul\":21106:22501   */\n    tag_108:\n        /* \"#utility.yul\":21223:21260   */\n      tag_415\n        /* \"#utility.yul\":21256:21259   */\n      dup3\n        /* \"#utility.yul\":21223:21260   */\n      tag_140\n      jump\t// in\n    tag_415:\n        /* \"#utility.yul\":21325:21343   */\n      0xffffffffffffffff\n        /* \"#utility.yul\":21317:21323   */\n      dup2\n        /* \"#utility.yul\":21314:21344   */\n      gt\n        /* \"#utility.yul\":21311:21367   */\n      iszero\n      tag_416\n      jumpi\n        /* \"#utility.yul\":21347:21365   */\n      tag_417\n      tag_66\n      jump\t// in\n    tag_417:\n        /* \"#utility.yul\":21311:21367   */\n    tag_416:\n        /* \"#utility.yul\":21391:21429   */\n      tag_418\n        /* \"#utility.yul\":21423:21427   */\n      dup3\n        /* \"#utility.yul\":21417:21428   */\n      sload\n        /* \"#utility.yul\":21391:21429   */\n      tag_79\n      jump\t// in\n    tag_418:\n        /* \"#utility.yul\":21476:21543   */\n      tag_419\n        /* \"#utility.yul\":21536:21542   */\n      dup3\n        /* \"#utility.yul\":21528:21534   */\n      dup3\n        /* \"#utility.yul\":21522:21526   */\n      dup6\n        /* \"#utility.yul\":21476:21543   */\n      tag_197\n      jump\t// in\n    tag_419:\n        /* \"#utility.yul\":21570:21571   */\n      0x00\n        /* \"#utility.yul\":21594:21598   */\n      0x20\n        /* \"#utility.yul\":21581:21598   */\n      swap1\n      pop\n        /* \"#utility.yul\":21626:21628   */\n      0x1f\n        /* \"#utility.yul\":21618:21624   */\n      dup4\n        /* \"#utility.yul\":21615:21629   */\n      gt\n        /* \"#utility.yul\":21643:21644   */\n      0x01\n        /* \"#utility.yul\":21638:22256   */\n      dup2\n      eq\n      tag_421\n      jumpi\n        /* \"#utility.yul\":22300:22301   */\n      0x00\n        /* \"#utility.yul\":22317:22323   */\n      dup5\n        /* \"#utility.yul\":22314:22391   */\n      iszero\n      tag_422\n      jumpi\n        /* \"#utility.yul\":22366:22375   */\n      dup3\n        /* \"#utility.yul\":22361:22364   */\n      dup8\n        /* \"#utility.yul\":22357:22376   */\n      add\n        /* \"#utility.yul\":22351:22377   */\n      mload\n        /* \"#utility.yul\":22342:22377   */\n      swap1\n      pop\n        /* \"#utility.yul\":22314:22391   */\n    tag_422:\n        /* \"#utility.yul\":22417:22484   */\n      tag_423\n        /* \"#utility.yul\":22477:22483   */\n      dup6\n        /* \"#utility.yul\":22470:22475   */\n      dup3\n        /* \"#utility.yul\":22417:22484   */\n      tag_200\n      jump\t// in\n    tag_423:\n        /* \"#utility.yul\":22411:22415   */\n      dup7\n        /* \"#utility.yul\":22404:22485   */\n      sstore\n        /* \"#utility.yul\":22273:22495   */\n      pop\n        /* \"#utility.yul\":21608:22495   */\n      jump(tag_420)\n        /* \"#utility.yul\":21638:22256   */\n    tag_421:\n        /* \"#utility.yul\":21690:21694   */\n      0x1f\n        /* \"#utility.yul\":21686:21695   */\n      not\n        /* \"#utility.yul\":21678:21684   */\n      dup5\n        /* \"#utility.yul\":21674:21696   */\n      and\n        /* \"#utility.yul\":21724:21761   */\n      tag_424\n        /* \"#utility.yul\":21756:21760   */\n      dup7\n        /* \"#utility.yul\":21724:21761   */\n      tag_186\n      jump\t// in\n    tag_424:\n        /* \"#utility.yul\":21783:21784   */\n      0x00\n        /* \"#utility.yul\":21797:22005   */\n    tag_425:\n        /* \"#utility.yul\":21811:21818   */\n      dup3\n        /* \"#utility.yul\":21808:21809   */\n      dup2\n        /* \"#utility.yul\":21805:21819   */\n      lt\n        /* \"#utility.yul\":21797:22005   */\n      iszero\n      tag_427\n      jumpi\n        /* \"#utility.yul\":21890:21899   */\n      dup5\n        /* \"#utility.yul\":21885:21888   */\n      dup10\n        /* \"#utility.yul\":21881:21900   */\n      add\n        /* \"#utility.yul\":21875:21901   */\n      mload\n        /* \"#utility.yul\":21867:21873   */\n      dup3\n        /* \"#utility.yul\":21860:21902   */\n      sstore\n        /* \"#utility.yul\":21941:21942   */\n      0x01\n        /* \"#utility.yul\":21933:21939   */\n      dup3\n        /* \"#utility.yul\":21929:21943   */\n      add\n        /* \"#utility.yul\":21919:21943   */\n      swap2\n      pop\n        /* \"#utility.yul\":21988:21990   */\n      0x20\n        /* \"#utility.yul\":21977:21986   */\n      dup6\n        /* \"#utility.yul\":21973:21991   */\n      add\n        /* \"#utility.yul\":21960:21991   */\n      swap5\n      pop\n        /* \"#utility.yul\":21834:21838   */\n      0x20\n        /* \"#utility.yul\":21831:21832   */\n      dup2\n        /* \"#utility.yul\":21827:21839   */\n      add\n        /* \"#utility.yul\":21822:21839   */\n      swap1\n      pop\n        /* \"#utility.yul\":21797:22005   */\n      jump(tag_425)\n    tag_427:\n        /* \"#utility.yul\":22033:22039   */\n      dup7\n        /* \"#utility.yul\":22024:22031   */\n      dup4\n        /* \"#utility.yul\":22021:22040   */\n      lt\n        /* \"#utility.yul\":22018:22197   */\n      iszero\n      tag_428\n      jumpi\n        /* \"#utility.yul\":22091:22100   */\n      dup5\n        /* \"#utility.yul\":22086:22089   */\n      dup10\n        /* \"#utility.yul\":22082:22101   */\n      add\n        /* \"#utility.yul\":22076:22102   */\n      mload\n        /* \"#utility.yul\":22134:22182   */\n      tag_429\n        /* \"#utility.yul\":22176:22180   */\n      0x1f\n        /* \"#utility.yul\":22168:22174   */\n      dup10\n        /* \"#utility.yul\":22164:22181   */\n      and\n        /* \"#utility.yul\":22153:22162   */\n      dup3\n        /* \"#utility.yul\":22134:22182   */\n      tag_199\n      jump\t// in\n    tag_429:\n        /* \"#utility.yul\":22126:22132   */\n      dup4\n        /* \"#utility.yul\":22119:22183   */\n      sstore\n        /* \"#utility.yul\":22041:22197   */\n      pop\n        /* \"#utility.yul\":22018:22197   */\n    tag_428:\n        /* \"#utility.yul\":22243:22244   */\n      0x01\n        /* \"#utility.yul\":22239:22240   */\n      0x02\n        /* \"#utility.yul\":22231:22237   */\n      dup9\n        /* \"#utility.yul\":22227:22241   */\n      mul\n        /* \"#utility.yul\":22223:22245   */\n      add\n        /* \"#utility.yul\":22217:22221   */\n      dup9\n        /* \"#utility.yul\":22210:22246   */\n      sstore\n        /* \"#utility.yul\":21645:22256   */\n      pop\n      pop\n      pop\n        /* \"#utility.yul\":21608:22495   */\n    tag_420:\n      pop\n        /* \"#utility.yul\":21198:22501   */\n      pop\n      pop\n      pop\n        /* \"#utility.yul\":21106:22501   */\n      pop\n      pop\n      jump\t// out\n        /* \"#utility.yul\":22507:22820   */\n    tag_111:\n        /* \"#utility.yul\":22620:22624   */\n      0x00\n        /* \"#utility.yul\":22658:22660   */\n      0x20\n        /* \"#utility.yul\":22647:22656   */\n      dup3\n        /* \"#utility.yul\":22643:22661   */\n      add\n        /* \"#utility.yul\":22635:22661   */\n      swap1\n      pop\n        /* \"#utility.yul\":22707:22716   */\n      dup2\n        /* \"#utility.yul\":22701:22705   */\n      dup2\n        /* \"#utility.yul\":22697:22717   */\n      sub\n        /* \"#utility.yul\":22693:22694   */\n      0x00\n        /* \"#utility.yul\":22682:22691   */\n      dup4\n        /* \"#utility.yul\":22678:22695   */\n      add\n        /* \"#utility.yul\":22671:22718   */\n      mstore\n        /* \"#utility.yul\":22735:22813   */\n      tag_431\n        /* \"#utility.yul\":22808:22812   */\n      dup2\n        /* \"#utility.yul\":22799:22805   */\n      dup5\n        /* \"#utility.yul\":22735:22813   */\n      tag_162\n      jump\t// in\n    tag_431:\n        /* \"#utility.yul\":22727:22813   */\n      swap1\n      pop\n        /* \"#utility.yul\":22507:22820   */\n      swap3\n      swap2\n      pop\n      pop\n      jump\t// out\n        /* \"#utility.yul\":22826:23003   */\n    tag_201:\n        /* \"#utility.yul\":22966:22995   */\n      0x4f7267616e697a6174696f6e20646f6573206e6f742065786973740000000000\n        /* \"#utility.yul\":22962:22963   */\n      0x00\n        /* \"#utility.yul\":22954:22960   */\n      dup3\n        /* \"#utility.yul\":22950:22964   */\n      add\n        /* \"#utility.yul\":22943:22996   */\n      mstore\n        /* \"#utility.yul\":22826:23003   */\n      pop\n      jump\t// out\n        /* \"#utility.yul\":23009:23375   */\n    tag_202:\n        /* \"#utility.yul\":23151:23154   */\n      0x00\n        /* \"#utility.yul\":23172:23239   */\n      tag_434\n        /* \"#utility.yul\":23236:23238   */\n      0x1b\n        /* \"#utility.yul\":23231:23234   */\n      dup4\n        /* \"#utility.yul\":23172:23239   */\n      tag_161\n      jump\t// in\n    tag_434:\n        /* \"#utility.yul\":23165:23239   */\n      swap2\n      pop\n        /* \"#utility.yul\":23248:23341   */\n      tag_435\n        /* \"#utility.yul\":23337:23340   */\n      dup3\n        /* \"#utility.yul\":23248:23341   */\n      tag_201\n      jump\t// in\n    tag_435:\n        /* \"#utility.yul\":23366:23368   */\n      0x20\n        /* \"#utility.yul\":23361:23364   */\n      dup3\n        /* \"#utility.yul\":23357:23369   */\n      add\n        /* \"#utility.yul\":23350:23369   */\n      swap1\n      pop\n        /* \"#utility.yul\":23009:23375   */\n      swap2\n      swap1\n      pop\n      jump\t// out\n        /* \"#utility.yul\":23381:23800   */\n    tag_118:\n        /* \"#utility.yul\":23547:23551   */\n      0x00\n        /* \"#utility.yul\":23585:23587   */\n      0x20\n        /* \"#utility.yul\":23574:23583   */\n      dup3\n        /* \"#utility.yul\":23570:23588   */\n      add\n        /* \"#utility.yul\":23562:23588   */\n      swap1\n      pop\n        /* \"#utility.yul\":23634:23643   */\n      dup2\n        /* \"#utility.yul\":23628:23632   */\n      dup2\n        /* \"#utility.yul\":23624:23644   */\n      sub\n        /* \"#utility.yul\":23620:23621   */\n      0x00\n        /* \"#utility.yul\":23609:23618   */\n      dup4\n        /* \"#utility.yul\":23605:23622   */\n      add\n        /* \"#utility.yul\":23598:23645   */\n      mstore\n        /* \"#utility.yul\":23662:23793   */\n      tag_437\n        /* \"#utility.yul\":23788:23792   */\n      dup2\n        /* \"#utility.yul\":23662:23793   */\n      tag_202\n      jump\t// in\n    tag_437:\n        /* \"#utility.yul\":23654:23793   */\n      swap1\n      pop\n        /* \"#utility.yul\":23381:23800   */\n      swap2\n      swap1\n      pop\n      jump\t// out\n        /* \"#utility.yul\":23806:23981   */\n    tag_203:\n        /* \"#utility.yul\":23946:23973   */\n      0x436f75706f6e20697320616c726561647920636c61696d656400000000000000\n        /* \"#utility.yul\":23942:23943   */\n      0x00\n        /* \"#utility.yul\":23934:23940   */\n      dup3\n        /* \"#utility.yul\":23930:23944   */\n      add\n        /* \"#utility.yul\":23923:23974   */\n      mstore\n        /* \"#utility.yul\":23806:23981   */\n      pop\n      jump\t// out\n        /* \"#utility.yul\":23987:24353   */\n    tag_204:\n        /* \"#utility.yul\":24129:24132   */\n      0x00\n        /* \"#utility.yul\":24150:24217   */\n      tag_440\n        /* \"#utility.yul\":24214:24216   */\n      0x19\n        /* \"#utility.yul\":24209:24212   */\n      dup4\n        /* \"#utility.yul\":24150:24217   */\n      tag_161\n      jump\t// in\n    tag_440:\n        /* \"#utility.yul\":24143:24217   */\n      swap2\n      pop\n        /* \"#utility.yul\":24226:24319   */\n      tag_441\n        /* \"#utility.yul\":24315:24318   */\n      dup3\n        /* \"#utility.yul\":24226:24319   */\n      tag_203\n      jump\t// in\n    tag_441:\n        /* \"#utility.yul\":24344:24346   */\n      0x20\n        /* \"#utility.yul\":24339:24342   */\n      dup3\n        /* \"#utility.yul\":24335:24347   */\n      add\n        /* \"#utility.yul\":24328:24347   */\n      swap1\n      pop\n        /* \"#utility.yul\":23987:24353   */\n      swap2\n      swap1\n      pop\n      jump\t// out\n        /* \"#utility.yul\":24359:24778   */\n    tag_122:\n        /* \"#utility.yul\":24525:24529   */\n      0x00\n        /* \"#utility.yul\":24563:24565   */\n      0x20\n        /* \"#utility.yul\":24552:24561   */\n      dup3\n        /* \"#utility.yul\":24548:24566   */\n      add\n        /* \"#utility.yul\":24540:24566   */\n      swap1\n      pop\n        /* \"#utility.yul\":24612:24621   */\n      dup2\n        /* \"#utility.yul\":24606:24610   */\n      dup2\n        /* \"#utility.yul\":24602:24622   */\n      sub\n        /* \"#utility.yul\":24598:24599   */\n      0x00\n        /* \"#utility.yul\":24587:24596   */\n      dup4\n        /* \"#utility.yul\":24583:24600   */\n      add\n        /* \"#utility.yul\":24576:24623   */\n      mstore\n        /* \"#utility.yul\":24640:24771   */\n      tag_443\n        /* \"#utility.yul\":24766:24770   */\n      dup2\n        /* \"#utility.yul\":24640:24771   */\n      tag_204\n      jump\t// in\n    tag_443:\n        /* \"#utility.yul\":24632:24771   */\n      swap1\n      pop\n        /* \"#utility.yul\":24359:24778   */\n      swap2\n      swap1\n      pop\n      jump\t// out\n        /* \"#utility.yul\":24784:25017   */\n    tag_205:\n        /* \"#utility.yul\":24924:24958   */\n      0x4f6e6c7920746865206f7267616e697a6174696f6e2061646d696e2063616e20\n        /* \"#utility.yul\":24920:24921   */\n      0x00\n        /* \"#utility.yul\":24912:24918   */\n      dup3\n        /* \"#utility.yul\":24908:24922   */\n      add\n        /* \"#utility.yul\":24901:24959   */\n      mstore\n        /* \"#utility.yul\":24993:25009   */\n      0x63726561746520636f75706f6e73000000000000000000000000000000000000\n        /* \"#utility.yul\":24988:24990   */\n      0x20\n        /* \"#utility.yul\":24980:24986   */\n      dup3\n        /* \"#utility.yul\":24976:24991   */\n      add\n        /* \"#utility.yul\":24969:25010   */\n      mstore\n        /* \"#utility.yul\":24784:25017   */\n      pop\n      jump\t// out\n        /* \"#utility.yul\":25023:25389   */\n    tag_206:\n        /* \"#utility.yul\":25165:25168   */\n      0x00\n        /* \"#utility.yul\":25186:25253   */\n      tag_446\n        /* \"#utility.yul\":25250:25252   */\n      0x2e\n        /* \"#utility.yul\":25245:25248   */\n      dup4\n        /* \"#utility.yul\":25186:25253   */\n      tag_161\n      jump\t// in\n    tag_446:\n        /* \"#utility.yul\":25179:25253   */\n      swap2\n      pop\n        /* \"#utility.yul\":25262:25355   */\n      tag_447\n        /* \"#utility.yul\":25351:25354   */\n      dup3\n        /* \"#utility.yul\":25262:25355   */\n      tag_205\n      jump\t// in\n    tag_447:\n        /* \"#utility.yul\":25380:25382   */\n      0x40\n        /* \"#utility.yul\":25375:25378   */\n      dup3\n        /* \"#utility.yul\":25371:25383   */\n      add\n        /* \"#utility.yul\":25364:25383   */\n      swap1\n      pop\n        /* \"#utility.yul\":25023:25389   */\n      swap2\n      swap1\n      pop\n      jump\t// out\n        /* \"#utility.yul\":25395:25814   */\n    tag_128:\n        /* \"#utility.yul\":25561:25565   */\n      0x00\n        /* \"#utility.yul\":25599:25601   */\n      0x20\n        /* \"#utility.yul\":25588:25597   */\n      dup3\n        /* \"#utility.yul\":25584:25602   */\n      add\n        /* \"#utility.yul\":25576:25602   */\n      swap1\n      pop\n        /* \"#utility.yul\":25648:25657   */\n      dup2\n        /* \"#utility.yul\":25642:25646   */\n      dup2\n        /* \"#utility.yul\":25638:25658   */\n      sub\n        /* \"#utility.yul\":25634:25635   */\n      0x00\n        /* \"#utility.yul\":25623:25632   */\n      dup4\n        /* \"#utility.yul\":25619:25636   */\n      add\n        /* \"#utility.yul\":25612:25659   */\n      mstore\n        /* \"#utility.yul\":25676:25807   */\n      tag_449\n        /* \"#utility.yul\":25802:25806   */\n      dup2\n        /* \"#utility.yul\":25676:25807   */\n      tag_206\n      jump\t// in\n    tag_449:\n        /* \"#utility.yul\":25668:25807   */\n      swap1\n      pop\n        /* \"#utility.yul\":25395:25814   */\n      swap2\n      swap1\n      pop\n      jump\t// out\n        /* \"#utility.yul\":25820:26152   */\n    tag_131:\n        /* \"#utility.yul\":25941:25945   */\n      0x00\n        /* \"#utility.yul\":25979:25981   */\n      0x40\n        /* \"#utility.yul\":25968:25977   */\n      dup3\n        /* \"#utility.yul\":25964:25982   */\n      add\n        /* \"#utility.yul\":25956:25982   */\n      swap1\n      pop\n        /* \"#utility.yul\":25992:26063   */\n      tag_451\n        /* \"#utility.yul\":26060:26061   */\n      0x00\n        /* \"#utility.yul\":26049:26058   */\n      dup4\n        /* \"#utility.yul\":26045:26062   */\n      add\n        /* \"#utility.yul\":26036:26042   */\n      dup6\n        /* \"#utility.yul\":25992:26063   */\n      tag_156\n      jump\t// in\n    tag_451:\n        /* \"#utility.yul\":26073:26145   */\n      tag_452\n        /* \"#utility.yul\":26141:26143   */\n      0x20\n        /* \"#utility.yul\":26130:26139   */\n      dup4\n        /* \"#utility.yul\":26126:26144   */\n      add\n        /* \"#utility.yul\":26117:26123   */\n      dup5\n        /* \"#utility.yul\":26073:26145   */\n      tag_156\n      jump\t// in\n    tag_452:\n        /* \"#utility.yul\":25820:26152   */\n      swap4\n      swap3\n      pop\n      pop\n      pop\n      jump\t// out\n\n    auxdata: 0xa26469706673582212208ffe332a09318db682921ae57fe0cc340811accd19f0e56fb3a8405b692ad18564736f6c63430008130033\n}\n",
				"bytecode": {
					"linkReferences": {},
					"object": "608060405234801561001057600080fd5b50611d88806100206000396000f3fe608060405234801561001057600080fd5b50600436106100a95760003560e01c80636427acca116100715780636427acca1461017d5780638df61fcb14610199578063c10a9839146101c9578063dbb026b9146101e7578063e22a052c14610203578063e9eda19c1461021f576100a9565b8063086ed938146100ae5780632e498df5146100cc57806330828e92146100fc5780634ffab34b146101305780635a1f74061461014c575b600080fd5b6100b661024f565b6040516100c391906111bd565b60405180910390f35b6100e660048036038101906100e19190611229565b610467565b6040516100f39190611265565b60405180910390f35b61011660048036038101906101119190611229565b6104a6565b6040516101279594939291906112aa565b60405180910390f35b61014a60048036038101906101459190611229565b610529565b005b61016660048036038101906101619190611329565b6106ae565b6040516101749291906113a0565b60405180910390f35b61019760048036038101906101929190611505565b61077a565b005b6101b360048036038101906101ae9190611329565b6109c9565b6040516101c0919061160c565b60405180910390f35b6101d1610a60565b6040516101de919061162e565b60405180910390f35b61020160048036038101906101fc9190611229565b610a66565b005b61021d60048036038101906102189190611229565b610d1d565b005b61023960048036038101906102349190611649565b610f8c565b604051610246919061162e565b60405180910390f35b6060600060028054905067ffffffffffffffff811115610272576102716113da565b5b6040519080825280602002602001820160405280156102ab57816020015b610298610fbd565b8152602001906001900390816102905790505b50905060005b60028054905081101561045f5760016000600283815481106102d6576102d5611689565b5b9060005260206000200160009054906101000a900473ffffffffffffffffffffffffffffffffffffffff1673ffffffffffffffffffffffffffffffffffffffff1673ffffffffffffffffffffffffffffffffffffffff1681526020019081526020016000206040518060400160405290816000820160009054906101000a900473ffffffffffffffffffffffffffffffffffffffff1673ffffffffffffffffffffffffffffffffffffffff1673ffffffffffffffffffffffffffffffffffffffff1681526020016001820180546103ac906116e7565b80601f01602080910402602001604051908101604052809291908181526020018280546103d8906116e7565b80156104255780601f106103fa57610100808354040283529160200191610425565b820191906000526020600020905b81548152906001019060200180831161040857829003601f168201915b50505050508152505082828151811061044157610440611689565b5b6020026020010181905250808061045790611747565b9150506102b1565b508091505090565b6002818154811061047757600080fd5b906000526020600020016000915054906101000a900473ffffffffffffffffffffffffffffffffffffffff1681565b60006020528060005260406000206000915090508060000154908060010160009054906101000a900473ffffffffffffffffffffffffffffffffffffffff16908060020160009054906101000a900473ffffffffffffffffffffffffffffffffffffffff16908060030154908060040160009054906101000a900460ff16905085565b3373ffffffffffffffffffffffffffffffffffffffff1660008083815260200190815260200160002060020160009054906101000a900473ffffffffffffffffffffffffffffffffffffffff1673ffffffffffffffffffffffffffffffffffffffff16146105cc576040517f08c379a00000000000000000000000000000000000000000000000000000000081526004016105c390611801565b60405180910390fd5b60008082815260200190815260200160002060040160009054906101000a900460ff161561062f576040517f08c379a00000000000000000000000000000000000000000000000000000000081526004016106269061186d565b60405180910390fd5b600160008083815260200190815260200160002060040160006101000a81548160ff0219169083151502179055503373ffffffffffffffffffffffffffffffffffffffff167fdf4a7b33d3d343cc5bcecd868b83bc988e0467e16b378db69931e06f3e41ce84826040516106a3919061162e565b60405180910390a250565b60016020528060005260406000206000915090508060000160009054906101000a900473ffffffffffffffffffffffffffffffffffffffff16908060010180546106f7906116e7565b80601f0160208091040260200160405190810160405280929190818152602001828054610723906116e7565b80156107705780601f1061074557610100808354040283529160200191610770565b820191906000526020600020905b81548152906001019060200180831161075357829003601f168201915b5050505050905082565b600073ffffffffffffffffffffffffffffffffffffffff16600160003373ffffffffffffffffffffffffffffffffffffffff1673ffffffffffffffffffffffffffffffffffffffff16815260200190815260200160002060000160009054906101000a900473ffffffffffffffffffffffffffffffffffffffff1673ffffffffffffffffffffffffffffffffffffffff161461084b576040517f08c379a0000000000000000000000000000000000000000000000000000000008152600401610842906118ff565b60405180910390fd5b60405180604001604052803373ffffffffffffffffffffffffffffffffffffffff16815260200182815250600160003373ffffffffffffffffffffffffffffffffffffffff1673ffffffffffffffffffffffffffffffffffffffff16815260200190815260200160002060008201518160000160006101000a81548173ffffffffffffffffffffffffffffffffffffffff021916908373ffffffffffffffffffffffffffffffffffffffff16021790555060208201518160010190816109119190611acb565b509050506002339080600181540180825580915050600190039060005260206000200160009091909190916101000a81548173ffffffffffffffffffffffffffffffffffffffff021916908373ffffffffffffffffffffffffffffffffffffffff1602179055503373ffffffffffffffffffffffffffffffffffffffff167f24263c0109cf7104ef63652d3f39851af27bcd2f3a7005e88b226b92e2f1e3d1826040516109be9190611b9d565b60405180910390a250565b6060600460008373ffffffffffffffffffffffffffffffffffffffff1673ffffffffffffffffffffffffffffffffffffffff168152602001908152602001600020805480602002602001604051908101604052809291908181526020018280548015610a5457602002820191906000526020600020905b815481526020019060010190808311610a40575b50505050509050919050565b60035481565b60008082815260200190815260200160002060010160009054906101000a900473ffffffffffffffffffffffffffffffffffffffff16600073ffffffffffffffffffffffffffffffffffffffff16600160008373ffffffffffffffffffffffffffffffffffffffff1673ffffffffffffffffffffffffffffffffffffffff16815260200190815260200160002060000160009054906101000a900473ffffffffffffffffffffffffffffffffffffffff1673ffffffffffffffffffffffffffffffffffffffff1603610b6d576040517f08c379a0000000000000000000000000000000000000000000000000000000008152600401610b6490611c0b565b60405180910390fd5b600073ffffffffffffffffffffffffffffffffffffffff1660008084815260200190815260200160002060020160009054906101000a900473ffffffffffffffffffffffffffffffffffffffff1673ffffffffffffffffffffffffffffffffffffffff1614610c11576040517f08c379a0000000000000000000000000000000000000000000000000000000008152600401610c0890611c77565b60405180910390fd5b3360008084815260200190815260200160002060020160006101000a81548173ffffffffffffffffffffffffffffffffffffffff021916908373ffffffffffffffffffffffffffffffffffffffff160217905550600460003373ffffffffffffffffffffffffffffffffffffffff1673ffffffffffffffffffffffffffffffffffffffff1681526020019081526020016000208290806001815401808255809150506001900390600052602060002001600090919091909150553373ffffffffffffffffffffffffffffffffffffffff167fdda5c47ba205e118b3dead0d928b466734dcc28d22eb3b82af78e3e77c8f119e83604051610d11919061162e565b60405180910390a25050565b3373ffffffffffffffffffffffffffffffffffffffff16600160003373ffffffffffffffffffffffffffffffffffffffff1673ffffffffffffffffffffffffffffffffffffffff16815260200190815260200160002060000160009054906101000a900473ffffffffffffffffffffffffffffffffffffffff1673ffffffffffffffffffffffffffffffffffffffff1614610ded576040517f08c379a0000000000000000000000000000000000000000000000000000000008152600401610de490611d09565b60405180910390fd5b60036000815480929190610e0090611747565b91905055506040518060a0016040528060035481526020013373ffffffffffffffffffffffffffffffffffffffff168152602001600073ffffffffffffffffffffffffffffffffffffffff1681526020018281526020016000151581525060008060035481526020019081526020016000206000820151816000015560208201518160010160006101000a81548173ffffffffffffffffffffffffffffffffffffffff021916908373ffffffffffffffffffffffffffffffffffffffff16021790555060408201518160020160006101000a81548173ffffffffffffffffffffffffffffffffffffffff021916908373ffffffffffffffffffffffffffffffffffffffff1602179055506060820151816003015560808201518160040160006101000a81548160ff0219169083151502179055509050503373ffffffffffffffffffffffffffffffffffffffff167f64fa3a05e17dbe49da26c3e881e6ce12ee3717bfd8fc27a3d56b5e89280a887060035483604051610f81929190611d29565b60405180910390a250565b60046020528160005260406000208181548110610fa857600080fd5b90600052602060002001600091509150505481565b6040518060400160405280600073ffffffffffffffffffffffffffffffffffffffff168152602001606081525090565b600081519050919050565b600082825260208201905092915050565b6000819050602082019050919050565b600073ffffffffffffffffffffffffffffffffffffffff82169050919050565b600061104482611019565b9050919050565b61105481611039565b82525050565b600081519050919050565b600082825260208201905092915050565b60005b83811015611094578082015181840152602081019050611079565b60008484015250505050565b6000601f19601f8301169050919050565b60006110bc8261105a565b6110c68185611065565b93506110d6818560208601611076565b6110df816110a0565b840191505092915050565b6000604083016000830151611102600086018261104b565b506020830151848203602086015261111a82826110b1565b9150508091505092915050565b600061113383836110ea565b905092915050565b6000602082019050919050565b600061115382610fed565b61115d8185610ff8565b93508360208202850161116f85611009565b8060005b858110156111ab578484038952815161118c8582611127565b94506111978361113b565b925060208a01995050600181019050611173565b50829750879550505050505092915050565b600060208201905081810360008301526111d78184611148565b905092915050565b6000604051905090565b600080fd5b600080fd5b6000819050919050565b611206816111f3565b811461121157600080fd5b50565b600081359050611223816111fd565b92915050565b60006020828403121561123f5761123e6111e9565b5b600061124d84828501611214565b91505092915050565b61125f81611039565b82525050565b600060208201905061127a6000830184611256565b92915050565b611289816111f3565b82525050565b60008115159050919050565b6112a48161128f565b82525050565b600060a0820190506112bf6000830188611280565b6112cc6020830187611256565b6112d96040830186611256565b6112e66060830185611280565b6112f3608083018461129b565b9695505050505050565b61130681611039565b811461131157600080fd5b50565b600081359050611323816112fd565b92915050565b60006020828403121561133f5761133e6111e9565b5b600061134d84828501611314565b91505092915050565b600082825260208201905092915050565b60006113728261105a565b61137c8185611356565b935061138c818560208601611076565b611395816110a0565b840191505092915050565b60006040820190506113b56000830185611256565b81810360208301526113c78184611367565b90509392505050565b600080fd5b600080fd5b7f4e487b7100000000000000000000000000000000000000000000000000000000600052604160045260246000fd5b611412826110a0565b810181811067ffffffffffffffff82111715611431576114306113da565b5b80604052505050565b60006114446111df565b90506114508282611409565b919050565b600067ffffffffffffffff8211156114705761146f6113da565b5b611479826110a0565b9050602081019050919050565b82818337600083830152505050565b60006114a86114a384611455565b61143a565b9050828152602081018484840111156114c4576114c36113d5565b5b6114cf848285611486565b509392505050565b600082601f8301126114ec576114eb6113d0565b5b81356114fc848260208601611495565b91505092915050565b60006020828403121561151b5761151a6111e9565b5b600082013567ffffffffffffffff811115611539576115386111ee565b5b611545848285016114d7565b91505092915050565b600081519050919050565b600082825260208201905092915050565b6000819050602082019050919050565b611583816111f3565b82525050565b6000611595838361157a565b60208301905092915050565b6000602082019050919050565b60006115b98261154e565b6115c38185611559565b93506115ce8361156a565b8060005b838110156115ff5781516115e68882611589565b97506115f1836115a1565b9250506001810190506115d2565b5085935050505092915050565b6000602082019050818103600083015261162681846115ae565b905092915050565b60006020820190506116436000830184611280565b92915050565b600080604083850312156116605761165f6111e9565b5b600061166e85828601611314565b925050602061167f85828601611214565b9150509250929050565b7f4e487b7100000000000000000000000000000000000000000000000000000000600052603260045260246000fd5b7f4e487b7100000000000000000000000000000000000000000000000000000000600052602260045260246000fd5b600060028204905060018216806116ff57607f821691505b602082108103611712576117116116b8565b5b50919050565b7f4e487b7100000000000000000000000000000000000000000000000000000000600052601160045260246000fd5b6000611752826111f3565b91507fffffffffffffffffffffffffffffffffffffffffffffffffffffffffffffffff820361178457611783611718565b5b600182019050919050565b7f596f7520617265206e6f7420746865206f776e6572206f66207468697320636f60008201527f75706f6e00000000000000000000000000000000000000000000000000000000602082015250565b60006117eb602483611356565b91506117f68261178f565b604082019050919050565b6000602082019050818103600083015261181a816117de565b9050919050565b7f436f75706f6e20616c72656164792072656465656d6564000000000000000000600082015250565b6000611857601783611356565b915061186282611821565b602082019050919050565b600060208201905081810360008301526118868161184a565b9050919050565b7f4f7267616e697a6174696f6e20616c72656164792065786973747320666f722060008201527f7468697320616464726573730000000000000000000000000000000000000000602082015250565b60006118e9602c83611356565b91506118f48261188d565b604082019050919050565b60006020820190508181036000830152611918816118dc565b9050919050565b60008190508160005260206000209050919050565b60006020601f8301049050919050565b600082821b905092915050565b6000600883026119817fffffffffffffffffffffffffffffffffffffffffffffffffffffffffffffffff82611944565b61198b8683611944565b95508019841693508086168417925050509392505050565b6000819050919050565b60006119c86119c36119be846111f3565b6119a3565b6111f3565b9050919050565b6000819050919050565b6119e2836119ad565b6119f66119ee826119cf565b848454611951565b825550505050565b600090565b611a0b6119fe565b611a168184846119d9565b505050565b5b81811015611a3a57611a2f600082611a03565b600181019050611a1c565b5050565b601f821115611a7f57611a508161191f565b611a5984611934565b81016020851015611a68578190505b611a7c611a7485611934565b830182611a1b565b50505b505050565b600082821c905092915050565b6000611aa260001984600802611a84565b1980831691505092915050565b6000611abb8383611a91565b9150826002028217905092915050565b611ad48261105a565b67ffffffffffffffff811115611aed57611aec6113da565b5b611af782546116e7565b611b02828285611a3e565b600060209050601f831160018114611b355760008415611b23578287015190505b611b2d8582611aaf565b865550611b95565b601f198416611b438661191f565b60005b82811015611b6b57848901518255600182019150602085019450602081019050611b46565b86831015611b885784890151611b84601f891682611a91565b8355505b6001600288020188555050505b505050505050565b60006020820190508181036000830152611bb78184611367565b905092915050565b7f4f7267616e697a6174696f6e20646f6573206e6f742065786973740000000000600082015250565b6000611bf5601b83611356565b9150611c0082611bbf565b602082019050919050565b60006020820190508181036000830152611c2481611be8565b9050919050565b7f436f75706f6e20697320616c726561647920636c61696d656400000000000000600082015250565b6000611c61601983611356565b9150611c6c82611c2b565b602082019050919050565b60006020820190508181036000830152611c9081611c54565b9050919050565b7f4f6e6c7920746865206f7267616e697a6174696f6e2061646d696e2063616e2060008201527f63726561746520636f75706f6e73000000000000000000000000000000000000602082015250565b6000611cf3602e83611356565b9150611cfe82611c97565b604082019050919050565b60006020820190508181036000830152611d2281611ce6565b9050919050565b6000604082019050611d3e6000830185611280565b611d4b6020830184611280565b939250505056fea26469706673582212208ffe332a09318db682921ae57fe0cc340811accd19f0e56fb3a8405b692ad18564736f6c63430008130033",
					"opcodes": "PUSH1 0x80 PUSH1 0x40 MSTORE CALLVALUE DUP1 ISZERO PUSH2 0x10 JUMPI PUSH1 0x0 DUP1 REVERT JUMPDEST POP PUSH2 0x1D88 DUP1 PUSH2 0x20 PUSH1 0x0 CODECOPY PUSH1 0x0 RETURN INVALID PUSH1 0x80 PUSH1 0x40 MSTORE CALLVALUE DUP1 ISZERO PUSH2 0x10 JUMPI PUSH1 0x0 DUP1 REVERT JUMPDEST POP PUSH1 0x4 CALLDATASIZE LT PUSH2 0xA9 JUMPI PUSH1 0x0 CALLDATALOAD PUSH1 0xE0 SHR DUP1 PUSH4 0x6427ACCA GT PUSH2 0x71 JUMPI DUP1 PUSH4 0x6427ACCA EQ PUSH2 0x17D JUMPI DUP1 PUSH4 0x8DF61FCB EQ PUSH2 0x199 JUMPI DUP1 PUSH4 0xC10A9839 EQ PUSH2 0x1C9 JUMPI DUP1 PUSH4 0xDBB026B9 EQ PUSH2 0x1E7 JUMPI DUP1 PUSH4 0xE22A052C EQ PUSH2 0x203 JUMPI DUP1 PUSH4 0xE9EDA19C EQ PUSH2 0x21F JUMPI PUSH2 0xA9 JUMP JUMPDEST DUP1 PUSH4 0x86ED938 EQ PUSH2 0xAE JUMPI DUP1 PUSH4 0x2E498DF5 EQ PUSH2 0xCC JUMPI DUP1 PUSH4 0x30828E92 EQ PUSH2 0xFC JUMPI DUP1 PUSH4 0x4FFAB34B EQ PUSH2 0x130 JUMPI DUP1 PUSH4 0x5A1F7406 EQ PUSH2 0x14C JUMPI JUMPDEST PUSH1 0x0 DUP1 REVERT JUMPDEST PUSH2 0xB6 PUSH2 0x24F JUMP JUMPDEST PUSH1 0x40 MLOAD PUSH2 0xC3 SWAP2 SWAP1 PUSH2 0x11BD JUMP JUMPDEST PUSH1 0x40 MLOAD DUP1 SWAP2 SUB SWAP1 RETURN JUMPDEST PUSH2 0xE6 PUSH1 0x4 DUP1 CALLDATASIZE SUB DUP2 ADD SWAP1 PUSH2 0xE1 SWAP2 SWAP1 PUSH2 0x1229 JUMP JUMPDEST PUSH2 0x467 JUMP JUMPDEST PUSH1 0x40 MLOAD PUSH2 0xF3 SWAP2 SWAP1 PUSH2 0x1265 JUMP JUMPDEST PUSH1 0x40 MLOAD DUP1 SWAP2 SUB SWAP1 RETURN JUMPDEST PUSH2 0x116 PUSH1 0x4 DUP1 CALLDATASIZE SUB DUP2 ADD SWAP1 PUSH2 0x111 SWAP2 SWAP1 PUSH2 0x1229 JUMP JUMPDEST PUSH2 0x4A6 JUMP JUMPDEST PUSH1 0x40 MLOAD PUSH2 0x127 SWAP6 SWAP5 SWAP4 SWAP3 SWAP2 SWAP1 PUSH2 0x12AA JUMP JUMPDEST PUSH1 0x40 MLOAD DUP1 SWAP2 SUB SWAP1 RETURN JUMPDEST PUSH2 0x14A PUSH1 0x4 DUP1 CALLDATASIZE SUB DUP2 ADD SWAP1 PUSH2 0x145 SWAP2 SWAP1 PUSH2 0x1229 JUMP JUMPDEST PUSH2 0x529 JUMP JUMPDEST STOP JUMPDEST PUSH2 0x166 PUSH1 0x4 DUP1 CALLDATASIZE SUB DUP2 ADD SWAP1 PUSH2 0x161 SWAP2 SWAP1 PUSH2 0x1329 JUMP JUMPDEST PUSH2 0x6AE JUMP JUMPDEST PUSH1 0x40 MLOAD PUSH2 0x174 SWAP3 SWAP2 SWAP1 PUSH2 0x13A0 JUMP JUMPDEST PUSH1 0x40 MLOAD DUP1 SWAP2 SUB SWAP1 RETURN JUMPDEST PUSH2 0x197 PUSH1 0x4 DUP1 CALLDATASIZE SUB DUP2 ADD SWAP1 PUSH2 0x192 SWAP2 SWAP1 PUSH2 0x1505 JUMP JUMPDEST PUSH2 0x77A JUMP JUMPDEST STOP JUMPDEST PUSH2 0x1B3 PUSH1 0x4 DUP1 CALLDATASIZE SUB DUP2 ADD SWAP1 PUSH2 0x1AE SWAP2 SWAP1 PUSH2 0x1329 JUMP JUMPDEST PUSH2 0x9C9 JUMP JUMPDEST PUSH1 0x40 MLOAD PUSH2 0x1C0 SWAP2 SWAP1 PUSH2 0x160C JUMP JUMPDEST PUSH1 0x40 MLOAD DUP1 SWAP2 SUB SWAP1 RETURN JUMPDEST PUSH2 0x1D1 PUSH2 0xA60 JUMP JUMPDEST PUSH1 0x40 MLOAD PUSH2 0x1DE SWAP2 SWAP1 PUSH2 0x162E JUMP JUMPDEST PUSH1 0x40 MLOAD DUP1 SWAP2 SUB SWAP1 RETURN JUMPDEST PUSH2 0x201 PUSH1 0x4 DUP1 CALLDATASIZE SUB DUP2 ADD SWAP1 PUSH2 0x1FC SWAP2 SWAP1 PUSH2 0x1229 JUMP JUMPDEST PUSH2 0xA66 JUMP JUMPDEST STOP JUMPDEST PUSH2 0x21D PUSH1 0x4 DUP1 CALLDATASIZE SUB DUP2 ADD SWAP1 PUSH2 0x218 SWAP2 SWAP1 PUSH2 0x1229 JUMP JUMPDEST PUSH2 0xD1D JUMP JUMPDEST STOP JUMPDEST PUSH2 0x239 PUSH1 0x4 DUP1 CALLDATASIZE SUB DUP2 ADD SWAP1 PUSH2 0x234 SWAP2 SWAP1 PUSH2 0x1649 JUMP JUMPDEST PUSH2 0xF8C JUMP JUMPDEST PUSH1 0x40 MLOAD PUSH2 0x246 SWAP2 SWAP1 PUSH2 0x162E JUMP JUMPDEST PUSH1 0x40 MLOAD DUP1 SWAP2 SUB SWAP1 RETURN JUMPDEST PUSH1 0x60 PUSH1 0x0 PUSH1 0x2 DUP1 SLOAD SWAP1 POP PUSH8 0xFFFFFFFFFFFFFFFF DUP2 GT ISZERO PUSH2 0x272 JUMPI PUSH2 0x271 PUSH2 0x13DA JUMP JUMPDEST JUMPDEST PUSH1 0x40 MLOAD SWAP1 DUP1 DUP3 MSTORE DUP1 PUSH1 0x20 MUL PUSH1 0x20 ADD DUP3 ADD PUSH1 0x40 MSTORE DUP1 ISZERO PUSH2 0x2AB JUMPI DUP2 PUSH1 0x20 ADD JUMPDEST PUSH2 0x298 PUSH2 0xFBD JUMP JUMPDEST DUP2 MSTORE PUSH1 0x20 ADD SWAP1 PUSH1 0x1 SWAP1 SUB SWAP1 DUP2 PUSH2 0x290 JUMPI SWAP1 POP JUMPDEST POP SWAP1 POP PUSH1 0x0 JUMPDEST PUSH1 0x2 DUP1 SLOAD SWAP1 POP DUP2 LT ISZERO PUSH2 0x45F JUMPI PUSH1 0x1 PUSH1 0x0 PUSH1 0x2 DUP4 DUP2 SLOAD DUP2 LT PUSH2 0x2D6 JUMPI PUSH2 0x2D5 PUSH2 0x1689 JUMP JUMPDEST JUMPDEST SWAP1 PUSH1 0x0 MSTORE PUSH1 0x20 PUSH1 0x0 KECCAK256 ADD PUSH1 0x0 SWAP1 SLOAD SWAP1 PUSH2 0x100 EXP SWAP1 DIV PUSH20 0xFFFFFFFFFFFFFFFFFFFFFFFFFFFFFFFFFFFFFFFF AND PUSH20 0xFFFFFFFFFFFFFFFFFFFFFFFFFFFFFFFFFFFFFFFF AND PUSH20 0xFFFFFFFFFFFFFFFFFFFFFFFFFFFFFFFFFFFFFFFF AND DUP2 MSTORE PUSH1 0x20 ADD SWAP1 DUP2 MSTORE PUSH1 0x20 ADD PUSH1 0x0 KECCAK256 PUSH1 0x40 MLOAD DUP1 PUSH1 0x40 ADD PUSH1 0x40 MSTORE SWAP1 DUP2 PUSH1 0x0 DUP3 ADD PUSH1 0x0 SWAP1 SLOAD SWAP1 PUSH2 0x100 EXP SWAP1 DIV PUSH20 0xFFFFFFFFFFFFFFFFFFFFFFFFFFFFFFFFFFFFFFFF AND PUSH20 0xFFFFFFFFFFFFFFFFFFFFFFFFFFFFFFFFFFFFFFFF AND PUSH20 0xFFFFFFFFFFFFFFFFFFFFFFFFFFFFFFFFFFFFFFFF AND DUP2 MSTORE PUSH1 0x20 ADD PUSH1 0x1 DUP3 ADD DUP1 SLOAD PUSH2 0x3AC SWAP1 PUSH2 0x16E7 JUMP JUMPDEST DUP1 PUSH1 0x1F ADD PUSH1 0x20 DUP1 SWAP2 DIV MUL PUSH1 0x20 ADD PUSH1 0x40 MLOAD SWAP1 DUP2 ADD PUSH1 0x40 MSTORE DUP1 SWAP3 SWAP2 SWAP1 DUP2 DUP2 MSTORE PUSH1 0x20 ADD DUP3 DUP1 SLOAD PUSH2 0x3D8 SWAP1 PUSH2 0x16E7 JUMP JUMPDEST DUP1 ISZERO PUSH2 0x425 JUMPI DUP1 PUSH1 0x1F LT PUSH2 0x3FA JUMPI PUSH2 0x100 DUP1 DUP4 SLOAD DIV MUL DUP4 MSTORE SWAP2 PUSH1 0x20 ADD SWAP2 PUSH2 0x425 JUMP JUMPDEST DUP3 ADD SWAP2 SWAP1 PUSH1 0x0 MSTORE PUSH1 0x20 PUSH1 0x0 KECCAK256 SWAP1 JUMPDEST DUP2 SLOAD DUP2 MSTORE SWAP1 PUSH1 0x1 ADD SWAP1 PUSH1 0x20 ADD DUP1 DUP4 GT PUSH2 0x408 JUMPI DUP3 SWAP1 SUB PUSH1 0x1F AND DUP3 ADD SWAP2 JUMPDEST POP POP POP POP POP DUP2 MSTORE POP POP DUP3 DUP3 DUP2 MLOAD DUP2 LT PUSH2 0x441 JUMPI PUSH2 0x440 PUSH2 0x1689 JUMP JUMPDEST JUMPDEST PUSH1 0x20 MUL PUSH1 0x20 ADD ADD DUP2 SWAP1 MSTORE POP DUP1 DUP1 PUSH2 0x457 SWAP1 PUSH2 0x1747 JUMP JUMPDEST SWAP2 POP POP PUSH2 0x2B1 JUMP JUMPDEST POP DUP1 SWAP2 POP POP SWAP1 JUMP JUMPDEST PUSH1 0x2 DUP2 DUP2 SLOAD DUP2 LT PUSH2 0x477 JUMPI PUSH1 0x0 DUP1 REVERT JUMPDEST SWAP1 PUSH1 0x0 MSTORE PUSH1 0x20 PUSH1 0x0 KECCAK256 ADD PUSH1 0x0 SWAP2 POP SLOAD SWAP1 PUSH2 0x100 EXP SWAP1 DIV PUSH20 0xFFFFFFFFFFFFFFFFFFFFFFFFFFFFFFFFFFFFFFFF AND DUP2 JUMP JUMPDEST PUSH1 0x0 PUSH1 0x20 MSTORE DUP1 PUSH1 0x0 MSTORE PUSH1 0x40 PUSH1 0x0 KECCAK256 PUSH1 0x0 SWAP2 POP SWAP1 POP DUP1 PUSH1 0x0 ADD SLOAD SWAP1 DUP1 PUSH1 0x1 ADD PUSH1 0x0 SWAP1 SLOAD SWAP1 PUSH2 0x100 EXP SWAP1 DIV PUSH20 0xFFFFFFFFFFFFFFFFFFFFFFFFFFFFFFFFFFFFFFFF AND SWAP1 DUP1 PUSH1 0x2 ADD PUSH1 0x0 SWAP1 SLOAD SWAP1 PUSH2 0x100 EXP SWAP1 DIV PUSH20 0xFFFFFFFFFFFFFFFFFFFFFFFFFFFFFFFFFFFFFFFF AND SWAP1 DUP1 PUSH1 0x3 ADD SLOAD SWAP1 DUP1 PUSH1 0x4 ADD PUSH1 0x0 SWAP1 SLOAD SWAP1 PUSH2 0x100 EXP SWAP1 DIV PUSH1 0xFF AND SWAP1 POP DUP6 JUMP JUMPDEST CALLER PUSH20 0xFFFFFFFFFFFFFFFFFFFFFFFFFFFFFFFFFFFFFFFF AND PUSH1 0x0 DUP1 DUP4 DUP2 MSTORE PUSH1 0x20 ADD SWAP1 DUP2 MSTORE PUSH1 0x20 ADD PUSH1 0x0 KECCAK256 PUSH1 0x2 ADD PUSH1 0x0 SWAP1 SLOAD SWAP1 PUSH2 0x100 EXP SWAP1 DIV PUSH20 0xFFFFFFFFFFFFFFFFFFFFFFFFFFFFFFFFFFFFFFFF AND PUSH20 0xFFFFFFFFFFFFFFFFFFFFFFFFFFFFFFFFFFFFFFFF AND EQ PUSH2 0x5CC JUMPI PUSH1 0x40 MLOAD PUSH32 0x8C379A000000000000000000000000000000000000000000000000000000000 DUP2 MSTORE PUSH1 0x4 ADD PUSH2 0x5C3 SWAP1 PUSH2 0x1801 JUMP JUMPDEST PUSH1 0x40 MLOAD DUP1 SWAP2 SUB SWAP1 REVERT JUMPDEST PUSH1 0x0 DUP1 DUP3 DUP2 MSTORE PUSH1 0x20 ADD SWAP1 DUP2 MSTORE PUSH1 0x20 ADD PUSH1 0x0 KECCAK256 PUSH1 0x4 ADD PUSH1 0x0 SWAP1 SLOAD SWAP1 PUSH2 0x100 EXP SWAP1 DIV PUSH1 0xFF AND ISZERO PUSH2 0x62F JUMPI PUSH1 0x40 MLOAD PUSH32 0x8C379A000000000000000000000000000000000000000000000000000000000 DUP2 MSTORE PUSH1 0x4 ADD PUSH2 0x626 SWAP1 PUSH2 0x186D JUMP JUMPDEST PUSH1 0x40 MLOAD DUP1 SWAP2 SUB SWAP1 REVERT JUMPDEST PUSH1 0x1 PUSH1 0x0 DUP1 DUP4 DUP2 MSTORE PUSH1 0x20 ADD SWAP1 DUP2 MSTORE PUSH1 0x20 ADD PUSH1 0x0 KECCAK256 PUSH1 0x4 ADD PUSH1 0x0 PUSH2 0x100 EXP DUP2 SLOAD DUP2 PUSH1 0xFF MUL NOT AND SWAP1 DUP4 ISZERO ISZERO MUL OR SWAP1 SSTORE POP CALLER PUSH20 0xFFFFFFFFFFFFFFFFFFFFFFFFFFFFFFFFFFFFFFFF AND PUSH32 0xDF4A7B33D3D343CC5BCECD868B83BC988E0467E16B378DB69931E06F3E41CE84 DUP3 PUSH1 0x40 MLOAD PUSH2 0x6A3 SWAP2 SWAP1 PUSH2 0x162E JUMP JUMPDEST PUSH1 0x40 MLOAD DUP1 SWAP2 SUB SWAP1 LOG2 POP JUMP JUMPDEST PUSH1 0x1 PUSH1 0x20 MSTORE DUP1 PUSH1 0x0 MSTORE PUSH1 0x40 PUSH1 0x0 KECCAK256 PUSH1 0x0 SWAP2 POP SWAP1 POP DUP1 PUSH1 0x0 ADD PUSH1 0x0 SWAP1 SLOAD SWAP1 PUSH2 0x100 EXP SWAP1 DIV PUSH20 0xFFFFFFFFFFFFFFFFFFFFFFFFFFFFFFFFFFFFFFFF AND SWAP1 DUP1 PUSH1 0x1 ADD DUP1 SLOAD PUSH2 0x6F7 SWAP1 PUSH2 0x16E7 JUMP JUMPDEST DUP1 PUSH1 0x1F ADD PUSH1 0x20 DUP1 SWAP2 DIV MUL PUSH1 0x20 ADD PUSH1 0x40 MLOAD SWAP1 DUP2 ADD PUSH1 0x40 MSTORE DUP1 SWAP3 SWAP2 SWAP1 DUP2 DUP2 MSTORE PUSH1 0x20 ADD DUP3 DUP1 SLOAD PUSH2 0x723 SWAP1 PUSH2 0x16E7 JUMP JUMPDEST DUP1 ISZERO PUSH2 0x770 JUMPI DUP1 PUSH1 0x1F LT PUSH2 0x745 JUMPI PUSH2 0x100 DUP1 DUP4 SLOAD DIV MUL DUP4 MSTORE SWAP2 PUSH1 0x20 ADD SWAP2 PUSH2 0x770 JUMP JUMPDEST DUP3 ADD SWAP2 SWAP1 PUSH1 0x0 MSTORE PUSH1 0x20 PUSH1 0x0 KECCAK256 SWAP1 JUMPDEST DUP2 SLOAD DUP2 MSTORE SWAP1 PUSH1 0x1 ADD SWAP1 PUSH1 0x20 ADD DUP1 DUP4 GT PUSH2 0x753 JUMPI DUP3 SWAP1 SUB PUSH1 0x1F AND DUP3 ADD SWAP2 JUMPDEST POP POP POP POP POP SWAP1 POP DUP3 JUMP JUMPDEST PUSH1 0x0 PUSH20 0xFFFFFFFFFFFFFFFFFFFFFFFFFFFFFFFFFFFFFFFF AND PUSH1 0x1 PUSH1 0x0 CALLER PUSH20 0xFFFFFFFFFFFFFFFFFFFFFFFFFFFFFFFFFFFFFFFF AND PUSH20 0xFFFFFFFFFFFFFFFFFFFFFFFFFFFFFFFFFFFFFFFF AND DUP2 MSTORE PUSH1 0x20 ADD SWAP1 DUP2 MSTORE PUSH1 0x20 ADD PUSH1 0x0 KECCAK256 PUSH1 0x0 ADD PUSH1 0x0 SWAP1 SLOAD SWAP1 PUSH2 0x100 EXP SWAP1 DIV PUSH20 0xFFFFFFFFFFFFFFFFFFFFFFFFFFFFFFFFFFFFFFFF AND PUSH20 0xFFFFFFFFFFFFFFFFFFFFFFFFFFFFFFFFFFFFFFFF AND EQ PUSH2 0x84B JUMPI PUSH1 0x40 MLOAD PUSH32 0x8C379A000000000000000000000000000000000000000000000000000000000 DUP2 MSTORE PUSH1 0x4 ADD PUSH2 0x842 SWAP1 PUSH2 0x18FF JUMP JUMPDEST PUSH1 0x40 MLOAD DUP1 SWAP2 SUB SWAP1 REVERT JUMPDEST PUSH1 0x40 MLOAD DUP1 PUSH1 0x40 ADD PUSH1 0x40 MSTORE DUP1 CALLER PUSH20 0xFFFFFFFFFFFFFFFFFFFFFFFFFFFFFFFFFFFFFFFF AND DUP2 MSTORE PUSH1 0x20 ADD DUP3 DUP2 MSTORE POP PUSH1 0x1 PUSH1 0x0 CALLER PUSH20 0xFFFFFFFFFFFFFFFFFFFFFFFFFFFFFFFFFFFFFFFF AND PUSH20 0xFFFFFFFFFFFFFFFFFFFFFFFFFFFFFFFFFFFFFFFF AND DUP2 MSTORE PUSH1 0x20 ADD SWAP1 DUP2 MSTORE PUSH1 0x20 ADD PUSH1 0x0 KECCAK256 PUSH1 0x0 DUP3 ADD MLOAD DUP2 PUSH1 0x0 ADD PUSH1 0x0 PUSH2 0x100 EXP DUP2 SLOAD DUP2 PUSH20 0xFFFFFFFFFFFFFFFFFFFFFFFFFFFFFFFFFFFFFFFF MUL NOT AND SWAP1 DUP4 PUSH20 0xFFFFFFFFFFFFFFFFFFFFFFFFFFFFFFFFFFFFFFFF AND MUL OR SWAP1 SSTORE POP PUSH1 0x20 DUP3 ADD MLOAD DUP2 PUSH1 0x1 ADD SWAP1 DUP2 PUSH2 0x911 SWAP2 SWAP1 PUSH2 0x1ACB JUMP JUMPDEST POP SWAP1 POP POP PUSH1 0x2 CALLER SWAP1 DUP1 PUSH1 0x1 DUP2 SLOAD ADD DUP1 DUP3 SSTORE DUP1 SWAP2 POP POP PUSH1 0x1 SWAP1 SUB SWAP1 PUSH1 0x0 MSTORE PUSH1 0x20 PUSH1 0x0 KECCAK256 ADD PUSH1 0x0 SWAP1 SWAP2 SWAP1 SWAP2 SWAP1 SWAP2 PUSH2 0x100 EXP DUP2 SLOAD DUP2 PUSH20 0xFFFFFFFFFFFFFFFFFFFFFFFFFFFFFFFFFFFFFFFF MUL NOT AND SWAP1 DUP4 PUSH20 0xFFFFFFFFFFFFFFFFFFFFFFFFFFFFFFFFFFFFFFFF AND MUL OR SWAP1 SSTORE POP CALLER PUSH20 0xFFFFFFFFFFFFFFFFFFFFFFFFFFFFFFFFFFFFFFFF AND PUSH32 0x24263C0109CF7104EF63652D3F39851AF27BCD2F3A7005E88B226B92E2F1E3D1 DUP3 PUSH1 0x40 MLOAD PUSH2 0x9BE SWAP2 SWAP1 PUSH2 0x1B9D JUMP JUMPDEST PUSH1 0x40 MLOAD DUP1 SWAP2 SUB SWAP1 LOG2 POP JUMP JUMPDEST PUSH1 0x60 PUSH1 0x4 PUSH1 0x0 DUP4 PUSH20 0xFFFFFFFFFFFFFFFFFFFFFFFFFFFFFFFFFFFFFFFF AND PUSH20 0xFFFFFFFFFFFFFFFFFFFFFFFFFFFFFFFFFFFFFFFF AND DUP2 MSTORE PUSH1 0x20 ADD SWAP1 DUP2 MSTORE PUSH1 0x20 ADD PUSH1 0x0 KECCAK256 DUP1 SLOAD DUP1 PUSH1 0x20 MUL PUSH1 0x20 ADD PUSH1 0x40 MLOAD SWAP1 DUP2 ADD PUSH1 0x40 MSTORE DUP1 SWAP3 SWAP2 SWAP1 DUP2 DUP2 MSTORE PUSH1 0x20 ADD DUP3 DUP1 SLOAD DUP1 ISZERO PUSH2 0xA54 JUMPI PUSH1 0x20 MUL DUP3 ADD SWAP2 SWAP1 PUSH1 0x0 MSTORE PUSH1 0x20 PUSH1 0x0 KECCAK256 SWAP1 JUMPDEST DUP2 SLOAD DUP2 MSTORE PUSH1 0x20 ADD SWAP1 PUSH1 0x1 ADD SWAP1 DUP1 DUP4 GT PUSH2 0xA40 JUMPI JUMPDEST POP POP POP POP POP SWAP1 POP SWAP2 SWAP1 POP JUMP JUMPDEST PUSH1 0x3 SLOAD DUP2 JUMP JUMPDEST PUSH1 0x0 DUP1 DUP3 DUP2 MSTORE PUSH1 0x20 ADD SWAP1 DUP2 MSTORE PUSH1 0x20 ADD PUSH1 0x0 KECCAK256 PUSH1 0x1 ADD PUSH1 0x0 SWAP1 SLOAD SWAP1 PUSH2 0x100 EXP SWAP1 DIV PUSH20 0xFFFFFFFFFFFFFFFFFFFFFFFFFFFFFFFFFFFFFFFF AND PUSH1 0x0 PUSH20 0xFFFFFFFFFFFFFFFFFFFFFFFFFFFFFFFFFFFFFFFF AND PUSH1 0x1 PUSH1 0x0 DUP4 PUSH20 0xFFFFFFFFFFFFFFFFFFFFFFFFFFFFFFFFFFFFFFFF AND PUSH20 0xFFFFFFFFFFFFFFFFFFFFFFFFFFFFFFFFFFFFFFFF AND DUP2 MSTORE PUSH1 0x20 ADD SWAP1 DUP2 MSTORE PUSH1 0x20 ADD PUSH1 0x0 KECCAK256 PUSH1 0x0 ADD PUSH1 0x0 SWAP1 SLOAD SWAP1 PUSH2 0x100 EXP SWAP1 DIV PUSH20 0xFFFFFFFFFFFFFFFFFFFFFFFFFFFFFFFFFFFFFFFF AND PUSH20 0xFFFFFFFFFFFFFFFFFFFFFFFFFFFFFFFFFFFFFFFF AND SUB PUSH2 0xB6D JUMPI PUSH1 0x40 MLOAD PUSH32 0x8C379A000000000000000000000000000000000000000000000000000000000 DUP2 MSTORE PUSH1 0x4 ADD PUSH2 0xB64 SWAP1 PUSH2 0x1C0B JUMP JUMPDEST PUSH1 0x40 MLOAD DUP1 SWAP2 SUB SWAP1 REVERT JUMPDEST PUSH1 0x0 PUSH20 0xFFFFFFFFFFFFFFFFFFFFFFFFFFFFFFFFFFFFFFFF AND PUSH1 0x0 DUP1 DUP5 DUP2 MSTORE PUSH1 0x20 ADD SWAP1 DUP2 MSTORE PUSH1 0x20 ADD PUSH1 0x0 KECCAK256 PUSH1 0x2 ADD PUSH1 0x0 SWAP1 SLOAD SWAP1 PUSH2 0x100 EXP SWAP1 DIV PUSH20 0xFFFFFFFFFFFFFFFFFFFFFFFFFFFFFFFFFFFFFFFF AND PUSH20 0xFFFFFFFFFFFFFFFFFFFFFFFFFFFFFFFFFFFFFFFF AND EQ PUSH2 0xC11 JUMPI PUSH1 0x40 MLOAD PUSH32 0x8C379A000000000000000000000000000000000000000000000000000000000 DUP2 MSTORE PUSH1 0x4 ADD PUSH2 0xC08 SWAP1 PUSH2 0x1C77 JUMP JUMPDEST PUSH1 0x40 MLOAD DUP1 SWAP2 SUB SWAP1 REVERT JUMPDEST CALLER PUSH1 0x0 DUP1 DUP5 DUP2 MSTORE PUSH1 0x20 ADD SWAP1 DUP2 MSTORE PUSH1 0x20 ADD PUSH1 0x0 KECCAK256 PUSH1 0x2 ADD PUSH1 0x0 PUSH2 0x100 EXP DUP2 SLOAD DUP2 PUSH20 0xFFFFFFFFFFFFFFFFFFFFFFFFFFFFFFFFFFFFFFFF MUL NOT AND SWAP1 DUP4 PUSH20 0xFFFFFFFFFFFFFFFFFFFFFFFFFFFFFFFFFFFFFFFF AND MUL OR SWAP1 SSTORE POP PUSH1 0x4 PUSH1 0x0 CALLER PUSH20 0xFFFFFFFFFFFFFFFFFFFFFFFFFFFFFFFFFFFFFFFF AND PUSH20 0xFFFFFFFFFFFFFFFFFFFFFFFFFFFFFFFFFFFFFFFF AND DUP2 MSTORE PUSH1 0x20 ADD SWAP1 DUP2 MSTORE PUSH1 0x20 ADD PUSH1 0x0 KECCAK256 DUP3 SWAP1 DUP1 PUSH1 0x1 DUP2 SLOAD ADD DUP1 DUP3 SSTORE DUP1 SWAP2 POP POP PUSH1 0x1 SWAP1 SUB SWAP1 PUSH1 0x0 MSTORE PUSH1 0x20 PUSH1 0x0 KECCAK256 ADD PUSH1 0x0 SWAP1 SWAP2 SWAP1 SWAP2 SWAP1 SWAP2 POP SSTORE CALLER PUSH20 0xFFFFFFFFFFFFFFFFFFFFFFFFFFFFFFFFFFFFFFFF AND PUSH32 0xDDA5C47BA205E118B3DEAD0D928B466734DCC28D22EB3B82AF78E3E77C8F119E DUP4 PUSH1 0x40 MLOAD PUSH2 0xD11 SWAP2 SWAP1 PUSH2 0x162E JUMP JUMPDEST PUSH1 0x40 MLOAD DUP1 SWAP2 SUB SWAP1 LOG2 POP POP JUMP JUMPDEST CALLER PUSH20 0xFFFFFFFFFFFFFFFFFFFFFFFFFFFFFFFFFFFFFFFF AND PUSH1 0x1 PUSH1 0x0 CALLER PUSH20 0xFFFFFFFFFFFFFFFFFFFFFFFFFFFFFFFFFFFFFFFF AND PUSH20 0xFFFFFFFFFFFFFFFFFFFFFFFFFFFFFFFFFFFFFFFF AND DUP2 MSTORE PUSH1 0x20 ADD SWAP1 DUP2 MSTORE PUSH1 0x20 ADD PUSH1 0x0 KECCAK256 PUSH1 0x0 ADD PUSH1 0x0 SWAP1 SLOAD SWAP1 PUSH2 0x100 EXP SWAP1 DIV PUSH20 0xFFFFFFFFFFFFFFFFFFFFFFFFFFFFFFFFFFFFFFFF AND PUSH20 0xFFFFFFFFFFFFFFFFFFFFFFFFFFFFFFFFFFFFFFFF AND EQ PUSH2 0xDED JUMPI PUSH1 0x40 MLOAD PUSH32 0x8C379A000000000000000000000000000000000000000000000000000000000 DUP2 MSTORE PUSH1 0x4 ADD PUSH2 0xDE4 SWAP1 PUSH2 0x1D09 JUMP JUMPDEST PUSH1 0x40 MLOAD DUP1 SWAP2 SUB SWAP1 REVERT JUMPDEST PUSH1 0x3 PUSH1 0x0 DUP2 SLOAD DUP1 SWAP3 SWAP2 SWAP1 PUSH2 0xE00 SWAP1 PUSH2 0x1747 JUMP JUMPDEST SWAP2 SWAP1 POP SSTORE POP PUSH1 0x40 MLOAD DUP1 PUSH1 0xA0 ADD PUSH1 0x40 MSTORE DUP1 PUSH1 0x3 SLOAD DUP2 MSTORE PUSH1 0x20 ADD CALLER PUSH20 0xFFFFFFFFFFFFFFFFFFFFFFFFFFFFFFFFFFFFFFFF AND DUP2 MSTORE PUSH1 0x20 ADD PUSH1 0x0 PUSH20 0xFFFFFFFFFFFFFFFFFFFFFFFFFFFFFFFFFFFFFFFF AND DUP2 MSTORE PUSH1 0x20 ADD DUP3 DUP2 MSTORE PUSH1 0x20 ADD PUSH1 0x0 ISZERO ISZERO DUP2 MSTORE POP PUSH1 0x0 DUP1 PUSH1 0x3 SLOAD DUP2 MSTORE PUSH1 0x20 ADD SWAP1 DUP2 MSTORE PUSH1 0x20 ADD PUSH1 0x0 KECCAK256 PUSH1 0x0 DUP3 ADD MLOAD DUP2 PUSH1 0x0 ADD SSTORE PUSH1 0x20 DUP3 ADD MLOAD DUP2 PUSH1 0x1 ADD PUSH1 0x0 PUSH2 0x100 EXP DUP2 SLOAD DUP2 PUSH20 0xFFFFFFFFFFFFFFFFFFFFFFFFFFFFFFFFFFFFFFFF MUL NOT AND SWAP1 DUP4 PUSH20 0xFFFFFFFFFFFFFFFFFFFFFFFFFFFFFFFFFFFFFFFF AND MUL OR SWAP1 SSTORE POP PUSH1 0x40 DUP3 ADD MLOAD DUP2 PUSH1 0x2 ADD PUSH1 0x0 PUSH2 0x100 EXP DUP2 SLOAD DUP2 PUSH20 0xFFFFFFFFFFFFFFFFFFFFFFFFFFFFFFFFFFFFFFFF MUL NOT AND SWAP1 DUP4 PUSH20 0xFFFFFFFFFFFFFFFFFFFFFFFFFFFFFFFFFFFFFFFF AND MUL OR SWAP1 SSTORE POP PUSH1 0x60 DUP3 ADD MLOAD DUP2 PUSH1 0x3 ADD SSTORE PUSH1 0x80 DUP3 ADD MLOAD DUP2 PUSH1 0x4 ADD PUSH1 0x0 PUSH2 0x100 EXP DUP2 SLOAD DUP2 PUSH1 0xFF MUL NOT AND SWAP1 DUP4 ISZERO ISZERO MUL OR SWAP1 SSTORE POP SWAP1 POP POP CALLER PUSH20 0xFFFFFFFFFFFFFFFFFFFFFFFFFFFFFFFFFFFFFFFF AND PUSH32 0x64FA3A05E17DBE49DA26C3E881E6CE12EE3717BFD8FC27A3D56B5E89280A8870 PUSH1 0x3 SLOAD DUP4 PUSH1 0x40 MLOAD PUSH2 0xF81 SWAP3 SWAP2 SWAP1 PUSH2 0x1D29 JUMP JUMPDEST PUSH1 0x40 MLOAD DUP1 SWAP2 SUB SWAP1 LOG2 POP JUMP JUMPDEST PUSH1 0x4 PUSH1 0x20 MSTORE DUP2 PUSH1 0x0 MSTORE PUSH1 0x40 PUSH1 0x0 KECCAK256 DUP2 DUP2 SLOAD DUP2 LT PUSH2 0xFA8 JUMPI PUSH1 0x0 DUP1 REVERT JUMPDEST SWAP1 PUSH1 0x0 MSTORE PUSH1 0x20 PUSH1 0x0 KECCAK256 ADD PUSH1 0x0 SWAP2 POP SWAP2 POP POP SLOAD DUP2 JUMP JUMPDEST PUSH1 0x40 MLOAD DUP1 PUSH1 0x40 ADD PUSH1 0x40 MSTORE DUP1 PUSH1 0x0 PUSH20 0xFFFFFFFFFFFFFFFFFFFFFFFFFFFFFFFFFFFFFFFF AND DUP2 MSTORE PUSH1 0x20 ADD PUSH1 0x60 DUP2 MSTORE POP SWAP1 JUMP JUMPDEST PUSH1 0x0 DUP2 MLOAD SWAP1 POP SWAP2 SWAP1 POP JUMP JUMPDEST PUSH1 0x0 DUP3 DUP3 MSTORE PUSH1 0x20 DUP3 ADD SWAP1 POP SWAP3 SWAP2 POP POP JUMP JUMPDEST PUSH1 0x0 DUP2 SWAP1 POP PUSH1 0x20 DUP3 ADD SWAP1 POP SWAP2 SWAP1 POP JUMP JUMPDEST PUSH1 0x0 PUSH20 0xFFFFFFFFFFFFFFFFFFFFFFFFFFFFFFFFFFFFFFFF DUP3 AND SWAP1 POP SWAP2 SWAP1 POP JUMP JUMPDEST PUSH1 0x0 PUSH2 0x1044 DUP3 PUSH2 0x1019 JUMP JUMPDEST SWAP1 POP SWAP2 SWAP1 POP JUMP JUMPDEST PUSH2 0x1054 DUP2 PUSH2 0x1039 JUMP JUMPDEST DUP3 MSTORE POP POP JUMP JUMPDEST PUSH1 0x0 DUP2 MLOAD SWAP1 POP SWAP2 SWAP1 POP JUMP JUMPDEST PUSH1 0x0 DUP3 DUP3 MSTORE PUSH1 0x20 DUP3 ADD SWAP1 POP SWAP3 SWAP2 POP POP JUMP JUMPDEST PUSH1 0x0 JUMPDEST DUP4 DUP2 LT ISZERO PUSH2 0x1094 JUMPI DUP1 DUP3 ADD MLOAD DUP2 DUP5 ADD MSTORE PUSH1 0x20 DUP2 ADD SWAP1 POP PUSH2 0x1079 JUMP JUMPDEST PUSH1 0x0 DUP5 DUP5 ADD MSTORE POP POP POP POP JUMP JUMPDEST PUSH1 0x0 PUSH1 0x1F NOT PUSH1 0x1F DUP4 ADD AND SWAP1 POP SWAP2 SWAP1 POP JUMP JUMPDEST PUSH1 0x0 PUSH2 0x10BC DUP3 PUSH2 0x105A JUMP JUMPDEST PUSH2 0x10C6 DUP2 DUP6 PUSH2 0x1065 JUMP JUMPDEST SWAP4 POP PUSH2 0x10D6 DUP2 DUP6 PUSH1 0x20 DUP7 ADD PUSH2 0x1076 JUMP JUMPDEST PUSH2 0x10DF DUP2 PUSH2 0x10A0 JUMP JUMPDEST DUP5 ADD SWAP2 POP POP SWAP3 SWAP2 POP POP JUMP JUMPDEST PUSH1 0x0 PUSH1 0x40 DUP4 ADD PUSH1 0x0 DUP4 ADD MLOAD PUSH2 0x1102 PUSH1 0x0 DUP7 ADD DUP3 PUSH2 0x104B JUMP JUMPDEST POP PUSH1 0x20 DUP4 ADD MLOAD DUP5 DUP3 SUB PUSH1 0x20 DUP7 ADD MSTORE PUSH2 0x111A DUP3 DUP3 PUSH2 0x10B1 JUMP JUMPDEST SWAP2 POP POP DUP1 SWAP2 POP POP SWAP3 SWAP2 POP POP JUMP JUMPDEST PUSH1 0x0 PUSH2 0x1133 DUP4 DUP4 PUSH2 0x10EA JUMP JUMPDEST SWAP1 POP SWAP3 SWAP2 POP POP JUMP JUMPDEST PUSH1 0x0 PUSH1 0x20 DUP3 ADD SWAP1 POP SWAP2 SWAP1 POP JUMP JUMPDEST PUSH1 0x0 PUSH2 0x1153 DUP3 PUSH2 0xFED JUMP JUMPDEST PUSH2 0x115D DUP2 DUP6 PUSH2 0xFF8 JUMP JUMPDEST SWAP4 POP DUP4 PUSH1 0x20 DUP3 MUL DUP6 ADD PUSH2 0x116F DUP6 PUSH2 0x1009 JUMP JUMPDEST DUP1 PUSH1 0x0 JUMPDEST DUP6 DUP2 LT ISZERO PUSH2 0x11AB JUMPI DUP5 DUP5 SUB DUP10 MSTORE DUP2 MLOAD PUSH2 0x118C DUP6 DUP3 PUSH2 0x1127 JUMP JUMPDEST SWAP5 POP PUSH2 0x1197 DUP4 PUSH2 0x113B JUMP JUMPDEST SWAP3 POP PUSH1 0x20 DUP11 ADD SWAP10 POP POP PUSH1 0x1 DUP2 ADD SWAP1 POP PUSH2 0x1173 JUMP JUMPDEST POP DUP3 SWAP8 POP DUP8 SWAP6 POP POP POP POP POP POP SWAP3 SWAP2 POP POP JUMP JUMPDEST PUSH1 0x0 PUSH1 0x20 DUP3 ADD SWAP1 POP DUP2 DUP2 SUB PUSH1 0x0 DUP4 ADD MSTORE PUSH2 0x11D7 DUP2 DUP5 PUSH2 0x1148 JUMP JUMPDEST SWAP1 POP SWAP3 SWAP2 POP POP JUMP JUMPDEST PUSH1 0x0 PUSH1 0x40 MLOAD SWAP1 POP SWAP1 JUMP JUMPDEST PUSH1 0x0 DUP1 REVERT JUMPDEST PUSH1 0x0 DUP1 REVERT JUMPDEST PUSH1 0x0 DUP2 SWAP1 POP SWAP2 SWAP1 POP JUMP JUMPDEST PUSH2 0x1206 DUP2 PUSH2 0x11F3 JUMP JUMPDEST DUP2 EQ PUSH2 0x1211 JUMPI PUSH1 0x0 DUP1 REVERT JUMPDEST POP JUMP JUMPDEST PUSH1 0x0 DUP2 CALLDATALOAD SWAP1 POP PUSH2 0x1223 DUP2 PUSH2 0x11FD JUMP JUMPDEST SWAP3 SWAP2 POP POP JUMP JUMPDEST PUSH1 0x0 PUSH1 0x20 DUP3 DUP5 SUB SLT ISZERO PUSH2 0x123F JUMPI PUSH2 0x123E PUSH2 0x11E9 JUMP JUMPDEST JUMPDEST PUSH1 0x0 PUSH2 0x124D DUP5 DUP3 DUP6 ADD PUSH2 0x1214 JUMP JUMPDEST SWAP2 POP POP SWAP3 SWAP2 POP POP JUMP JUMPDEST PUSH2 0x125F DUP2 PUSH2 0x1039 JUMP JUMPDEST DUP3 MSTORE POP POP JUMP JUMPDEST PUSH1 0x0 PUSH1 0x20 DUP3 ADD SWAP1 POP PUSH2 0x127A PUSH1 0x0 DUP4 ADD DUP5 PUSH2 0x1256 JUMP JUMPDEST SWAP3 SWAP2 POP POP JUMP JUMPDEST PUSH2 0x1289 DUP2 PUSH2 0x11F3 JUMP JUMPDEST DUP3 MSTORE POP POP JUMP JUMPDEST PUSH1 0x0 DUP2 ISZERO ISZERO SWAP1 POP SWAP2 SWAP1 POP JUMP JUMPDEST PUSH2 0x12A4 DUP2 PUSH2 0x128F JUMP JUMPDEST DUP3 MSTORE POP POP JUMP JUMPDEST PUSH1 0x0 PUSH1 0xA0 DUP3 ADD SWAP1 POP PUSH2 0x12BF PUSH1 0x0 DUP4 ADD DUP9 PUSH2 0x1280 JUMP JUMPDEST PUSH2 0x12CC PUSH1 0x20 DUP4 ADD DUP8 PUSH2 0x1256 JUMP JUMPDEST PUSH2 0x12D9 PUSH1 0x40 DUP4 ADD DUP7 PUSH2 0x1256 JUMP JUMPDEST PUSH2 0x12E6 PUSH1 0x60 DUP4 ADD DUP6 PUSH2 0x1280 JUMP JUMPDEST PUSH2 0x12F3 PUSH1 0x80 DUP4 ADD DUP5 PUSH2 0x129B JUMP JUMPDEST SWAP7 SWAP6 POP POP POP POP POP POP JUMP JUMPDEST PUSH2 0x1306 DUP2 PUSH2 0x1039 JUMP JUMPDEST DUP2 EQ PUSH2 0x1311 JUMPI PUSH1 0x0 DUP1 REVERT JUMPDEST POP JUMP JUMPDEST PUSH1 0x0 DUP2 CALLDATALOAD SWAP1 POP PUSH2 0x1323 DUP2 PUSH2 0x12FD JUMP JUMPDEST SWAP3 SWAP2 POP POP JUMP JUMPDEST PUSH1 0x0 PUSH1 0x20 DUP3 DUP5 SUB SLT ISZERO PUSH2 0x133F JUMPI PUSH2 0x133E PUSH2 0x11E9 JUMP JUMPDEST JUMPDEST PUSH1 0x0 PUSH2 0x134D DUP5 DUP3 DUP6 ADD PUSH2 0x1314 JUMP JUMPDEST SWAP2 POP POP SWAP3 SWAP2 POP POP JUMP JUMPDEST PUSH1 0x0 DUP3 DUP3 MSTORE PUSH1 0x20 DUP3 ADD SWAP1 POP SWAP3 SWAP2 POP POP JUMP JUMPDEST PUSH1 0x0 PUSH2 0x1372 DUP3 PUSH2 0x105A JUMP JUMPDEST PUSH2 0x137C DUP2 DUP6 PUSH2 0x1356 JUMP JUMPDEST SWAP4 POP PUSH2 0x138C DUP2 DUP6 PUSH1 0x20 DUP7 ADD PUSH2 0x1076 JUMP JUMPDEST PUSH2 0x1395 DUP2 PUSH2 0x10A0 JUMP JUMPDEST DUP5 ADD SWAP2 POP POP SWAP3 SWAP2 POP POP JUMP JUMPDEST PUSH1 0x0 PUSH1 0x40 DUP3 ADD SWAP1 POP PUSH2 0x13B5 PUSH1 0x0 DUP4 ADD DUP6 PUSH2 0x1256 JUMP JUMPDEST DUP2 DUP2 SUB PUSH1 0x20 DUP4 ADD MSTORE PUSH2 0x13C7 DUP2 DUP5 PUSH2 0x1367 JUMP JUMPDEST SWAP1 POP SWAP4 SWAP3 POP POP POP JUMP JUMPDEST PUSH1 0x0 DUP1 REVERT JUMPDEST PUSH1 0x0 DUP1 REVERT JUMPDEST PUSH32 0x4E487B7100000000000000000000000000000000000000000000000000000000 PUSH1 0x0 MSTORE PUSH1 0x41 PUSH1 0x4 MSTORE PUSH1 0x24 PUSH1 0x0 REVERT JUMPDEST PUSH2 0x1412 DUP3 PUSH2 0x10A0 JUMP JUMPDEST DUP2 ADD DUP2 DUP2 LT PUSH8 0xFFFFFFFFFFFFFFFF DUP3 GT OR ISZERO PUSH2 0x1431 JUMPI PUSH2 0x1430 PUSH2 0x13DA JUMP JUMPDEST JUMPDEST DUP1 PUSH1 0x40 MSTORE POP POP POP JUMP JUMPDEST PUSH1 0x0 PUSH2 0x1444 PUSH2 0x11DF JUMP JUMPDEST SWAP1 POP PUSH2 0x1450 DUP3 DUP3 PUSH2 0x1409 JUMP JUMPDEST SWAP2 SWAP1 POP JUMP JUMPDEST PUSH1 0x0 PUSH8 0xFFFFFFFFFFFFFFFF DUP3 GT ISZERO PUSH2 0x1470 JUMPI PUSH2 0x146F PUSH2 0x13DA JUMP JUMPDEST JUMPDEST PUSH2 0x1479 DUP3 PUSH2 0x10A0 JUMP JUMPDEST SWAP1 POP PUSH1 0x20 DUP2 ADD SWAP1 POP SWAP2 SWAP1 POP JUMP JUMPDEST DUP3 DUP2 DUP4 CALLDATACOPY PUSH1 0x0 DUP4 DUP4 ADD MSTORE POP POP POP JUMP JUMPDEST PUSH1 0x0 PUSH2 0x14A8 PUSH2 0x14A3 DUP5 PUSH2 0x1455 JUMP JUMPDEST PUSH2 0x143A JUMP JUMPDEST SWAP1 POP DUP3 DUP2 MSTORE PUSH1 0x20 DUP2 ADD DUP5 DUP5 DUP5 ADD GT ISZERO PUSH2 0x14C4 JUMPI PUSH2 0x14C3 PUSH2 0x13D5 JUMP JUMPDEST JUMPDEST PUSH2 0x14CF DUP5 DUP3 DUP6 PUSH2 0x1486 JUMP JUMPDEST POP SWAP4 SWAP3 POP POP POP JUMP JUMPDEST PUSH1 0x0 DUP3 PUSH1 0x1F DUP4 ADD SLT PUSH2 0x14EC JUMPI PUSH2 0x14EB PUSH2 0x13D0 JUMP JUMPDEST JUMPDEST DUP2 CALLDATALOAD PUSH2 0x14FC DUP5 DUP3 PUSH1 0x20 DUP7 ADD PUSH2 0x1495 JUMP JUMPDEST SWAP2 POP POP SWAP3 SWAP2 POP POP JUMP JUMPDEST PUSH1 0x0 PUSH1 0x20 DUP3 DUP5 SUB SLT ISZERO PUSH2 0x151B JUMPI PUSH2 0x151A PUSH2 0x11E9 JUMP JUMPDEST JUMPDEST PUSH1 0x0 DUP3 ADD CALLDATALOAD PUSH8 0xFFFFFFFFFFFFFFFF DUP2 GT ISZERO PUSH2 0x1539 JUMPI PUSH2 0x1538 PUSH2 0x11EE JUMP JUMPDEST JUMPDEST PUSH2 0x1545 DUP5 DUP3 DUP6 ADD PUSH2 0x14D7 JUMP JUMPDEST SWAP2 POP POP SWAP3 SWAP2 POP POP JUMP JUMPDEST PUSH1 0x0 DUP2 MLOAD SWAP1 POP SWAP2 SWAP1 POP JUMP JUMPDEST PUSH1 0x0 DUP3 DUP3 MSTORE PUSH1 0x20 DUP3 ADD SWAP1 POP SWAP3 SWAP2 POP POP JUMP JUMPDEST PUSH1 0x0 DUP2 SWAP1 POP PUSH1 0x20 DUP3 ADD SWAP1 POP SWAP2 SWAP1 POP JUMP JUMPDEST PUSH2 0x1583 DUP2 PUSH2 0x11F3 JUMP JUMPDEST DUP3 MSTORE POP POP JUMP JUMPDEST PUSH1 0x0 PUSH2 0x1595 DUP4 DUP4 PUSH2 0x157A JUMP JUMPDEST PUSH1 0x20 DUP4 ADD SWAP1 POP SWAP3 SWAP2 POP POP JUMP JUMPDEST PUSH1 0x0 PUSH1 0x20 DUP3 ADD SWAP1 POP SWAP2 SWAP1 POP JUMP JUMPDEST PUSH1 0x0 PUSH2 0x15B9 DUP3 PUSH2 0x154E JUMP JUMPDEST PUSH2 0x15C3 DUP2 DUP6 PUSH2 0x1559 JUMP JUMPDEST SWAP4 POP PUSH2 0x15CE DUP4 PUSH2 0x156A JUMP JUMPDEST DUP1 PUSH1 0x0 JUMPDEST DUP4 DUP2 LT ISZERO PUSH2 0x15FF JUMPI DUP2 MLOAD PUSH2 0x15E6 DUP9 DUP3 PUSH2 0x1589 JUMP JUMPDEST SWAP8 POP PUSH2 0x15F1 DUP4 PUSH2 0x15A1 JUMP JUMPDEST SWAP3 POP POP PUSH1 0x1 DUP2 ADD SWAP1 POP PUSH2 0x15D2 JUMP JUMPDEST POP DUP6 SWAP4 POP POP POP POP SWAP3 SWAP2 POP POP JUMP JUMPDEST PUSH1 0x0 PUSH1 0x20 DUP3 ADD SWAP1 POP DUP2 DUP2 SUB PUSH1 0x0 DUP4 ADD MSTORE PUSH2 0x1626 DUP2 DUP5 PUSH2 0x15AE JUMP JUMPDEST SWAP1 POP SWAP3 SWAP2 POP POP JUMP JUMPDEST PUSH1 0x0 PUSH1 0x20 DUP3 ADD SWAP1 POP PUSH2 0x1643 PUSH1 0x0 DUP4 ADD DUP5 PUSH2 0x1280 JUMP JUMPDEST SWAP3 SWAP2 POP POP JUMP JUMPDEST PUSH1 0x0 DUP1 PUSH1 0x40 DUP4 DUP6 SUB SLT ISZERO PUSH2 0x1660 JUMPI PUSH2 0x165F PUSH2 0x11E9 JUMP JUMPDEST JUMPDEST PUSH1 0x0 PUSH2 0x166E DUP6 DUP3 DUP7 ADD PUSH2 0x1314 JUMP JUMPDEST SWAP3 POP POP PUSH1 0x20 PUSH2 0x167F DUP6 DUP3 DUP7 ADD PUSH2 0x1214 JUMP JUMPDEST SWAP2 POP POP SWAP3 POP SWAP3 SWAP1 POP JUMP JUMPDEST PUSH32 0x4E487B7100000000000000000000000000000000000000000000000000000000 PUSH1 0x0 MSTORE PUSH1 0x32 PUSH1 0x4 MSTORE PUSH1 0x24 PUSH1 0x0 REVERT JUMPDEST PUSH32 0x4E487B7100000000000000000000000000000000000000000000000000000000 PUSH1 0x0 MSTORE PUSH1 0x22 PUSH1 0x4 MSTORE PUSH1 0x24 PUSH1 0x0 REVERT JUMPDEST PUSH1 0x0 PUSH1 0x2 DUP3 DIV SWAP1 POP PUSH1 0x1 DUP3 AND DUP1 PUSH2 0x16FF JUMPI PUSH1 0x7F DUP3 AND SWAP2 POP JUMPDEST PUSH1 0x20 DUP3 LT DUP2 SUB PUSH2 0x1712 JUMPI PUSH2 0x1711 PUSH2 0x16B8 JUMP JUMPDEST JUMPDEST POP SWAP2 SWAP1 POP JUMP JUMPDEST PUSH32 0x4E487B7100000000000000000000000000000000000000000000000000000000 PUSH1 0x0 MSTORE PUSH1 0x11 PUSH1 0x4 MSTORE PUSH1 0x24 PUSH1 0x0 REVERT JUMPDEST PUSH1 0x0 PUSH2 0x1752 DUP3 PUSH2 0x11F3 JUMP JUMPDEST SWAP2 POP PUSH32 0xFFFFFFFFFFFFFFFFFFFFFFFFFFFFFFFFFFFFFFFFFFFFFFFFFFFFFFFFFFFFFFFF DUP3 SUB PUSH2 0x1784 JUMPI PUSH2 0x1783 PUSH2 0x1718 JUMP JUMPDEST JUMPDEST PUSH1 0x1 DUP3 ADD SWAP1 POP SWAP2 SWAP1 POP JUMP JUMPDEST PUSH32 0x596F7520617265206E6F7420746865206F776E6572206F66207468697320636F PUSH1 0x0 DUP3 ADD MSTORE PUSH32 0x75706F6E00000000000000000000000000000000000000000000000000000000 PUSH1 0x20 DUP3 ADD MSTORE POP JUMP JUMPDEST PUSH1 0x0 PUSH2 0x17EB PUSH1 0x24 DUP4 PUSH2 0x1356 JUMP JUMPDEST SWAP2 POP PUSH2 0x17F6 DUP3 PUSH2 0x178F JUMP JUMPDEST PUSH1 0x40 DUP3 ADD SWAP1 POP SWAP2 SWAP1 POP JUMP JUMPDEST PUSH1 0x0 PUSH1 0x20 DUP3 ADD SWAP1 POP DUP2 DUP2 SUB PUSH1 0x0 DUP4 ADD MSTORE PUSH2 0x181A DUP2 PUSH2 0x17DE JUMP JUMPDEST SWAP1 POP SWAP2 SWAP1 POP JUMP JUMPDEST PUSH32 0x436F75706F6E20616C72656164792072656465656D6564000000000000000000 PUSH1 0x0 DUP3 ADD MSTORE POP JUMP JUMPDEST PUSH1 0x0 PUSH2 0x1857 PUSH1 0x17 DUP4 PUSH2 0x1356 JUMP JUMPDEST SWAP2 POP PUSH2 0x1862 DUP3 PUSH2 0x1821 JUMP JUMPDEST PUSH1 0x20 DUP3 ADD SWAP1 POP SWAP2 SWAP1 POP JUMP JUMPDEST PUSH1 0x0 PUSH1 0x20 DUP3 ADD SWAP1 POP DUP2 DUP2 SUB PUSH1 0x0 DUP4 ADD MSTORE PUSH2 0x1886 DUP2 PUSH2 0x184A JUMP JUMPDEST SWAP1 POP SWAP2 SWAP1 POP JUMP JUMPDEST PUSH32 0x4F7267616E697A6174696F6E20616C72656164792065786973747320666F7220 PUSH1 0x0 DUP3 ADD MSTORE PUSH32 0x7468697320616464726573730000000000000000000000000000000000000000 PUSH1 0x20 DUP3 ADD MSTORE POP JUMP JUMPDEST PUSH1 0x0 PUSH2 0x18E9 PUSH1 0x2C DUP4 PUSH2 0x1356 JUMP JUMPDEST SWAP2 POP PUSH2 0x18F4 DUP3 PUSH2 0x188D JUMP JUMPDEST PUSH1 0x40 DUP3 ADD SWAP1 POP SWAP2 SWAP1 POP JUMP JUMPDEST PUSH1 0x0 PUSH1 0x20 DUP3 ADD SWAP1 POP DUP2 DUP2 SUB PUSH1 0x0 DUP4 ADD MSTORE PUSH2 0x1918 DUP2 PUSH2 0x18DC JUMP JUMPDEST SWAP1 POP SWAP2 SWAP1 POP JUMP JUMPDEST PUSH1 0x0 DUP2 SWAP1 POP DUP2 PUSH1 0x0 MSTORE PUSH1 0x20 PUSH1 0x0 KECCAK256 SWAP1 POP SWAP2 SWAP1 POP JUMP JUMPDEST PUSH1 0x0 PUSH1 0x20 PUSH1 0x1F DUP4 ADD DIV SWAP1 POP SWAP2 SWAP1 POP JUMP JUMPDEST PUSH1 0x0 DUP3 DUP3 SHL SWAP1 POP SWAP3 SWAP2 POP POP JUMP JUMPDEST PUSH1 0x0 PUSH1 0x8 DUP4 MUL PUSH2 0x1981 PUSH32 0xFFFFFFFFFFFFFFFFFFFFFFFFFFFFFFFFFFFFFFFFFFFFFFFFFFFFFFFFFFFFFFFF DUP3 PUSH2 0x1944 JUMP JUMPDEST PUSH2 0x198B DUP7 DUP4 PUSH2 0x1944 JUMP JUMPDEST SWAP6 POP DUP1 NOT DUP5 AND SWAP4 POP DUP1 DUP7 AND DUP5 OR SWAP3 POP POP POP SWAP4 SWAP3 POP POP POP JUMP JUMPDEST PUSH1 0x0 DUP2 SWAP1 POP SWAP2 SWAP1 POP JUMP JUMPDEST PUSH1 0x0 PUSH2 0x19C8 PUSH2 0x19C3 PUSH2 0x19BE DUP5 PUSH2 0x11F3 JUMP JUMPDEST PUSH2 0x19A3 JUMP JUMPDEST PUSH2 0x11F3 JUMP JUMPDEST SWAP1 POP SWAP2 SWAP1 POP JUMP JUMPDEST PUSH1 0x0 DUP2 SWAP1 POP SWAP2 SWAP1 POP JUMP JUMPDEST PUSH2 0x19E2 DUP4 PUSH2 0x19AD JUMP JUMPDEST PUSH2 0x19F6 PUSH2 0x19EE DUP3 PUSH2 0x19CF JUMP JUMPDEST DUP5 DUP5 SLOAD PUSH2 0x1951 JUMP JUMPDEST DUP3 SSTORE POP POP POP POP JUMP JUMPDEST PUSH1 0x0 SWAP1 JUMP JUMPDEST PUSH2 0x1A0B PUSH2 0x19FE JUMP JUMPDEST PUSH2 0x1A16 DUP2 DUP5 DUP5 PUSH2 0x19D9 JUMP JUMPDEST POP POP POP JUMP JUMPDEST JUMPDEST DUP2 DUP2 LT ISZERO PUSH2 0x1A3A JUMPI PUSH2 0x1A2F PUSH1 0x0 DUP3 PUSH2 0x1A03 JUMP JUMPDEST PUSH1 0x1 DUP2 ADD SWAP1 POP PUSH2 0x1A1C JUMP JUMPDEST POP POP JUMP JUMPDEST PUSH1 0x1F DUP3 GT ISZERO PUSH2 0x1A7F JUMPI PUSH2 0x1A50 DUP2 PUSH2 0x191F JUMP JUMPDEST PUSH2 0x1A59 DUP5 PUSH2 0x1934 JUMP JUMPDEST DUP2 ADD PUSH1 0x20 DUP6 LT ISZERO PUSH2 0x1A68 JUMPI DUP2 SWAP1 POP JUMPDEST PUSH2 0x1A7C PUSH2 0x1A74 DUP6 PUSH2 0x1934 JUMP JUMPDEST DUP4 ADD DUP3 PUSH2 0x1A1B JUMP JUMPDEST POP POP JUMPDEST POP POP POP JUMP JUMPDEST PUSH1 0x0 DUP3 DUP3 SHR SWAP1 POP SWAP3 SWAP2 POP POP JUMP JUMPDEST PUSH1 0x0 PUSH2 0x1AA2 PUSH1 0x0 NOT DUP5 PUSH1 0x8 MUL PUSH2 0x1A84 JUMP JUMPDEST NOT DUP1 DUP4 AND SWAP2 POP POP SWAP3 SWAP2 POP POP JUMP JUMPDEST PUSH1 0x0 PUSH2 0x1ABB DUP4 DUP4 PUSH2 0x1A91 JUMP JUMPDEST SWAP2 POP DUP3 PUSH1 0x2 MUL DUP3 OR SWAP1 POP SWAP3 SWAP2 POP POP JUMP JUMPDEST PUSH2 0x1AD4 DUP3 PUSH2 0x105A JUMP JUMPDEST PUSH8 0xFFFFFFFFFFFFFFFF DUP2 GT ISZERO PUSH2 0x1AED JUMPI PUSH2 0x1AEC PUSH2 0x13DA JUMP JUMPDEST JUMPDEST PUSH2 0x1AF7 DUP3 SLOAD PUSH2 0x16E7 JUMP JUMPDEST PUSH2 0x1B02 DUP3 DUP3 DUP6 PUSH2 0x1A3E JUMP JUMPDEST PUSH1 0x0 PUSH1 0x20 SWAP1 POP PUSH1 0x1F DUP4 GT PUSH1 0x1 DUP2 EQ PUSH2 0x1B35 JUMPI PUSH1 0x0 DUP5 ISZERO PUSH2 0x1B23 JUMPI DUP3 DUP8 ADD MLOAD SWAP1 POP JUMPDEST PUSH2 0x1B2D DUP6 DUP3 PUSH2 0x1AAF JUMP JUMPDEST DUP7 SSTORE POP PUSH2 0x1B95 JUMP JUMPDEST PUSH1 0x1F NOT DUP5 AND PUSH2 0x1B43 DUP7 PUSH2 0x191F JUMP JUMPDEST PUSH1 0x0 JUMPDEST DUP3 DUP2 LT ISZERO PUSH2 0x1B6B JUMPI DUP5 DUP10 ADD MLOAD DUP3 SSTORE PUSH1 0x1 DUP3 ADD SWAP2 POP PUSH1 0x20 DUP6 ADD SWAP5 POP PUSH1 0x20 DUP2 ADD SWAP1 POP PUSH2 0x1B46 JUMP JUMPDEST DUP7 DUP4 LT ISZERO PUSH2 0x1B88 JUMPI DUP5 DUP10 ADD MLOAD PUSH2 0x1B84 PUSH1 0x1F DUP10 AND DUP3 PUSH2 0x1A91 JUMP JUMPDEST DUP4 SSTORE POP JUMPDEST PUSH1 0x1 PUSH1 0x2 DUP9 MUL ADD DUP9 SSTORE POP POP POP JUMPDEST POP POP POP POP POP POP JUMP JUMPDEST PUSH1 0x0 PUSH1 0x20 DUP3 ADD SWAP1 POP DUP2 DUP2 SUB PUSH1 0x0 DUP4 ADD MSTORE PUSH2 0x1BB7 DUP2 DUP5 PUSH2 0x1367 JUMP JUMPDEST SWAP1 POP SWAP3 SWAP2 POP POP JUMP JUMPDEST PUSH32 0x4F7267616E697A6174696F6E20646F6573206E6F742065786973740000000000 PUSH1 0x0 DUP3 ADD MSTORE POP JUMP JUMPDEST PUSH1 0x0 PUSH2 0x1BF5 PUSH1 0x1B DUP4 PUSH2 0x1356 JUMP JUMPDEST SWAP2 POP PUSH2 0x1C00 DUP3 PUSH2 0x1BBF JUMP JUMPDEST PUSH1 0x20 DUP3 ADD SWAP1 POP SWAP2 SWAP1 POP JUMP JUMPDEST PUSH1 0x0 PUSH1 0x20 DUP3 ADD SWAP1 POP DUP2 DUP2 SUB PUSH1 0x0 DUP4 ADD MSTORE PUSH2 0x1C24 DUP2 PUSH2 0x1BE8 JUMP JUMPDEST SWAP1 POP SWAP2 SWAP1 POP JUMP JUMPDEST PUSH32 0x436F75706F6E20697320616C726561647920636C61696D656400000000000000 PUSH1 0x0 DUP3 ADD MSTORE POP JUMP JUMPDEST PUSH1 0x0 PUSH2 0x1C61 PUSH1 0x19 DUP4 PUSH2 0x1356 JUMP JUMPDEST SWAP2 POP PUSH2 0x1C6C DUP3 PUSH2 0x1C2B JUMP JUMPDEST PUSH1 0x20 DUP3 ADD SWAP1 POP SWAP2 SWAP1 POP JUMP JUMPDEST PUSH1 0x0 PUSH1 0x20 DUP3 ADD SWAP1 POP DUP2 DUP2 SUB PUSH1 0x0 DUP4 ADD MSTORE PUSH2 0x1C90 DUP2 PUSH2 0x1C54 JUMP JUMPDEST SWAP1 POP SWAP2 SWAP1 POP JUMP JUMPDEST PUSH32 0x4F6E6C7920746865206F7267616E697A6174696F6E2061646D696E2063616E20 PUSH1 0x0 DUP3 ADD MSTORE PUSH32 0x63726561746520636F75706F6E73000000000000000000000000000000000000 PUSH1 0x20 DUP3 ADD MSTORE POP JUMP JUMPDEST PUSH1 0x0 PUSH2 0x1CF3 PUSH1 0x2E DUP4 PUSH2 0x1356 JUMP JUMPDEST SWAP2 POP PUSH2 0x1CFE DUP3 PUSH2 0x1C97 JUMP JUMPDEST PUSH1 0x40 DUP3 ADD SWAP1 POP SWAP2 SWAP1 POP JUMP JUMPDEST PUSH1 0x0 PUSH1 0x20 DUP3 ADD SWAP1 POP DUP2 DUP2 SUB PUSH1 0x0 DUP4 ADD MSTORE PUSH2 0x1D22 DUP2 PUSH2 0x1CE6 JUMP JUMPDEST SWAP1 POP SWAP2 SWAP1 POP JUMP JUMPDEST PUSH1 0x0 PUSH1 0x40 DUP3 ADD SWAP1 POP PUSH2 0x1D3E PUSH1 0x0 DUP4 ADD DUP6 PUSH2 0x1280 JUMP JUMPDEST PUSH2 0x1D4B PUSH1 0x20 DUP4 ADD DUP5 PUSH2 0x1280 JUMP JUMPDEST SWAP4 SWAP3 POP POP POP JUMP INVALID LOG2 PUSH5 0x6970667358 0x22 SLT KECCAK256 DUP16 INVALID CALLER 0x2A MULMOD BALANCE DUP14 0xB6 DUP3 SWAP3 BYTE 0xE5 PUSH32 0xE0CC340811ACCD19F0E56FB3A8405B692AD18564736F6C634300081300330000 "
				},
				"gasEstimates": {
					"creation": {
						"codeDepositCost": "1512000",
						"executionCost": "1582",
						"totalCost": "1513582"
					},
					"external": {
						"claimCoupon(uint256)": "infinite",
						"couponCounter()": "2473",
						"coupons(uint256)": "infinite",
						"createCoupon(uint256)": "infinite",
						"createOrganization(string)": "infinite",
						"getAllOrganizations()": "infinite",
						"getUserCoupons(address)": "infinite",
						"organizationList(uint256)": "4979",
						"organizations(address)": "infinite",
						"redeemCoupon(uint256)": "infinite",
						"userCoupons(address,uint256)": "infinite"
					}
				},
				"methodIdentifiers": {
					"claimCoupon(uint256)": "dbb026b9",
					"couponCounter()": "c10a9839",
					"coupons(uint256)": "30828e92",
					"createCoupon(uint256)": "e22a052c",
					"createOrganization(string)": "6427acca",
					"getAllOrganizations()": "086ed938",
					"getUserCoupons(address)": "8df61fcb",
					"organizationList(uint256)": "2e498df5",
					"organizations(address)": "5a1f7406",
					"redeemCoupon(uint256)": "4ffab34b",
					"userCoupons(address,uint256)": "e9eda19c"
				}
			},
			"storageLayout": {
				"storage": [
					{
						"astId": 22,
						"contract": "contracts/LoyaltyCoupon.sol:LoyaltyCoupon",
						"label": "coupons",
						"offset": 0,
						"slot": "0",
						"type": "t_mapping(t_uint256,t_struct(Coupon)12_storage)"
					},
					{
						"astId": 27,
						"contract": "contracts/LoyaltyCoupon.sol:LoyaltyCoupon",
						"label": "organizations",
						"offset": 0,
						"slot": "1",
						"type": "t_mapping(t_address,t_struct(Organization)17_storage)"
					},
					{
						"astId": 30,
						"contract": "contracts/LoyaltyCoupon.sol:LoyaltyCoupon",
						"label": "organizationList",
						"offset": 0,
						"slot": "2",
						"type": "t_array(t_address)dyn_storage"
					},
					{
						"astId": 32,
						"contract": "contracts/LoyaltyCoupon.sol:LoyaltyCoupon",
						"label": "couponCounter",
						"offset": 0,
						"slot": "3",
						"type": "t_uint256"
					},
					{
						"astId": 37,
						"contract": "contracts/LoyaltyCoupon.sol:LoyaltyCoupon",
						"label": "userCoupons",
						"offset": 0,
						"slot": "4",
						"type": "t_mapping(t_address,t_array(t_uint256)dyn_storage)"
					}
				],
				"types": {
					"t_address": {
						"encoding": "inplace",
						"label": "address",
						"numberOfBytes": "20"
					},
					"t_array(t_address)dyn_storage": {
						"base": "t_address",
						"encoding": "dynamic_array",
						"label": "address[]",
						"numberOfBytes": "32"
					},
					"t_array(t_uint256)dyn_storage": {
						"base": "t_uint256",
						"encoding": "dynamic_array",
						"label": "uint256[]",
						"numberOfBytes": "32"
					},
					"t_bool": {
						"encoding": "inplace",
						"label": "bool",
						"numberOfBytes": "1"
					},
					"t_mapping(t_address,t_array(t_uint256)dyn_storage)": {
						"encoding": "mapping",
						"key": "t_address",
						"label": "mapping(address => uint256[])",
						"numberOfBytes": "32",
						"value": "t_array(t_uint256)dyn_storage"
					},
					"t_mapping(t_address,t_struct(Organization)17_storage)": {
						"encoding": "mapping",
						"key": "t_address",
						"label": "mapping(address => struct LoyaltyCoupon.Organization)",
						"numberOfBytes": "32",
						"value": "t_struct(Organization)17_storage"
					},
					"t_mapping(t_uint256,t_struct(Coupon)12_storage)": {
						"encoding": "mapping",
						"key": "t_uint256",
						"label": "mapping(uint256 => struct LoyaltyCoupon.Coupon)",
						"numberOfBytes": "32",
						"value": "t_struct(Coupon)12_storage"
					},
					"t_string_storage": {
						"encoding": "bytes",
						"label": "string",
						"numberOfBytes": "32"
					},
					"t_struct(Coupon)12_storage": {
						"encoding": "inplace",
						"label": "struct LoyaltyCoupon.Coupon",
						"members": [
							{
								"astId": 3,
								"contract": "contracts/LoyaltyCoupon.sol:LoyaltyCoupon",
								"label": "id",
								"offset": 0,
								"slot": "0",
								"type": "t_uint256"
							},
							{
								"astId": 5,
								"contract": "contracts/LoyaltyCoupon.sol:LoyaltyCoupon",
								"label": "admin",
								"offset": 0,
								"slot": "1",
								"type": "t_address"
							},
							{
								"astId": 7,
								"contract": "contracts/LoyaltyCoupon.sol:LoyaltyCoupon",
								"label": "user",
								"offset": 0,
								"slot": "2",
								"type": "t_address"
							},
							{
								"astId": 9,
								"contract": "contracts/LoyaltyCoupon.sol:LoyaltyCoupon",
								"label": "discountAmount",
								"offset": 0,
								"slot": "3",
								"type": "t_uint256"
							},
							{
								"astId": 11,
								"contract": "contracts/LoyaltyCoupon.sol:LoyaltyCoupon",
								"label": "isRedeemed",
								"offset": 0,
								"slot": "4",
								"type": "t_bool"
							}
						],
						"numberOfBytes": "160"
					},
					"t_struct(Organization)17_storage": {
						"encoding": "inplace",
						"label": "struct LoyaltyCoupon.Organization",
						"members": [
							{
								"astId": 14,
								"contract": "contracts/LoyaltyCoupon.sol:LoyaltyCoupon",
								"label": "admin",
								"offset": 0,
								"slot": "0",
								"type": "t_address"
							},
							{
								"astId": 16,
								"contract": "contracts/LoyaltyCoupon.sol:LoyaltyCoupon",
								"label": "name",
								"offset": 0,
								"slot": "1",
								"type": "t_string_storage"
							}
						],
						"numberOfBytes": "64"
					},
					"t_uint256": {
						"encoding": "inplace",
						"label": "uint256",
						"numberOfBytes": "32"
					}
				}
			},
			"userdoc": {
				"kind": "user",
				"methods": {},
				"version": 1
			}
		}
	}
}